{
  "contractName": "HelloWorld",
  "abi": [
    {
      "inputs": [],
      "name": "saluta",
      "outputs": [
        {
          "internalType": "string",
          "name": "",
          "type": "string"
        }
      ],
      "stateMutability": "pure",
      "type": "function"
    }
  ],
  "bytecode": "0x608060405234801561001057600080fd5b5061011e806100206000396000f3fe6080604052348015600f57600080fd5b506004361060285760003560e01c806354db86bf14602d575b600080fd5b603360ab565b6040518080602001828103825283818151815260200191508051906020019080838360005b8381101560715780820151818401526020810190506058565b50505050905090810190601f168015609d5780820380516001836020036101000a031916815260200191505b509250505060405180910390f35b60606040518060400160405280600481526020017f4369616f0000000000000000000000000000000000000000000000000000000081525090509056fea264697066735822122094ce8e7fa503bd8d4c9c5f5487c99f4ff229f85b715ed2bb98dd42210e7c49de64736f6c63430007060033",
  "immutableReferences": {},
  "source": "// SPDX-License-Identifier: MIT\r\npragma solidity >=0.4.22 <0.9.0;\r\n\r\ncontract HelloWorld {\r\n    // Function that returns the string \"Ciao\"\r\n    function saluta() public pure returns (string memory) {\r\n        return \"Ciao\";\r\n    }\r\n}\r\n",
  "sourcePath": "C:\\Users\\Paolo\\OneDrive\\Documenti\\progettoBlockchain\\patent\\contracts\\test.sol",
  "compiler": {
    "name": "solc",
    "version": "0.7.6+commit.7338295f.Emscripten.clang"
  },
  "schemaVersion": "3.4.16",
  "updatedAt": "2024-01-13T13:17:20.703Z",
  "devdoc": {
    "kind": "dev",
    "methods": {},
    "version": 1
  },
  "userdoc": {
    "kind": "user",
    "methods": {},
    "version": 1
  }
}