{
  "contractName": "PatentNFT",
  "abi": [
    {
      "inputs": [
        {
          "internalType": "address",
          "name": "tokenAddress",
          "type": "address"
        }
      ],
      "stateMutability": "nonpayable",
      "type": "constructor"
    },
    {
      "anonymous": false,
      "inputs": [
        {
          "indexed": true,
          "internalType": "address",
          "name": "owner",
          "type": "address"
        },
        {
          "indexed": true,
          "internalType": "address",
          "name": "approved",
          "type": "address"
        },
        {
          "indexed": true,
          "internalType": "uint256",
          "name": "tokenId",
          "type": "uint256"
        }
      ],
      "name": "Approval",
      "type": "event"
    },
    {
      "anonymous": false,
      "inputs": [
        {
          "indexed": true,
          "internalType": "address",
          "name": "owner",
          "type": "address"
        },
        {
          "indexed": true,
          "internalType": "address",
          "name": "operator",
          "type": "address"
        },
        {
          "indexed": false,
          "internalType": "bool",
          "name": "approved",
          "type": "bool"
        }
      ],
      "name": "ApprovalForAll",
      "type": "event"
    },
    {
      "anonymous": false,
      "inputs": [
        {
          "indexed": false,
          "internalType": "uint256",
          "name": "tokenId",
          "type": "uint256"
        },
        {
          "indexed": false,
          "internalType": "address",
          "name": "owner",
          "type": "address"
        },
        {
          "indexed": false,
          "internalType": "address",
          "name": "bidder",
          "type": "address"
        }
      ],
      "name": "BidRefused",
      "type": "event"
    },
    {
      "anonymous": false,
      "inputs": [
        {
          "indexed": false,
          "internalType": "uint256",
          "name": "tokenId",
          "type": "uint256"
        },
        {
          "indexed": false,
          "internalType": "address",
          "name": "owner",
          "type": "address"
        },
        {
          "indexed": false,
          "internalType": "address",
          "name": "bidder",
          "type": "address"
        }
      ],
      "name": "MakeBid",
      "type": "event"
    },
    {
      "anonymous": false,
      "inputs": [
        {
          "indexed": true,
          "internalType": "uint256",
          "name": "patentId",
          "type": "uint256"
        },
        {
          "indexed": false,
          "internalType": "address",
          "name": "from",
          "type": "address"
        },
        {
          "indexed": false,
          "internalType": "address",
          "name": "to",
          "type": "address"
        }
      ],
      "name": "PatentAssignment",
      "type": "event"
    },
    {
      "anonymous": false,
      "inputs": [
        {
          "indexed": true,
          "internalType": "uint256",
          "name": "patentId",
          "type": "uint256"
        },
        {
          "indexed": false,
          "internalType": "address",
          "name": "owner",
          "type": "address"
        }
      ],
      "name": "PatentFiled",
      "type": "event"
    },
    {
      "anonymous": false,
      "inputs": [
        {
          "indexed": true,
          "internalType": "address",
          "name": "from",
          "type": "address"
        },
        {
          "indexed": true,
          "internalType": "address",
          "name": "to",
          "type": "address"
        },
        {
          "indexed": true,
          "internalType": "uint256",
          "name": "tokenId",
          "type": "uint256"
        }
      ],
      "name": "Transfer",
      "type": "event"
    },
    {
      "inputs": [
        {
          "internalType": "address",
          "name": "to",
          "type": "address"
        },
        {
          "internalType": "uint256",
          "name": "tokenId",
          "type": "uint256"
        }
      ],
      "name": "approve",
      "outputs": [],
      "stateMutability": "nonpayable",
      "type": "function"
    },
    {
      "inputs": [
        {
          "internalType": "address",
          "name": "owner",
          "type": "address"
        }
      ],
      "name": "balanceOf",
      "outputs": [
        {
          "internalType": "uint256",
          "name": "",
          "type": "uint256"
        }
      ],
      "stateMutability": "view",
      "type": "function",
      "constant": true
    },
    {
      "inputs": [
        {
          "internalType": "uint256",
          "name": "tokenId",
          "type": "uint256"
        }
      ],
      "name": "getApproved",
      "outputs": [
        {
          "internalType": "address",
          "name": "",
          "type": "address"
        }
      ],
      "stateMutability": "view",
      "type": "function",
      "constant": true
    },
    {
      "inputs": [
        {
          "internalType": "address",
          "name": "owner",
          "type": "address"
        },
        {
          "internalType": "address",
          "name": "operator",
          "type": "address"
        }
      ],
      "name": "isApprovedForAll",
      "outputs": [
        {
          "internalType": "bool",
          "name": "",
          "type": "bool"
        }
      ],
      "stateMutability": "view",
      "type": "function",
      "constant": true
    },
    {
      "inputs": [],
      "name": "name",
      "outputs": [
        {
          "internalType": "string",
          "name": "",
          "type": "string"
        }
      ],
      "stateMutability": "view",
      "type": "function",
      "constant": true
    },
    {
      "inputs": [
        {
          "internalType": "uint256",
          "name": "tokenId",
          "type": "uint256"
        }
      ],
      "name": "ownerOf",
      "outputs": [
        {
          "internalType": "address",
          "name": "",
          "type": "address"
        }
      ],
      "stateMutability": "view",
      "type": "function",
      "constant": true
    },
    {
      "inputs": [
        {
          "internalType": "uint256",
          "name": "",
          "type": "uint256"
        }
      ],
      "name": "patents",
      "outputs": [
        {
          "internalType": "string",
          "name": "name",
          "type": "string"
        },
        {
          "internalType": "uint256",
          "name": "timestamp",
          "type": "uint256"
        },
        {
          "internalType": "uint256",
          "name": "deadline",
          "type": "uint256"
        }
      ],
      "stateMutability": "view",
      "type": "function",
      "constant": true
    },
    {
      "inputs": [
        {
          "internalType": "address",
          "name": "from",
          "type": "address"
        },
        {
          "internalType": "address",
          "name": "to",
          "type": "address"
        },
        {
          "internalType": "uint256",
          "name": "tokenId",
          "type": "uint256"
        }
      ],
      "name": "safeTransferFrom",
      "outputs": [],
      "stateMutability": "nonpayable",
      "type": "function"
    },
    {
      "inputs": [
        {
          "internalType": "address",
          "name": "from",
          "type": "address"
        },
        {
          "internalType": "address",
          "name": "to",
          "type": "address"
        },
        {
          "internalType": "uint256",
          "name": "tokenId",
          "type": "uint256"
        },
        {
          "internalType": "bytes",
          "name": "_data",
          "type": "bytes"
        }
      ],
      "name": "safeTransferFrom",
      "outputs": [],
      "stateMutability": "nonpayable",
      "type": "function"
    },
    {
      "inputs": [
        {
          "internalType": "address",
          "name": "operator",
          "type": "address"
        },
        {
          "internalType": "bool",
          "name": "approved",
          "type": "bool"
        }
      ],
      "name": "setApprovalForAll",
      "outputs": [],
      "stateMutability": "nonpayable",
      "type": "function"
    },
    {
      "inputs": [
        {
          "internalType": "bytes4",
          "name": "interfaceId",
          "type": "bytes4"
        }
      ],
      "name": "supportsInterface",
      "outputs": [
        {
          "internalType": "bool",
          "name": "",
          "type": "bool"
        }
      ],
      "stateMutability": "view",
      "type": "function",
      "constant": true
    },
    {
      "inputs": [],
      "name": "symbol",
      "outputs": [
        {
          "internalType": "string",
          "name": "",
          "type": "string"
        }
      ],
      "stateMutability": "view",
      "type": "function",
      "constant": true
    },
    {
      "inputs": [],
      "name": "token",
      "outputs": [
        {
          "internalType": "contract IPatentToken",
          "name": "",
          "type": "address"
        }
      ],
      "stateMutability": "view",
      "type": "function",
      "constant": true
    },
    {
      "inputs": [
        {
          "internalType": "uint256",
          "name": "tokenId",
          "type": "uint256"
        }
      ],
      "name": "tokenURI",
      "outputs": [
        {
          "internalType": "string",
          "name": "",
          "type": "string"
        }
      ],
      "stateMutability": "view",
      "type": "function",
      "constant": true
    },
    {
      "inputs": [
        {
          "internalType": "address",
          "name": "from",
          "type": "address"
        },
        {
          "internalType": "address",
          "name": "to",
          "type": "address"
        },
        {
          "internalType": "uint256",
          "name": "tokenId",
          "type": "uint256"
        }
      ],
      "name": "transferFrom",
      "outputs": [],
      "stateMutability": "nonpayable",
      "type": "function"
    },
    {
      "inputs": [
        {
          "internalType": "string",
          "name": "_uri",
          "type": "string"
        },
        {
          "internalType": "string",
          "name": "_name",
          "type": "string"
        }
      ],
      "name": "filePatent",
      "outputs": [],
      "stateMutability": "nonpayable",
      "type": "function"
    },
    {
      "inputs": [],
      "name": "getTokenCount",
      "outputs": [
        {
          "internalType": "uint256",
          "name": "",
          "type": "uint256"
        }
      ],
      "stateMutability": "view",
      "type": "function",
      "constant": true
    },
    {
      "inputs": [
        {
          "internalType": "uint256",
          "name": "tokenId",
          "type": "uint256"
        }
      ],
      "name": "getBids",
      "outputs": [
        {
          "components": [
            {
              "internalType": "address",
              "name": "bidder",
              "type": "address"
            },
            {
              "internalType": "uint256",
              "name": "amount",
              "type": "uint256"
            },
            {
              "internalType": "enum PatentNFT.State",
              "name": "state",
              "type": "uint8"
            }
          ],
          "internalType": "struct PatentNFT.Bid[]",
          "name": "",
          "type": "tuple[]"
        }
      ],
      "stateMutability": "view",
      "type": "function",
      "constant": true
    },
    {
      "inputs": [
        {
          "internalType": "uint256",
          "name": "tokenId",
          "type": "uint256"
        },
        {
          "internalType": "uint256",
          "name": "indexBid",
          "type": "uint256"
        }
      ],
      "name": "rejectBid",
      "outputs": [],
      "stateMutability": "nonpayable",
      "type": "function"
    },
    {
      "inputs": [
        {
          "internalType": "uint256",
          "name": "tokenId",
          "type": "uint256"
        },
        {
          "internalType": "uint256",
          "name": "indexBid",
          "type": "uint256"
        }
      ],
      "name": "acceptBid",
      "outputs": [],
      "stateMutability": "nonpayable",
      "type": "function"
    },
    {
      "inputs": [
        {
          "internalType": "uint256",
          "name": "patentId",
          "type": "uint256"
        },
        {
          "internalType": "uint256",
          "name": "amount",
          "type": "uint256"
        }
      ],
      "name": "makeBid",
      "outputs": [],
      "stateMutability": "nonpayable",
      "type": "function"
    }
  ],
  "bytecode": "0x60806040523480156200001157600080fd5b50604051620045ba380380620045ba8339818101604052810190620000379190620001ee565b6040518060400160405280600981526020017f506174656e744e465400000000000000000000000000000000000000000000008152506040518060400160405280600581526020017f50544e46540000000000000000000000000000000000000000000000000000008152508160009080519060200190620000bb92919062000127565b508060019080519060200190620000d492919062000127565b50505080600760006101000a81548173ffffffffffffffffffffffffffffffffffffffff021916908373ffffffffffffffffffffffffffffffffffffffff160217905550600060088190555050620002cd565b82805462000135906200024e565b90600052602060002090601f016020900481019282620001595760008555620001a5565b82601f106200017457805160ff1916838001178555620001a5565b82800160010185558215620001a5579182015b82811115620001a457825182559160200191906001019062000187565b5b509050620001b49190620001b8565b5090565b5b80821115620001d3576000816000905550600101620001b9565b5090565b600081519050620001e881620002b3565b92915050565b6000602082840312156200020157600080fd5b60006200021184828501620001d7565b91505092915050565b600062000227826200022e565b9050919050565b600073ffffffffffffffffffffffffffffffffffffffff82169050919050565b600060028204905060018216806200026757607f821691505b602082108114156200027e576200027d62000284565b5b50919050565b7f4e487b7100000000000000000000000000000000000000000000000000000000600052602260045260246000fd5b620002be816200021a565b8114620002ca57600080fd5b50565b6142dd80620002dd6000396000f3fe608060405234801561001057600080fd5b50600436106101375760003560e01c806370a08231116100b8578063adfcdc111161007c578063adfcdc111461034a578063b88d4fde14610366578063c87b56dd14610382578063e985e9c5146103b2578063f422bc68146103e2578063fc0c546a1461041457610137565b806370a08231146102a657806378a89567146102d657806379baa9fd146102f457806395d89b4114610310578063a22cb4651461032e57610137565b8063131d9a27116100ff578063131d9a27146101f257806323b872dd1461022257806328d0f45e1461023e57806342842e0e1461025a5780636352211e1461027657610137565b806301ffc9a71461013c57806302e9d5e41461016c57806306fdde0314610188578063081812fc146101a6578063095ea7b3146101d6575b600080fd5b61015660048036038101906101519190612c88565b610432565b60405161016391906133ca565b60405180910390f35b61018660048036038101906101819190612d98565b610514565b005b6101906109b6565b60405161019d9190613400565b60405180910390f35b6101c060048036038101906101bb9190612d46565b610a48565b6040516101cd91906132e1565b60405180910390f35b6101f060048036038101906101eb9190612c23565b610acd565b005b61020c60048036038101906102079190612d46565b610be5565b60405161021991906133a8565b60405180910390f35b61023c60048036038101906102379190612b1d565b610db4565b005b61025860048036038101906102539190612cda565b610e14565b005b610274600480360381019061026f9190612b1d565b610fe1565b005b610290600480360381019061028b9190612d46565b611001565b60405161029d91906132e1565b60405180910390f35b6102c060048036038101906102bb9190612ab8565b6110b3565b6040516102cd9190613740565b60405180910390f35b6102de61116b565b6040516102eb9190613740565b60405180910390f35b61030e60048036038101906103099190612d98565b611175565b005b6103186113b1565b6040516103259190613400565b60405180910390f35b61034860048036038101906103439190612be7565b611443565b005b610364600480360381019061035f9190612d98565b6115c4565b005b610380600480360381019061037b9190612b6c565b6118c3565b005b61039c60048036038101906103979190612d46565b611925565b6040516103a99190613400565b60405180910390f35b6103cc60048036038101906103c79190612ae1565b611a77565b6040516103d991906133ca565b60405180910390f35b6103fc60048036038101906103f79190612d46565b611b0b565b60405161040b93929190613422565b60405180910390f35b61041c611bbd565b60405161042991906133e5565b60405180910390f35b60007f80ac58cd000000000000000000000000000000000000000000000000000000007bffffffffffffffffffffffffffffffffffffffffffffffffffffffff1916827bffffffffffffffffffffffffffffffffffffffffffffffffffffffff191614806104fd57507f5b5e139f000000000000000000000000000000000000000000000000000000007bffffffffffffffffffffffffffffffffffffffffffffffffffffffff1916827bffffffffffffffffffffffffffffffffffffffffffffffffffffffff1916145b8061050d575061050c82611be3565b5b9050919050565b3373ffffffffffffffffffffffffffffffffffffffff1661053483611001565b73ffffffffffffffffffffffffffffffffffffffff161461058a576040517f08c379a0000000000000000000000000000000000000000000000000000000008152600401610581906134a0565b60405180910390fd5b80600b600084815260200190815260200160002080549050106105e2576040517f08c379a00000000000000000000000000000000000000000000000000000000081526004016105d9906136e0565b60405180910390fd5b6000600b6000848152602001908152602001600020828154811061062f577f4e487b7100000000000000000000000000000000000000000000000000000000600052603260045260246000fd5b90600052602060002090600302016040518060600160405290816000820160009054906101000a900473ffffffffffffffffffffffffffffffffffffffff1673ffffffffffffffffffffffffffffffffffffffff1673ffffffffffffffffffffffffffffffffffffffff168152602001600182015481526020016002820160009054906101000a900460ff1660028111156106f3577f4e487b7100000000000000000000000000000000000000000000000000000000600052602160045260246000fd5b600281111561072b577f4e487b7100000000000000000000000000000000000000000000000000000000600052602160045260246000fd5b815250509050806000015173ffffffffffffffffffffffffffffffffffffffff1661075584611001565b73ffffffffffffffffffffffffffffffffffffffff1614156107ac576040517f08c379a00000000000000000000000000000000000000000000000000000000081526004016107a390613700565b60405180910390fd5b8060200151600760009054906101000a900473ffffffffffffffffffffffffffffffffffffffff1673ffffffffffffffffffffffffffffffffffffffff166370a0823183600001516040518263ffffffff1660e01b815260040161081091906132e1565b60206040518083038186803b15801561082857600080fd5b505afa15801561083c573d6000803e3d6000fd5b505050506040513d601f19601f820116820180604052508101906108609190612d6f565b10156108a1576040517f08c379a000000000000000000000000000000000000000000000000000000000815260040161089890613680565b60405180910390fd5b827fbc59543ce757cc7e4527a51c4c9d6e96e88a233bda92dc16607b63fd9599ade03383600001516040516108d79291906132fc565b60405180910390a2600760009054906101000a900473ffffffffffffffffffffffffffffffffffffffff1673ffffffffffffffffffffffffffffffffffffffff1663beabacc882600001513384602001516040518463ffffffff1660e01b815260040161094693929190613325565b602060405180830381600087803b15801561096057600080fd5b505af1158015610974573d6000803e3d6000fd5b505050506040513d601f19601f820116820180604052508101906109989190612c5f565b506109a833826000015185610fe1565b6109b183611c4d565b505050565b6060600080546109c590613a4f565b80601f01602080910402602001604051908101604052809291908181526020018280546109f190613a4f565b8015610a3e5780601f10610a1357610100808354040283529160200191610a3e565b820191906000526020600020905b815481529060010190602001808311610a2157829003601f168201915b5050505050905090565b6000610a5382611d1a565b610a92576040517f08c379a0000000000000000000000000000000000000000000000000000000008152600401610a8990613620565b60405180910390fd5b6004600083815260200190815260200160002060009054906101000a900473ffffffffffffffffffffffffffffffffffffffff169050919050565b6000610ad882611001565b90508073ffffffffffffffffffffffffffffffffffffffff168373ffffffffffffffffffffffffffffffffffffffff161415610b49576040517f08c379a0000000000000000000000000000000000000000000000000000000008152600401610b40906136a0565b60405180910390fd5b8073ffffffffffffffffffffffffffffffffffffffff16610b68611d86565b73ffffffffffffffffffffffffffffffffffffffff161480610b975750610b9681610b91611d86565b611a77565b5b610bd6576040517f08c379a0000000000000000000000000000000000000000000000000000000008152600401610bcd90613540565b60405180910390fd5b610be08383611d8e565b505050565b60603373ffffffffffffffffffffffffffffffffffffffff16610c0783611001565b73ffffffffffffffffffffffffffffffffffffffff1614610c5d576040517f08c379a0000000000000000000000000000000000000000000000000000000008152600401610c54906134a0565b60405180910390fd5b600b6000838152602001908152602001600020805480602002602001604051908101604052809291908181526020016000905b82821015610da957838290600052602060002090600302016040518060600160405290816000820160009054906101000a900473ffffffffffffffffffffffffffffffffffffffff1673ffffffffffffffffffffffffffffffffffffffff1673ffffffffffffffffffffffffffffffffffffffff168152602001600182015481526020016002820160009054906101000a900460ff166002811115610d5e577f4e487b7100000000000000000000000000000000000000000000000000000000600052602160045260246000fd5b6002811115610d96577f4e487b7100000000000000000000000000000000000000000000000000000000600052602160045260246000fd5b8152505081526020019060010190610c90565b505050509050919050565b610dc5610dbf611d86565b82611e47565b610e04576040517f08c379a0000000000000000000000000000000000000000000000000000000008152600401610dfb906136c0565b60405180910390fd5b610e0f838383611f25565b505050565b600760009054906101000a900473ffffffffffffffffffffffffffffffffffffffff1673ffffffffffffffffffffffffffffffffffffffff16637f5db3e8336040518263ffffffff1660e01b8152600401610e6f91906132e1565b602060405180830381600087803b158015610e8957600080fd5b505af1158015610e9d573d6000803e3d6000fd5b505050506040513d601f19601f82011682018060405250810190610ec19190612c5f565b610f00576040517f08c379a0000000000000000000000000000000000000000000000000000000008152600401610ef790613720565b60405180910390fd5b6040518060600160405280828152602001428152602001632598060042610f279190613895565b8152506009600060085481526020019081526020016000206000820151816000019080519060200190610f5b9291906128b2565b506020820151816001015560408201518160020155905050610f7f33600854612181565b610f8b6008548361219f565b6008547fe035201264bc301f014898837139831792b61fd25d2a44511eaa8bac73575e8a33604051610fbd91906132e1565b60405180910390a260086000815480929190610fd890613ab2565b91905055505050565b610ffc838383604051806020016040528060008152506118c3565b505050565b6000806002600084815260200190815260200160002060009054906101000a900473ffffffffffffffffffffffffffffffffffffffff169050600073ffffffffffffffffffffffffffffffffffffffff168173ffffffffffffffffffffffffffffffffffffffff1614156110aa576040517f08c379a00000000000000000000000000000000000000000000000000000000081526004016110a190613580565b60405180910390fd5b80915050919050565b60008073ffffffffffffffffffffffffffffffffffffffff168273ffffffffffffffffffffffffffffffffffffffff161415611124576040517f08c379a000000000000000000000000000000000000000000000000000000000815260040161111b90613560565b60405180910390fd5b600360008373ffffffffffffffffffffffffffffffffffffffff1673ffffffffffffffffffffffffffffffffffffffff168152602001908152602001600020549050919050565b6000600854905090565b3373ffffffffffffffffffffffffffffffffffffffff1661119583611001565b73ffffffffffffffffffffffffffffffffffffffff16146111eb576040517f08c379a00000000000000000000000000000000000000000000000000000000081526004016111e2906134a0565b60405180910390fd5b80600b60008481526020019081526020016000208054905010611243576040517f08c379a000000000000000000000000000000000000000000000000000000000815260040161123a906136e0565b60405180910390fd5b6000600b60008481526020019081526020016000208281548110611290577f4e487b7100000000000000000000000000000000000000000000000000000000600052603260045260246000fd5b906000526020600020906003020160020160006101000a81548160ff021916908360028111156112e9577f4e487b7100000000000000000000000000000000000000000000000000000000600052602160045260246000fd5b02179055507fbc154f7987a14b2fa030a8c69aea4ee9febfd621cc40bb12817668a9c3d6b96f8261131984611001565b600b60008681526020019081526020016000208481548110611364577f4e487b7100000000000000000000000000000000000000000000000000000000600052603260045260246000fd5b906000526020600020906003020160000160009054906101000a900473ffffffffffffffffffffffffffffffffffffffff166040516113a59392919061375b565b60405180910390a15050565b6060600180546113c090613a4f565b80601f01602080910402602001604051908101604052809291908181526020018280546113ec90613a4f565b80156114395780601f1061140e57610100808354040283529160200191611439565b820191906000526020600020905b81548152906001019060200180831161141c57829003601f168201915b5050505050905090565b61144b611d86565b73ffffffffffffffffffffffffffffffffffffffff168273ffffffffffffffffffffffffffffffffffffffff1614156114b9576040517f08c379a00000000000000000000000000000000000000000000000000000000081526004016114b090613500565b60405180910390fd5b80600560006114c6611d86565b73ffffffffffffffffffffffffffffffffffffffff1673ffffffffffffffffffffffffffffffffffffffff16815260200190815260200160002060008473ffffffffffffffffffffffffffffffffffffffff1673ffffffffffffffffffffffffffffffffffffffff16815260200190815260200160002060006101000a81548160ff0219169083151502179055508173ffffffffffffffffffffffffffffffffffffffff16611573611d86565b73ffffffffffffffffffffffffffffffffffffffff167f17307eab39ab6107e8899845ad3d59bd9653f200f220920489ca2b5937696c31836040516115b891906133ca565b60405180910390a35050565b6115cd82611001565b73ffffffffffffffffffffffffffffffffffffffff163373ffffffffffffffffffffffffffffffffffffffff16141561163b576040517f08c379a0000000000000000000000000000000000000000000000000000000008152600401611632906134c0565b60405180910390fd5b80600760009054906101000a900473ffffffffffffffffffffffffffffffffffffffff1673ffffffffffffffffffffffffffffffffffffffff166370a08231336040518263ffffffff1660e01b815260040161169791906132e1565b60206040518083038186803b1580156116af57600080fd5b505afa1580156116c3573d6000803e3d6000fd5b505050506040513d601f19601f820116820180604052508101906116e79190612d6f565b1015611728576040517f08c379a000000000000000000000000000000000000000000000000000000000815260040161171f906135c0565b60405180910390fd5b600060405180606001604052803373ffffffffffffffffffffffffffffffffffffffff168152602001838152602001600280811115611790577f4e487b7100000000000000000000000000000000000000000000000000000000600052602160045260246000fd5b8152509050600b600084815260200190815260200160002081908060018154018082558091505060019003906000526020600020906003020160009091909190915060008201518160000160006101000a81548173ffffffffffffffffffffffffffffffffffffffff021916908373ffffffffffffffffffffffffffffffffffffffff1602179055506020820151816001015560408201518160020160006101000a81548160ff02191690836002811115611874577f4e487b7100000000000000000000000000000000000000000000000000000000600052602160045260246000fd5b021790555050507f4d0cbbf5e8ec1f02fd982d9a636d913a35d38e85d10199d578e4c105aebd282b836118a685611001565b336040516118b69392919061375b565b60405180910390a1505050565b6118d46118ce611d86565b83611e47565b611913576040517f08c379a000000000000000000000000000000000000000000000000000000000815260040161190a906136c0565b60405180910390fd5b61191f84848484612213565b50505050565b606061193082611d1a565b61196f576040517f08c379a000000000000000000000000000000000000000000000000000000000815260040161196690613600565b60405180910390fd5b600060066000848152602001908152602001600020805461198f90613a4f565b80601f01602080910402602001604051908101604052809291908181526020018280546119bb90613a4f565b8015611a085780601f106119dd57610100808354040283529160200191611a08565b820191906000526020600020905b8154815290600101906020018083116119eb57829003601f168201915b505050505090506000611a1961226f565b9050600081511415611a2f578192505050611a72565b600082511115611a64578082604051602001611a4c9291906132bd565b60405160208183030381529060405292505050611a72565b611a6d84612286565b925050505b919050565b6000600560008473ffffffffffffffffffffffffffffffffffffffff1673ffffffffffffffffffffffffffffffffffffffff16815260200190815260200160002060008373ffffffffffffffffffffffffffffffffffffffff1673ffffffffffffffffffffffffffffffffffffffff16815260200190815260200160002060009054906101000a900460ff16905092915050565b6009602052806000526040600020600091509050806000018054611b2e90613a4f565b80601f0160208091040260200160405190810160405280929190818152602001828054611b5a90613a4f565b8015611ba75780601f10611b7c57610100808354040283529160200191611ba7565b820191906000526020600020905b815481529060010190602001808311611b8a57829003601f168201915b5050505050908060010154908060020154905083565b600760009054906101000a900473ffffffffffffffffffffffffffffffffffffffff1681565b60007f01ffc9a7000000000000000000000000000000000000000000000000000000007bffffffffffffffffffffffffffffffffffffffffffffffffffffffff1916827bffffffffffffffffffffffffffffffffffffffffffffffffffffffff1916149050919050565b5b6000600b6000838152602001908152602001600020805490501115611d1757600b6000828152602001908152602001600020805480611cb6577f4e487b7100000000000000000000000000000000000000000000000000000000600052603160045260246000fd5b6001900381819060005260206000209060030201600080820160006101000a81549073ffffffffffffffffffffffffffffffffffffffff021916905560018201600090556002820160006101000a81549060ff021916905550509055611c4e565b50565b60008073ffffffffffffffffffffffffffffffffffffffff166002600084815260200190815260200160002060009054906101000a900473ffffffffffffffffffffffffffffffffffffffff1673ffffffffffffffffffffffffffffffffffffffff1614159050919050565b600033905090565b816004600083815260200190815260200160002060006101000a81548173ffffffffffffffffffffffffffffffffffffffff021916908373ffffffffffffffffffffffffffffffffffffffff160217905550808273ffffffffffffffffffffffffffffffffffffffff16611e0183611001565b73ffffffffffffffffffffffffffffffffffffffff167f8c5be1e5ebec7d5bd14f71427d1e84f3dd0314c0f7b2291e5b200ac8c7c3b92560405160405180910390a45050565b6000611e5282611d1a565b611e91576040517f08c379a0000000000000000000000000000000000000000000000000000000008152600401611e8890613520565b60405180910390fd5b6000611e9c83611001565b90508073ffffffffffffffffffffffffffffffffffffffff168473ffffffffffffffffffffffffffffffffffffffff161480611f0b57508373ffffffffffffffffffffffffffffffffffffffff16611ef384610a48565b73ffffffffffffffffffffffffffffffffffffffff16145b80611f1c5750611f1b8185611a77565b5b91505092915050565b8273ffffffffffffffffffffffffffffffffffffffff16611f4582611001565b73ffffffffffffffffffffffffffffffffffffffff1614611f9b576040517f08c379a0000000000000000000000000000000000000000000000000000000008152600401611f9290613640565b60405180910390fd5b600073ffffffffffffffffffffffffffffffffffffffff168273ffffffffffffffffffffffffffffffffffffffff16141561200b576040517f08c379a0000000000000000000000000000000000000000000000000000000008152600401612002906134e0565b60405180910390fd5b61201683838361232d565b612021600082611d8e565b6001600360008573ffffffffffffffffffffffffffffffffffffffff1673ffffffffffffffffffffffffffffffffffffffff1681526020019081526020016000206000828254612071919061391c565b925050819055506001600360008473ffffffffffffffffffffffffffffffffffffffff1673ffffffffffffffffffffffffffffffffffffffff16815260200190815260200160002060008282546120c89190613895565b92505081905550816002600083815260200190815260200160002060006101000a81548173ffffffffffffffffffffffffffffffffffffffff021916908373ffffffffffffffffffffffffffffffffffffffff160217905550808273ffffffffffffffffffffffffffffffffffffffff168473ffffffffffffffffffffffffffffffffffffffff167fddf252ad1be2c89b69c2b068fc378daa952ba7f163c4a11628f55a4df523b3ef60405160405180910390a4505050565b61219b828260405180602001604052806000815250612332565b5050565b6121a882611d1a565b6121e7576040517f08c379a00000000000000000000000000000000000000000000000000000000081526004016121de906135a0565b60405180910390fd5b8060066000848152602001908152602001600020908051906020019061220e9291906128b2565b505050565b61221e848484611f25565b61222a8484848461238d565b612269576040517f08c379a000000000000000000000000000000000000000000000000000000000815260040161226090613460565b60405180910390fd5b50505050565b606060405180602001604052806000815250905090565b606061229182611d1a565b6122d0576040517f08c379a00000000000000000000000000000000000000000000000000000000081526004016122c790613660565b60405180910390fd5b60006122da61226f565b905060008151116122fa5760405180602001604052806000815250612325565b8061230484612524565b6040516020016123159291906132bd565b6040516020818303038152906040525b915050919050565b505050565b61233c83836126d1565b612349600084848461238d565b612388576040517f08c379a000000000000000000000000000000000000000000000000000000000815260040161237f90613460565b60405180910390fd5b505050565b60006123ae8473ffffffffffffffffffffffffffffffffffffffff1661289f565b15612517578373ffffffffffffffffffffffffffffffffffffffff1663150b7a026123d7611d86565b8786866040518563ffffffff1660e01b81526004016123f9949392919061335c565b602060405180830381600087803b15801561241357600080fd5b505af192505050801561244457506040513d601f19601f820116820180604052508101906124419190612cb1565b60015b6124c7573d8060008114612474576040519150601f19603f3d011682016040523d82523d6000602084013e612479565b606091505b506000815114156124bf576040517f08c379a00000000000000000000000000000000000000000000000000000000081526004016124b690613460565b60405180910390fd5b805181602001fd5b63150b7a0260e01b7bffffffffffffffffffffffffffffffffffffffffffffffffffffffff1916817bffffffffffffffffffffffffffffffffffffffffffffffffffffffff19161491505061251c565b600190505b949350505050565b6060600082141561256c576040518060400160405280600181526020017f300000000000000000000000000000000000000000000000000000000000000081525090506126cc565b600082905060005b6000821461259e57808061258790613ab2565b915050600a8261259791906138eb565b9150612574565b60008167ffffffffffffffff8111156125e0577f4e487b7100000000000000000000000000000000000000000000000000000000600052604160045260246000fd5b6040519080825280601f01601f1916602001820160405280156126125781602001600182028036833780820191505090505b5090505b600085146126c55760018261262b919061391c565b9150600a8561263a9190613afb565b60306126469190613895565b60f81b818381518110612682577f4e487b7100000000000000000000000000000000000000000000000000000000600052603260045260246000fd5b60200101907effffffffffffffffffffffffffffffffffffffffffffffffffffffffffffff1916908160001a905350600a856126be91906138eb565b9450612616565b8093505050505b919050565b600073ffffffffffffffffffffffffffffffffffffffff168273ffffffffffffffffffffffffffffffffffffffff161415612741576040517f08c379a0000000000000000000000000000000000000000000000000000000008152600401612738906135e0565b60405180910390fd5b61274a81611d1a565b1561278a576040517f08c379a000000000000000000000000000000000000000000000000000000000815260040161278190613480565b60405180910390fd5b6127966000838361232d565b6001600360008473ffffffffffffffffffffffffffffffffffffffff1673ffffffffffffffffffffffffffffffffffffffff16815260200190815260200160002060008282546127e69190613895565b92505081905550816002600083815260200190815260200160002060006101000a81548173ffffffffffffffffffffffffffffffffffffffff021916908373ffffffffffffffffffffffffffffffffffffffff160217905550808273ffffffffffffffffffffffffffffffffffffffff16600073ffffffffffffffffffffffffffffffffffffffff167fddf252ad1be2c89b69c2b068fc378daa952ba7f163c4a11628f55a4df523b3ef60405160405180910390a45050565b600080823b905060008111915050919050565b8280546128be90613a4f565b90600052602060002090601f0160209004810192826128e05760008555612927565b82601f106128f957805160ff1916838001178555612927565b82800160010185558215612927579182015b8281111561292657825182559160200191906001019061290b565b5b5090506129349190612938565b5090565b5b80821115612951576000816000905550600101612939565b5090565b6000612968612963846137b7565b613792565b90508281526020810184848401111561298057600080fd5b61298b848285613a0d565b509392505050565b60006129a66129a1846137e8565b613792565b9050828152602081018484840111156129be57600080fd5b6129c9848285613a0d565b509392505050565b6000813590506129e08161424b565b92915050565b6000813590506129f581614262565b92915050565b600081519050612a0a81614262565b92915050565b600081359050612a1f81614279565b92915050565b600081519050612a3481614279565b92915050565b600082601f830112612a4b57600080fd5b8135612a5b848260208601612955565b91505092915050565b600082601f830112612a7557600080fd5b8135612a85848260208601612993565b91505092915050565b600081359050612a9d81614290565b92915050565b600081519050612ab281614290565b92915050565b600060208284031215612aca57600080fd5b6000612ad8848285016129d1565b91505092915050565b60008060408385031215612af457600080fd5b6000612b02858286016129d1565b9250506020612b13858286016129d1565b9150509250929050565b600080600060608486031215612b3257600080fd5b6000612b40868287016129d1565b9350506020612b51868287016129d1565b9250506040612b6286828701612a8e565b9150509250925092565b60008060008060808587031215612b8257600080fd5b6000612b90878288016129d1565b9450506020612ba1878288016129d1565b9350506040612bb287828801612a8e565b925050606085013567ffffffffffffffff811115612bcf57600080fd5b612bdb87828801612a3a565b91505092959194509250565b60008060408385031215612bfa57600080fd5b6000612c08858286016129d1565b9250506020612c19858286016129e6565b9150509250929050565b60008060408385031215612c3657600080fd5b6000612c44858286016129d1565b9250506020612c5585828601612a8e565b9150509250929050565b600060208284031215612c7157600080fd5b6000612c7f848285016129fb565b91505092915050565b600060208284031215612c9a57600080fd5b6000612ca884828501612a10565b91505092915050565b600060208284031215612cc357600080fd5b6000612cd184828501612a25565b91505092915050565b60008060408385031215612ced57600080fd5b600083013567ffffffffffffffff811115612d0757600080fd5b612d1385828601612a64565b925050602083013567ffffffffffffffff811115612d3057600080fd5b612d3c85828601612a64565b9150509250929050565b600060208284031215612d5857600080fd5b6000612d6684828501612a8e565b91505092915050565b600060208284031215612d8157600080fd5b6000612d8f84828501612aa3565b91505092915050565b60008060408385031215612dab57600080fd5b6000612db985828601612a8e565b9250506020612dca85828601612a8e565b9150509250929050565b6000612de0838361325d565b60608301905092915050565b612df581613950565b82525050565b612e0481613950565b82525050565b6000612e1582613829565b612e1f8185613857565b9350612e2a83613819565b8060005b83811015612e5b578151612e428882612dd4565b9750612e4d8361384a565b925050600181019050612e2e565b5085935050505092915050565b612e7181613962565b82525050565b6000612e8282613834565b612e8c8185613868565b9350612e9c818560208601613a1c565b612ea581613c17565b840191505092915050565b612eb9816139d7565b82525050565b612ec8816139fb565b82525050565b6000612ed98261383f565b612ee38185613879565b9350612ef3818560208601613a1c565b612efc81613c17565b840191505092915050565b6000612f128261383f565b612f1c818561388a565b9350612f2c818560208601613a1c565b80840191505092915050565b6000612f45603283613879565b9150612f5082613c28565b604082019050919050565b6000612f68601c83613879565b9150612f7382613c77565b602082019050919050565b6000612f8b602383613879565b9150612f9682613ca0565b604082019050919050565b6000612fae602783613879565b9150612fb982613cef565b604082019050919050565b6000612fd1602483613879565b9150612fdc82613d3e565b604082019050919050565b6000612ff4601983613879565b9150612fff82613d8d565b602082019050919050565b6000613017602c83613879565b915061302282613db6565b604082019050919050565b600061303a603883613879565b915061304582613e05565b604082019050919050565b600061305d602a83613879565b915061306882613e54565b604082019050919050565b6000613080602983613879565b915061308b82613ea3565b604082019050919050565b60006130a3602e83613879565b91506130ae82613ef2565b604082019050919050565b60006130c6601b83613879565b91506130d182613f41565b602082019050919050565b60006130e9602083613879565b91506130f482613f6a565b602082019050919050565b600061310c603183613879565b915061311782613f93565b604082019050919050565b600061312f602c83613879565b915061313a82613fe2565b604082019050919050565b6000613152602983613879565b915061315d82614031565b604082019050919050565b6000613175602f83613879565b915061318082614080565b604082019050919050565b6000613198602483613879565b91506131a3826140cf565b604082019050919050565b60006131bb602183613879565b91506131c68261411e565b604082019050919050565b60006131de603183613879565b91506131e98261416d565b604082019050919050565b6000613201601283613879565b915061320c826141bc565b602082019050919050565b6000613224601c83613879565b915061322f826141e5565b602082019050919050565b6000613247601983613879565b91506132528261420e565b602082019050919050565b6060820160008201516132736000850182612dec565b506020820151613286602085018261329f565b5060408201516132996040850182612ebf565b50505050565b6132a8816139cd565b82525050565b6132b7816139cd565b82525050565b60006132c98285612f07565b91506132d58284612f07565b91508190509392505050565b60006020820190506132f66000830184612dfb565b92915050565b60006040820190506133116000830185612dfb565b61331e6020830184612dfb565b9392505050565b600060608201905061333a6000830186612dfb565b6133476020830185612dfb565b61335460408301846132ae565b949350505050565b60006080820190506133716000830187612dfb565b61337e6020830186612dfb565b61338b60408301856132ae565b818103606083015261339d8184612e77565b905095945050505050565b600060208201905081810360008301526133c28184612e0a565b905092915050565b60006020820190506133df6000830184612e68565b92915050565b60006020820190506133fa6000830184612eb0565b92915050565b6000602082019050818103600083015261341a8184612ece565b905092915050565b6000606082019050818103600083015261343c8186612ece565b905061344b60208301856132ae565b61345860408301846132ae565b949350505050565b6000602082019050818103600083015261347981612f38565b9050919050565b6000602082019050818103600083015261349981612f5b565b9050919050565b600060208201905081810360008301526134b981612f7e565b9050919050565b600060208201905081810360008301526134d981612fa1565b9050919050565b600060208201905081810360008301526134f981612fc4565b9050919050565b6000602082019050818103600083015261351981612fe7565b9050919050565b600060208201905081810360008301526135398161300a565b9050919050565b600060208201905081810360008301526135598161302d565b9050919050565b6000602082019050818103600083015261357981613050565b9050919050565b6000602082019050818103600083015261359981613073565b9050919050565b600060208201905081810360008301526135b981613096565b9050919050565b600060208201905081810360008301526135d9816130b9565b9050919050565b600060208201905081810360008301526135f9816130dc565b9050919050565b60006020820190508181036000830152613619816130ff565b9050919050565b6000602082019050818103600083015261363981613122565b9050919050565b6000602082019050818103600083015261365981613145565b9050919050565b6000602082019050818103600083015261367981613168565b9050919050565b600060208201905081810360008301526136998161318b565b9050919050565b600060208201905081810360008301526136b9816131ae565b9050919050565b600060208201905081810360008301526136d9816131d1565b9050919050565b600060208201905081810360008301526136f9816131f4565b9050919050565b6000602082019050818103600083015261371981613217565b9050919050565b600060208201905081810360008301526137398161323a565b9050919050565b600060208201905061375560008301846132ae565b92915050565b600060608201905061377060008301866132ae565b61377d6020830185612dfb565b61378a6040830184612dfb565b949350505050565b600061379c6137ad565b90506137a88282613a81565b919050565b6000604051905090565b600067ffffffffffffffff8211156137d2576137d1613be8565b5b6137db82613c17565b9050602081019050919050565b600067ffffffffffffffff82111561380357613802613be8565b5b61380c82613c17565b9050602081019050919050565b6000819050602082019050919050565b600081519050919050565b600081519050919050565b600081519050919050565b6000602082019050919050565b600082825260208201905092915050565b600082825260208201905092915050565b600082825260208201905092915050565b600081905092915050565b60006138a0826139cd565b91506138ab836139cd565b9250827fffffffffffffffffffffffffffffffffffffffffffffffffffffffffffffffff038211156138e0576138df613b2c565b5b828201905092915050565b60006138f6826139cd565b9150613901836139cd565b92508261391157613910613b5b565b5b828204905092915050565b6000613927826139cd565b9150613932836139cd565b92508282101561394557613944613b2c565b5b828203905092915050565b600061395b826139ad565b9050919050565b60008115159050919050565b60007fffffffff0000000000000000000000000000000000000000000000000000000082169050919050565b60008190506139a882614237565b919050565b600073ffffffffffffffffffffffffffffffffffffffff82169050919050565b6000819050919050565b60006139e2826139e9565b9050919050565b60006139f4826139ad565b9050919050565b6000613a068261399a565b9050919050565b82818337600083830152505050565b60005b83811015613a3a578082015181840152602081019050613a1f565b83811115613a49576000848401525b50505050565b60006002820490506001821680613a6757607f821691505b60208210811415613a7b57613a7a613bb9565b5b50919050565b613a8a82613c17565b810181811067ffffffffffffffff82111715613aa957613aa8613be8565b5b80604052505050565b6000613abd826139cd565b91507fffffffffffffffffffffffffffffffffffffffffffffffffffffffffffffffff821415613af057613aef613b2c565b5b600182019050919050565b6000613b06826139cd565b9150613b11836139cd565b925082613b2157613b20613b5b565b5b828206905092915050565b7f4e487b7100000000000000000000000000000000000000000000000000000000600052601160045260246000fd5b7f4e487b7100000000000000000000000000000000000000000000000000000000600052601260045260246000fd5b7f4e487b7100000000000000000000000000000000000000000000000000000000600052602160045260246000fd5b7f4e487b7100000000000000000000000000000000000000000000000000000000600052602260045260246000fd5b7f4e487b7100000000000000000000000000000000000000000000000000000000600052604160045260246000fd5b6000601f19601f8301169050919050565b7f4552433732313a207472616e7366657220746f206e6f6e20455243373231526560008201527f63656976657220696d706c656d656e7465720000000000000000000000000000602082015250565b7f4552433732313a20746f6b656e20616c7265616479206d696e74656400000000600082015250565b7f596f7520617265206e6f7420746865206f776e6572206f66207468652070617460008201527f656e740000000000000000000000000000000000000000000000000000000000602082015250565b7f596f752061726520616c726561647920746865206f776e6572206f662074686560008201527f20706174656e7400000000000000000000000000000000000000000000000000602082015250565b7f4552433732313a207472616e7366657220746f20746865207a65726f2061646460008201527f7265737300000000000000000000000000000000000000000000000000000000602082015250565b7f4552433732313a20617070726f766520746f2063616c6c657200000000000000600082015250565b7f4552433732313a206f70657261746f7220717565727920666f72206e6f6e657860008201527f697374656e7420746f6b656e0000000000000000000000000000000000000000602082015250565b7f4552433732313a20617070726f76652063616c6c6572206973206e6f74206f7760008201527f6e6572206e6f7220617070726f76656420666f7220616c6c0000000000000000602082015250565b7f4552433732313a2062616c616e636520717565727920666f7220746865207a6560008201527f726f206164647265737300000000000000000000000000000000000000000000602082015250565b7f4552433732313a206f776e657220717565727920666f72206e6f6e657869737460008201527f656e7420746f6b656e0000000000000000000000000000000000000000000000602082015250565b7f45524337323155524953746f726167653a2055524920736574206f66206e6f6e60008201527f6578697374656e7420746f6b656e000000000000000000000000000000000000602082015250565b7f596f7520646f206e6f74206861766520656e6f7567682050544e540000000000600082015250565b7f4552433732313a206d696e7420746f20746865207a65726f2061646472657373600082015250565b7f45524337323155524953746f726167653a2055524920717565727920666f722060008201527f6e6f6e6578697374656e7420746f6b656e000000000000000000000000000000602082015250565b7f4552433732313a20617070726f76656420717565727920666f72206e6f6e657860008201527f697374656e7420746f6b656e0000000000000000000000000000000000000000602082015250565b7f4552433732313a207472616e73666572206f6620746f6b656e2074686174206960008201527f73206e6f74206f776e0000000000000000000000000000000000000000000000602082015250565b7f4552433732314d657461646174613a2055524920717565727920666f72206e6f60008201527f6e6578697374656e7420746f6b656e0000000000000000000000000000000000602082015250565b7f5468652062696464657220646f6573206e6f74206861766520656e6f7567682060008201527f50544e5400000000000000000000000000000000000000000000000000000000602082015250565b7f4552433732313a20617070726f76616c20746f2063757272656e74206f776e6560008201527f7200000000000000000000000000000000000000000000000000000000000000602082015250565b7f4552433732313a207472616e736665722063616c6c6572206973206e6f74206f60008201527f776e6572206e6f7220617070726f766564000000000000000000000000000000602082015250565b7f496e646578206f7574206f662072616e67650000000000000000000000000000600082015250565b7f596f752063616e206e6f742061636365707420796f7572206269647300000000600082015250565b7f46696c696e6720666565207061796d656e74206661696c656400000000000000600082015250565b6003811061424857614247613b8a565b5b50565b61425481613950565b811461425f57600080fd5b50565b61426b81613962565b811461427657600080fd5b50565b6142828161396e565b811461428d57600080fd5b50565b614299816139cd565b81146142a457600080fd5b5056fea2646970667358221220b84bc27eee261ff17d20c8d14e2dab7632d8066e50d4f3ace996de21d8da489f64736f6c63430008020033",
  "immutableReferences": {},
  "source": "// SPDX-License-Identifier: MIT\r\npragma solidity >=0.4.22 <0.9.0;\r\n\r\nimport \"@openzeppelin/contracts/token/ERC721/extensions/ERC721URIStorage.sol\";\r\n\r\n\r\ninterface IPatentToken{\r\n    function transfer(address from, address to, uint amount) external returns (bool);\r\n    function balanceOf(address account) external view returns(uint);\r\n    function payFilingFee(address sender) external returns(bool);\r\n}\r\n\r\n\r\n/// @title PatentNFT contract\r\n/// @author Carolina Proietti, Edoardo Giuggioloni, Paolo Marchignoli, Ruben Seror \r\n/// @notice You can use this contract to file patent, buy and sell associated NFTs\r\ncontract PatentNFT is ERC721URIStorage{\r\n\r\n    // Struttura dei brevetti\r\n    struct Patent {\r\n        string name; //brevetto in vendita (s/n)\r\n        uint timestamp;//data deposito brevetto\r\n        uint deadline;//scadenza brevetto\r\n    }\r\n\r\n    enum State {Refused, Accepted, Pending}\r\n\r\n    struct Bid{\r\n        address bidder;\r\n        uint amount;\r\n        State state;\r\n    }\r\n\r\n    IPatentToken public token;\r\n    uint private patentCounter;\r\n    mapping(uint => Patent) public patents;\r\n    uint filingPrice;\r\n    mapping(uint => Bid[]) bids;\r\n\r\n    //evento deposito\r\n    event PatentFiled(uint indexed patentId, address owner);\r\n    //evento cessione\r\n    event PatentAssignment(uint indexed patentId, address from, address to);\r\n    //evento offerta rifiutata\r\n    event BidRefused(uint tokenId, address owner, address bidder);\r\n    //evento offerta\r\n    event MakeBid(uint tokenId, address owner, address bidder);\r\n\r\n    constructor(address tokenAddress) ERC721(\"PatentNFT\",\"PTNFT\"){\r\n        token = IPatentToken(tokenAddress);\r\n        patentCounter = 0;\r\n    }\r\n\r\n    ///@notice method that allow user to file their patents\r\n    ///@param _uri URI of the filed Patent in IPFS\r\n    function filePatent(string memory _uri, string memory _name) public{\r\n        require(token.payFilingFee(msg.sender),'Filing fee payment failed');\r\n        patents[patentCounter] = Patent({ \r\n            name: _name, \r\n            timestamp: block.timestamp,\r\n            deadline: block.timestamp + (20 * 365 days)});\r\n        _safeMint(msg.sender, patentCounter);\r\n        _setTokenURI(patentCounter, _uri);\r\n        emit PatentFiled(patentCounter, msg.sender);\r\n        patentCounter++;\r\n    }\r\n\r\n\r\n    ///@notice return number of filed patents\r\n    function getTokenCount() public view returns(uint){\r\n        return patentCounter;\r\n    }\r\n\r\n    function getBids(uint tokenId) public view returns(Bid[] memory){\r\n        require(ownerOf(tokenId) == msg.sender,'You are not the owner of the patent');\r\n        return bids[tokenId];\r\n    }\r\n\r\n    function rejectBid(uint tokenId, uint indexBid) public{\r\n        require(ownerOf(tokenId) == msg.sender,'You are not the owner of the patent');\r\n        require(bids[tokenId].length < indexBid, 'Index out of range');\r\n        bids[tokenId][indexBid].state = State.Refused;\r\n        emit BidRefused(tokenId, ownerOf(tokenId), bids[tokenId][indexBid].bidder);\r\n    }\r\n\r\n    function acceptBid(uint tokenId, uint indexBid) public{\r\n        require(ownerOf(tokenId) == msg.sender,'You are not the owner of the patent');\r\n        require(bids[tokenId].length < indexBid, 'Index out of range');\r\n        Bid memory bid = bids[tokenId][indexBid];\r\n        require(ownerOf(tokenId) != bid.bidder, 'You can not accept your bids');\r\n        require(token.balanceOf(bid.bidder) >= bid.amount, 'The bidder does not have enough PTNT');\r\n        emit PatentAssignment(tokenId, msg.sender, bid.bidder);\r\n        token.transfer(bid.bidder, msg.sender, bid.amount);\r\n        safeTransferFrom(msg.sender, bid.bidder, tokenId);\r\n        clearBids(tokenId);\r\n    }\r\n\r\n    function makeBid(uint patentId, uint amount) public{\r\n        require(msg.sender != ownerOf(patentId),'You are already the owner of the patent');\r\n        require(token.balanceOf(msg.sender) >= amount, 'You do not have enough PTNT');\r\n        Bid memory bid = Bid({\r\n            bidder: msg.sender,\r\n            amount: amount,\r\n            state: State.Pending\r\n        });\r\n        bids[patentId].push(bid);\r\n        emit MakeBid(patentId, ownerOf(patentId), msg.sender);\r\n    }\r\n\r\n    function clearBids(uint patentId) internal {\r\n        while(bids[patentId].length > 0){\r\n            bids[patentId].pop();\r\n        }\r\n    }\r\n\r\n\r\n}",
  "sourcePath": "C:\\Users\\Paolo\\OneDrive\\Documenti\\testBlockchain\\PatentLink\\patent\\contracts\\PatentNFT.sol",
  "compiler": {
    "name": "solc",
    "version": "0.8.2+commit.661d1103.Emscripten.clang"
  },
  "schemaVersion": "3.4.16",
  "updatedAt": "2024-01-18T16:46:59.891Z",
  "networkType": "ethereum",
  "devdoc": {
    "author": "Carolina Proietti, Edoardo Giuggioloni, Paolo Marchignoli, Ruben Seror ",
    "kind": "dev",
    "methods": {
      "approve(address,uint256)": {
        "details": "See {IERC721-approve}."
      },
      "balanceOf(address)": {
        "details": "See {IERC721-balanceOf}."
      },
      "filePatent(string,string)": {
        "params": {
          "_uri": "URI of the filed Patent in IPFS"
        }
      },
      "getApproved(uint256)": {
        "details": "See {IERC721-getApproved}."
      },
      "isApprovedForAll(address,address)": {
        "details": "See {IERC721-isApprovedForAll}."
      },
      "name()": {
        "details": "See {IERC721Metadata-name}."
      },
      "ownerOf(uint256)": {
        "details": "See {IERC721-ownerOf}."
      },
      "safeTransferFrom(address,address,uint256)": {
        "details": "See {IERC721-safeTransferFrom}."
      },
      "safeTransferFrom(address,address,uint256,bytes)": {
        "details": "See {IERC721-safeTransferFrom}."
      },
      "setApprovalForAll(address,bool)": {
        "details": "See {IERC721-setApprovalForAll}."
      },
      "supportsInterface(bytes4)": {
        "details": "See {IERC165-supportsInterface}."
      },
      "symbol()": {
        "details": "See {IERC721Metadata-symbol}."
      },
      "tokenURI(uint256)": {
        "details": "See {IERC721Metadata-tokenURI}."
      },
      "transferFrom(address,address,uint256)": {
        "details": "See {IERC721-transferFrom}."
      }
    },
    "title": "PatentNFT contract",
    "version": 1
  },
  "userdoc": {
    "kind": "user",
    "methods": {
      "filePatent(string,string)": {
        "notice": "method that allow user to file their patents"
      },
      "getTokenCount()": {
        "notice": "return number of filed patents"
      }
    },
    "notice": "You can use this contract to file patent, buy and sell associated NFTs",
    "version": 1
  }
}