{
  "contractName": "PatentNFT",
  "abi": [
    {
      "inputs": [
        {
          "internalType": "address",
          "name": "tokenAddress",
          "type": "address"
        }
      ],
      "stateMutability": "nonpayable",
      "type": "constructor"
    },
    {
      "anonymous": false,
      "inputs": [
        {
          "indexed": true,
          "internalType": "address",
          "name": "owner",
          "type": "address"
        },
        {
          "indexed": true,
          "internalType": "address",
          "name": "approved",
          "type": "address"
        },
        {
          "indexed": true,
          "internalType": "uint256",
          "name": "tokenId",
          "type": "uint256"
        }
      ],
      "name": "Approval",
      "type": "event"
    },
    {
      "anonymous": false,
      "inputs": [
        {
          "indexed": true,
          "internalType": "address",
          "name": "owner",
          "type": "address"
        },
        {
          "indexed": true,
          "internalType": "address",
          "name": "operator",
          "type": "address"
        },
        {
          "indexed": false,
          "internalType": "bool",
          "name": "approved",
          "type": "bool"
        }
      ],
      "name": "ApprovalForAll",
      "type": "event"
    },
    {
      "anonymous": false,
      "inputs": [
        {
          "indexed": false,
          "internalType": "uint256",
          "name": "tokenId",
          "type": "uint256"
        },
        {
          "indexed": false,
          "internalType": "address",
          "name": "owner",
          "type": "address"
        },
        {
          "indexed": false,
          "internalType": "address",
          "name": "bidder",
          "type": "address"
        }
      ],
      "name": "BidRefused",
      "type": "event"
    },
    {
      "anonymous": false,
      "inputs": [
        {
          "indexed": false,
          "internalType": "uint256",
          "name": "tokenId",
          "type": "uint256"
        },
        {
          "indexed": false,
          "internalType": "address",
          "name": "owner",
          "type": "address"
        },
        {
          "indexed": false,
          "internalType": "address",
          "name": "bidder",
          "type": "address"
        }
      ],
      "name": "MakeBid",
      "type": "event"
    },
    {
      "anonymous": false,
      "inputs": [
        {
          "indexed": true,
          "internalType": "uint256",
          "name": "patentId",
          "type": "uint256"
        },
        {
          "indexed": false,
          "internalType": "address",
          "name": "from",
          "type": "address"
        },
        {
          "indexed": false,
          "internalType": "address",
          "name": "to",
          "type": "address"
        }
      ],
      "name": "PatentAssignment",
      "type": "event"
    },
    {
      "anonymous": false,
      "inputs": [
        {
          "indexed": true,
          "internalType": "uint256",
          "name": "patentId",
          "type": "uint256"
        },
        {
          "indexed": false,
          "internalType": "address",
          "name": "owner",
          "type": "address"
        }
      ],
      "name": "PatentFiled",
      "type": "event"
    },
    {
      "anonymous": false,
      "inputs": [
        {
          "indexed": true,
          "internalType": "address",
          "name": "from",
          "type": "address"
        },
        {
          "indexed": true,
          "internalType": "address",
          "name": "to",
          "type": "address"
        },
        {
          "indexed": true,
          "internalType": "uint256",
          "name": "tokenId",
          "type": "uint256"
        }
      ],
      "name": "Transfer",
      "type": "event"
    },
    {
      "inputs": [
        {
          "internalType": "address",
          "name": "to",
          "type": "address"
        },
        {
          "internalType": "uint256",
          "name": "tokenId",
          "type": "uint256"
        }
      ],
      "name": "approve",
      "outputs": [],
      "stateMutability": "nonpayable",
      "type": "function"
    },
    {
      "inputs": [
        {
          "internalType": "address",
          "name": "owner",
          "type": "address"
        }
      ],
      "name": "balanceOf",
      "outputs": [
        {
          "internalType": "uint256",
          "name": "",
          "type": "uint256"
        }
      ],
      "stateMutability": "view",
      "type": "function"
    },
    {
      "inputs": [
        {
          "internalType": "uint256",
          "name": "tokenId",
          "type": "uint256"
        }
      ],
      "name": "getApproved",
      "outputs": [
        {
          "internalType": "address",
          "name": "",
          "type": "address"
        }
      ],
      "stateMutability": "view",
      "type": "function"
    },
    {
      "inputs": [
        {
          "internalType": "address",
          "name": "owner",
          "type": "address"
        },
        {
          "internalType": "address",
          "name": "operator",
          "type": "address"
        }
      ],
      "name": "isApprovedForAll",
      "outputs": [
        {
          "internalType": "bool",
          "name": "",
          "type": "bool"
        }
      ],
      "stateMutability": "view",
      "type": "function"
    },
    {
      "inputs": [],
      "name": "name",
      "outputs": [
        {
          "internalType": "string",
          "name": "",
          "type": "string"
        }
      ],
      "stateMutability": "view",
      "type": "function"
    },
    {
      "inputs": [
        {
          "internalType": "uint256",
          "name": "tokenId",
          "type": "uint256"
        }
      ],
      "name": "ownerOf",
      "outputs": [
        {
          "internalType": "address",
          "name": "",
          "type": "address"
        }
      ],
      "stateMutability": "view",
      "type": "function"
    },
    {
      "inputs": [
        {
          "internalType": "uint256",
          "name": "",
          "type": "uint256"
        }
      ],
      "name": "patents",
      "outputs": [
        {
          "internalType": "bool",
          "name": "forSale",
          "type": "bool"
        },
        {
          "internalType": "uint256",
          "name": "price",
          "type": "uint256"
        },
        {
          "internalType": "uint256",
          "name": "timestamp",
          "type": "uint256"
        },
        {
          "internalType": "uint256",
          "name": "deadline",
          "type": "uint256"
        }
      ],
      "stateMutability": "view",
      "type": "function"
    },
    {
      "inputs": [
        {
          "internalType": "address",
          "name": "from",
          "type": "address"
        },
        {
          "internalType": "address",
          "name": "to",
          "type": "address"
        },
        {
          "internalType": "uint256",
          "name": "tokenId",
          "type": "uint256"
        }
      ],
      "name": "safeTransferFrom",
      "outputs": [],
      "stateMutability": "nonpayable",
      "type": "function"
    },
    {
      "inputs": [
        {
          "internalType": "address",
          "name": "from",
          "type": "address"
        },
        {
          "internalType": "address",
          "name": "to",
          "type": "address"
        },
        {
          "internalType": "uint256",
          "name": "tokenId",
          "type": "uint256"
        },
        {
          "internalType": "bytes",
          "name": "_data",
          "type": "bytes"
        }
      ],
      "name": "safeTransferFrom",
      "outputs": [],
      "stateMutability": "nonpayable",
      "type": "function"
    },
    {
      "inputs": [
        {
          "internalType": "address",
          "name": "operator",
          "type": "address"
        },
        {
          "internalType": "bool",
          "name": "approved",
          "type": "bool"
        }
      ],
      "name": "setApprovalForAll",
      "outputs": [],
      "stateMutability": "nonpayable",
      "type": "function"
    },
    {
      "inputs": [
        {
          "internalType": "bytes4",
          "name": "interfaceId",
          "type": "bytes4"
        }
      ],
      "name": "supportsInterface",
      "outputs": [
        {
          "internalType": "bool",
          "name": "",
          "type": "bool"
        }
      ],
      "stateMutability": "view",
      "type": "function"
    },
    {
      "inputs": [],
      "name": "symbol",
      "outputs": [
        {
          "internalType": "string",
          "name": "",
          "type": "string"
        }
      ],
      "stateMutability": "view",
      "type": "function"
    },
    {
      "inputs": [],
      "name": "token",
      "outputs": [
        {
          "internalType": "contract IERC20",
          "name": "",
          "type": "address"
        }
      ],
      "stateMutability": "view",
      "type": "function"
    },
    {
      "inputs": [
        {
          "internalType": "uint256",
          "name": "tokenId",
          "type": "uint256"
        }
      ],
      "name": "tokenURI",
      "outputs": [
        {
          "internalType": "string",
          "name": "",
          "type": "string"
        }
      ],
      "stateMutability": "view",
      "type": "function"
    },
    {
      "inputs": [
        {
          "internalType": "address",
          "name": "from",
          "type": "address"
        },
        {
          "internalType": "address",
          "name": "to",
          "type": "address"
        },
        {
          "internalType": "uint256",
          "name": "tokenId",
          "type": "uint256"
        }
      ],
      "name": "transferFrom",
      "outputs": [],
      "stateMutability": "nonpayable",
      "type": "function"
    },
    {
      "inputs": [
        {
          "internalType": "string",
          "name": "_uri",
          "type": "string"
        }
      ],
      "name": "filePatent",
      "outputs": [],
      "stateMutability": "nonpayable",
      "type": "function"
    },
    {
      "inputs": [
        {
          "internalType": "uint256",
          "name": "patentId",
          "type": "uint256"
        },
        {
          "internalType": "uint256",
          "name": "price",
          "type": "uint256"
        }
      ],
      "name": "setPatentForSale",
      "outputs": [],
      "stateMutability": "nonpayable",
      "type": "function"
    },
    {
      "inputs": [
        {
          "internalType": "uint256",
          "name": "patentId",
          "type": "uint256"
        }
      ],
      "name": "setPatentNotForSale",
      "outputs": [],
      "stateMutability": "nonpayable",
      "type": "function"
    },
    {
      "inputs": [
        {
          "internalType": "uint256",
          "name": "patentId",
          "type": "uint256"
        }
      ],
      "name": "buyPatent",
      "outputs": [],
      "stateMutability": "nonpayable",
      "type": "function"
    },
    {
      "inputs": [],
      "name": "getTokenCount",
      "outputs": [
        {
          "internalType": "uint256",
          "name": "",
          "type": "uint256"
        }
      ],
      "stateMutability": "view",
      "type": "function"
    },
    {
      "inputs": [
        {
          "internalType": "uint256",
          "name": "patentId",
          "type": "uint256"
        }
      ],
      "name": "getPatentprice",
      "outputs": [
        {
          "internalType": "uint256",
          "name": "",
          "type": "uint256"
        }
      ],
      "stateMutability": "view",
      "type": "function"
    },
    {
      "inputs": [
        {
          "internalType": "uint256",
          "name": "tokenId",
          "type": "uint256"
        }
      ],
      "name": "getBids",
      "outputs": [
        {
          "components": [
            {
              "internalType": "address",
              "name": "bidder",
              "type": "address"
            },
            {
              "internalType": "uint256",
              "name": "amount",
              "type": "uint256"
            },
            {
              "internalType": "enum PatentNFT.State",
              "name": "state",
              "type": "uint8"
            }
          ],
          "internalType": "struct PatentNFT.Bid[]",
          "name": "",
          "type": "tuple[]"
        }
      ],
      "stateMutability": "view",
      "type": "function"
    },
    {
      "inputs": [
        {
          "internalType": "uint256",
          "name": "tokenId",
          "type": "uint256"
        },
        {
          "internalType": "uint256",
          "name": "indexBid",
          "type": "uint256"
        }
      ],
      "name": "rejectBid",
      "outputs": [],
      "stateMutability": "nonpayable",
      "type": "function"
    },
    {
      "inputs": [
        {
          "internalType": "uint256",
          "name": "tokenId",
          "type": "uint256"
        },
        {
          "internalType": "uint256",
          "name": "indexBid",
          "type": "uint256"
        }
      ],
      "name": "acceptBid",
      "outputs": [],
      "stateMutability": "nonpayable",
      "type": "function"
    },
    {
      "inputs": [
        {
          "internalType": "uint256",
          "name": "patentId",
          "type": "uint256"
        },
        {
          "internalType": "uint256",
          "name": "amount",
          "type": "uint256"
        }
      ],
      "name": "makeBid",
      "outputs": [],
      "stateMutability": "nonpayable",
      "type": "function"
    }
  ],
  "bytecode": "0x60806040523480156200001157600080fd5b5060405162004e6438038062004e648339818101604052810190620000379190620001ee565b6040518060400160405280600981526020017f506174656e744e465400000000000000000000000000000000000000000000008152506040518060400160405280600581526020017f50544e46540000000000000000000000000000000000000000000000000000008152508160009080519060200190620000bb92919062000127565b508060019080519060200190620000d492919062000127565b50505080600760006101000a81548173ffffffffffffffffffffffffffffffffffffffff021916908373ffffffffffffffffffffffffffffffffffffffff160217905550600060088190555050620002cd565b82805462000135906200024e565b90600052602060002090601f016020900481019282620001595760008555620001a5565b82601f106200017457805160ff1916838001178555620001a5565b82800160010185558215620001a5579182015b82811115620001a457825182559160200191906001019062000187565b5b509050620001b49190620001b8565b5090565b5b80821115620001d3576000816000905550600101620001b9565b5090565b600081519050620001e881620002b3565b92915050565b6000602082840312156200020157600080fd5b60006200021184828501620001d7565b91505092915050565b600062000227826200022e565b9050919050565b600073ffffffffffffffffffffffffffffffffffffffff82169050919050565b600060028204905060018216806200026757607f821691505b602082108114156200027e576200027d62000284565b5b50919050565b7f4e487b7100000000000000000000000000000000000000000000000000000000600052602260045260246000fd5b620002be816200021a565b8114620002ca57600080fd5b50565b614b8780620002dd6000396000f3fe608060405234801561001057600080fd5b50600436106101735760003560e01c806370a08231116100de578063a22cb46511610097578063c87b56dd11610071578063c87b56dd14610442578063e985e9c514610472578063f422bc68146104a2578063fc0c546a146104d557610173565b8063a22cb465146103ee578063adfcdc111461040a578063b88d4fde1461042657610173565b806370a082311461031a57806378a895671461034a57806379baa9fd146103685780638a99f6fb1461038457806395d89b41146103a05780639bee1f94146103be57610173565b806313b356ad1161013057806313b356ad1461025e578063226e59521461027a57806323b872dd1461029657806331ad661e146102b257806342842e0e146102ce5780636352211e146102ea57610173565b806301ffc9a71461017857806302e9d5e4146101a857806306fdde03146101c4578063081812fc146101e2578063095ea7b314610212578063131d9a271461022e575b600080fd5b610192600480360381019061018d91906132a8565b6104f3565b60405161019f9190613a91565b60405180910390f35b6101c260048036038101906101bd919061338d565b6105d5565b005b6101cc610a77565b6040516101d99190613b0c565b60405180910390f35b6101fc60048036038101906101f7919061333b565b610b09565b60405161020991906139a8565b60405180910390f35b61022c60048036038101906102279190613243565b610b8e565b005b6102486004803603810190610243919061333b565b610ca6565b6040516102559190613a6f565b60405180910390f35b6102786004803603810190610273919061333b565b610e75565b005b610294600480360381019061028f91906132fa565b61110e565b005b6102b060048036038101906102ab919061313d565b6112f1565b005b6102cc60048036038101906102c7919061338d565b611351565b005b6102e860048036038101906102e3919061313d565b6114d0565b005b61030460048036038101906102ff919061333b565b6114f0565b60405161031191906139a8565b60405180910390f35b610334600480360381019061032f91906130d8565b6115a2565b6040516103419190613ece565b60405180910390f35b61035261165a565b60405161035f9190613ece565b60405180910390f35b610382600480360381019061037d919061338d565b611664565b005b61039e6004803603810190610399919061333b565b6118a0565b005b6103a8611a26565b6040516103b59190613b0c565b60405180910390f35b6103d860048036038101906103d3919061333b565b611ab8565b6040516103e59190613ece565b60405180910390f35b61040860048036038101906104039190613207565b611ad8565b005b610424600480360381019061041f919061338d565b611c59565b005b610440600480360381019061043b919061318c565b611f58565b005b61045c6004803603810190610457919061333b565b611fba565b6040516104699190613b0c565b60405180910390f35b61048c60048036038101906104879190613101565b61210c565b6040516104999190613a91565b60405180910390f35b6104bc60048036038101906104b7919061333b565b6121a0565b6040516104cc9493929190613aac565b60405180910390f35b6104dd6121dd565b6040516104ea9190613af1565b60405180910390f35b60007f80ac58cd000000000000000000000000000000000000000000000000000000007bffffffffffffffffffffffffffffffffffffffffffffffffffffffff1916827bffffffffffffffffffffffffffffffffffffffffffffffffffffffff191614806105be57507f5b5e139f000000000000000000000000000000000000000000000000000000007bffffffffffffffffffffffffffffffffffffffffffffffffffffffff1916827bffffffffffffffffffffffffffffffffffffffffffffffffffffffff1916145b806105ce57506105cd82612203565b5b9050919050565b3373ffffffffffffffffffffffffffffffffffffffff166105f5836114f0565b73ffffffffffffffffffffffffffffffffffffffff161461064b576040517f08c379a000000000000000000000000000000000000000000000000000000000815260040161064290613b6e565b60405180910390fd5b80600b600084815260200190815260200160002080549050106106a3576040517f08c379a000000000000000000000000000000000000000000000000000000000815260040161069a90613e4e565b60405180910390fd5b6000600b600084815260200190815260200160002082815481106106f0577f4e487b7100000000000000000000000000000000000000000000000000000000600052603260045260246000fd5b90600052602060002090600302016040518060600160405290816000820160009054906101000a900473ffffffffffffffffffffffffffffffffffffffff1673ffffffffffffffffffffffffffffffffffffffff1673ffffffffffffffffffffffffffffffffffffffff168152602001600182015481526020016002820160009054906101000a900460ff1660028111156107b4577f4e487b7100000000000000000000000000000000000000000000000000000000600052602160045260246000fd5b60028111156107ec577f4e487b7100000000000000000000000000000000000000000000000000000000600052602160045260246000fd5b815250509050806000015173ffffffffffffffffffffffffffffffffffffffff16610816846114f0565b73ffffffffffffffffffffffffffffffffffffffff16141561086d576040517f08c379a000000000000000000000000000000000000000000000000000000000815260040161086490613e8e565b60405180910390fd5b8060200151600760009054906101000a900473ffffffffffffffffffffffffffffffffffffffff1673ffffffffffffffffffffffffffffffffffffffff166370a0823183600001516040518263ffffffff1660e01b81526004016108d191906139a8565b60206040518083038186803b1580156108e957600080fd5b505afa1580156108fd573d6000803e3d6000fd5b505050506040513d601f19601f820116820180604052508101906109219190613364565b1015610962576040517f08c379a000000000000000000000000000000000000000000000000000000000815260040161095990613dee565b60405180910390fd5b827fbc59543ce757cc7e4527a51c4c9d6e96e88a233bda92dc16607b63fd9599ade03383600001516040516109989291906139c3565b60405180910390a2600760009054906101000a900473ffffffffffffffffffffffffffffffffffffffff1673ffffffffffffffffffffffffffffffffffffffff1663beabacc882600001513384602001516040518463ffffffff1660e01b8152600401610a07939291906139ec565b602060405180830381600087803b158015610a2157600080fd5b505af1158015610a35573d6000803e3d6000fd5b505050506040513d601f19601f82011682018060405250810190610a59919061327f565b50610a69338260000151856114d0565b610a728361226d565b505050565b606060008054610a86906141dd565b80601f0160208091040260200160405190810160405280929190818152602001828054610ab2906141dd565b8015610aff5780601f10610ad457610100808354040283529160200191610aff565b820191906000526020600020905b815481529060010190602001808311610ae257829003601f168201915b5050505050905090565b6000610b148261233a565b610b53576040517f08c379a0000000000000000000000000000000000000000000000000000000008152600401610b4a90613d6e565b60405180910390fd5b6004600083815260200190815260200160002060009054906101000a900473ffffffffffffffffffffffffffffffffffffffff169050919050565b6000610b99826114f0565b90508073ffffffffffffffffffffffffffffffffffffffff168373ffffffffffffffffffffffffffffffffffffffff161415610c0a576040517f08c379a0000000000000000000000000000000000000000000000000000000008152600401610c0190613e0e565b60405180910390fd5b8073ffffffffffffffffffffffffffffffffffffffff16610c296123a6565b73ffffffffffffffffffffffffffffffffffffffff161480610c585750610c5781610c526123a6565b61210c565b5b610c97576040517f08c379a0000000000000000000000000000000000000000000000000000000008152600401610c8e90613c8e565b60405180910390fd5b610ca183836123ae565b505050565b60603373ffffffffffffffffffffffffffffffffffffffff16610cc8836114f0565b73ffffffffffffffffffffffffffffffffffffffff1614610d1e576040517f08c379a0000000000000000000000000000000000000000000000000000000008152600401610d1590613b6e565b60405180910390fd5b600b6000838152602001908152602001600020805480602002602001604051908101604052809291908181526020016000905b82821015610e6a57838290600052602060002090600302016040518060600160405290816000820160009054906101000a900473ffffffffffffffffffffffffffffffffffffffff1673ffffffffffffffffffffffffffffffffffffffff1673ffffffffffffffffffffffffffffffffffffffff168152602001600182015481526020016002820160009054906101000a900460ff166002811115610e1f577f4e487b7100000000000000000000000000000000000000000000000000000000600052602160045260246000fd5b6002811115610e57577f4e487b7100000000000000000000000000000000000000000000000000000000600052602160045260246000fd5b8152505081526020019060010190610d51565b505050509050919050565b600073ffffffffffffffffffffffffffffffffffffffff16610e96826114f0565b73ffffffffffffffffffffffffffffffffffffffff161415610eed576040517f08c379a0000000000000000000000000000000000000000000000000000000008152600401610ee490613e6e565b60405180910390fd5b6009600082815260200190815260200160002060000160009054906101000a900460ff16610f50576040517f08c379a0000000000000000000000000000000000000000000000000000000008152600401610f4790613c6e565b60405180910390fd5b60096000828152602001908152602001600020600301544210610fa8576040517f08c379a0000000000000000000000000000000000000000000000000000000008152600401610f9f90613c0e565b60405180910390fd5b600760009054906101000a900473ffffffffffffffffffffffffffffffffffffffff1673ffffffffffffffffffffffffffffffffffffffff1663beabacc833610ff0846114f0565b60096000868152602001908152602001600020600101546040518463ffffffff1660e01b8152600401611025939291906139ec565b602060405180830381600087803b15801561103f57600080fd5b505af1158015611053573d6000803e3d6000fd5b505050506040513d601f19601f82011682018060405250810190611077919061327f565b6110b6576040517f08c379a00000000000000000000000000000000000000000000000000000000081526004016110ad90613c2e565b60405180910390fd5b807fbc59543ce757cc7e4527a51c4c9d6e96e88a233bda92dc16607b63fd9599ade06110e1836114f0565b336040516110f09291906139c3565b60405180910390a261110b611104826114f0565b3383612467565b50565b600760009054906101000a900473ffffffffffffffffffffffffffffffffffffffff1673ffffffffffffffffffffffffffffffffffffffff16637f5db3e8336040518263ffffffff1660e01b815260040161116991906139a8565b602060405180830381600087803b15801561118357600080fd5b505af1158015611197573d6000803e3d6000fd5b505050506040513d601f19601f820116820180604052508101906111bb919061327f565b6111fa576040517f08c379a00000000000000000000000000000000000000000000000000000000081526004016111f190613eae565b60405180910390fd5b60405180608001604052806000151581526020016000815260200142815260200163259806004261122b9190614023565b81525060096000600854815260200190815260200160002060008201518160000160006101000a81548160ff021916908315150217905550602082015181600101556040820151816002015560608201518160030155905050611290336008546126c3565b61129c600854826126e1565b6008547fe035201264bc301f014898837139831792b61fd25d2a44511eaa8bac73575e8a336040516112ce91906139a8565b60405180910390a2600860008154809291906112e990614240565b919050555050565b6113026112fc6123a6565b82612755565b611341576040517f08c379a000000000000000000000000000000000000000000000000000000000815260040161133890613e2e565b60405180910390fd5b61134c838383612467565b505050565b3373ffffffffffffffffffffffffffffffffffffffff16611371836114f0565b73ffffffffffffffffffffffffffffffffffffffff16146113c7576040517f08c379a00000000000000000000000000000000000000000000000000000000081526004016113be90613b6e565b60405180910390fd5b6009600083815260200190815260200160002060030154421061141f576040517f08c379a000000000000000000000000000000000000000000000000000000000815260040161141690613c0e565b60405180910390fd5b6009600083815260200190815260200160002060000160009054906101000a900460ff16611482576040517f08c379a000000000000000000000000000000000000000000000000000000000815260040161147990613d8e565b60405180910390fd5b80600960008481526020019081526020016000206001018190555060016009600084815260200190815260200160002060000160006101000a81548160ff0219169083151502179055505050565b6114eb83838360405180602001604052806000815250611f58565b505050565b6000806002600084815260200190815260200160002060009054906101000a900473ffffffffffffffffffffffffffffffffffffffff169050600073ffffffffffffffffffffffffffffffffffffffff168173ffffffffffffffffffffffffffffffffffffffff161415611599576040517f08c379a000000000000000000000000000000000000000000000000000000000815260040161159090613cce565b60405180910390fd5b80915050919050565b60008073ffffffffffffffffffffffffffffffffffffffff168273ffffffffffffffffffffffffffffffffffffffff161415611613576040517f08c379a000000000000000000000000000000000000000000000000000000000815260040161160a90613cae565b60405180910390fd5b600360008373ffffffffffffffffffffffffffffffffffffffff1673ffffffffffffffffffffffffffffffffffffffff168152602001908152602001600020549050919050565b6000600854905090565b3373ffffffffffffffffffffffffffffffffffffffff16611684836114f0565b73ffffffffffffffffffffffffffffffffffffffff16146116da576040517f08c379a00000000000000000000000000000000000000000000000000000000081526004016116d190613b6e565b60405180910390fd5b80600b60008481526020019081526020016000208054905010611732576040517f08c379a000000000000000000000000000000000000000000000000000000000815260040161172990613e4e565b60405180910390fd5b6000600b6000848152602001908152602001600020828154811061177f577f4e487b7100000000000000000000000000000000000000000000000000000000600052603260045260246000fd5b906000526020600020906003020160020160006101000a81548160ff021916908360028111156117d8577f4e487b7100000000000000000000000000000000000000000000000000000000600052602160045260246000fd5b02179055507fbc154f7987a14b2fa030a8c69aea4ee9febfd621cc40bb12817668a9c3d6b96f82611808846114f0565b600b60008681526020019081526020016000208481548110611853577f4e487b7100000000000000000000000000000000000000000000000000000000600052603260045260246000fd5b906000526020600020906003020160000160009054906101000a900473ffffffffffffffffffffffffffffffffffffffff1660405161189493929190613ee9565b60405180910390a15050565b3373ffffffffffffffffffffffffffffffffffffffff166118c0826114f0565b73ffffffffffffffffffffffffffffffffffffffff1614611916576040517f08c379a000000000000000000000000000000000000000000000000000000000815260040161190d90613b6e565b60405180910390fd5b6009600082815260200190815260200160002060030154421061196e576040517f08c379a000000000000000000000000000000000000000000000000000000000815260040161196590613c0e565b60405180910390fd5b600015156009600083815260200190815260200160002060000160009054906101000a900460ff161515146119d8576040517f08c379a00000000000000000000000000000000000000000000000000000000081526004016119cf90613bee565b60405180910390fd5b6000600960008381526020019081526020016000206001018190555060006009600083815260200190815260200160002060000160006101000a81548160ff02191690831515021790555050565b606060018054611a35906141dd565b80601f0160208091040260200160405190810160405280929190818152602001828054611a61906141dd565b8015611aae5780601f10611a8357610100808354040283529160200191611aae565b820191906000526020600020905b815481529060010190602001808311611a9157829003601f168201915b5050505050905090565b600060096000838152602001908152602001600020600101549050919050565b611ae06123a6565b73ffffffffffffffffffffffffffffffffffffffff168273ffffffffffffffffffffffffffffffffffffffff161415611b4e576040517f08c379a0000000000000000000000000000000000000000000000000000000008152600401611b4590613bce565b60405180910390fd5b8060056000611b5b6123a6565b73ffffffffffffffffffffffffffffffffffffffff1673ffffffffffffffffffffffffffffffffffffffff16815260200190815260200160002060008473ffffffffffffffffffffffffffffffffffffffff1673ffffffffffffffffffffffffffffffffffffffff16815260200190815260200160002060006101000a81548160ff0219169083151502179055508173ffffffffffffffffffffffffffffffffffffffff16611c086123a6565b73ffffffffffffffffffffffffffffffffffffffff167f17307eab39ab6107e8899845ad3d59bd9653f200f220920489ca2b5937696c3183604051611c4d9190613a91565b60405180910390a35050565b611c62826114f0565b73ffffffffffffffffffffffffffffffffffffffff163373ffffffffffffffffffffffffffffffffffffffff161415611cd0576040517f08c379a0000000000000000000000000000000000000000000000000000000008152600401611cc790613b8e565b60405180910390fd5b80600760009054906101000a900473ffffffffffffffffffffffffffffffffffffffff1673ffffffffffffffffffffffffffffffffffffffff166370a08231336040518263ffffffff1660e01b8152600401611d2c91906139a8565b60206040518083038186803b158015611d4457600080fd5b505afa158015611d58573d6000803e3d6000fd5b505050506040513d601f19601f82011682018060405250810190611d7c9190613364565b1015611dbd576040517f08c379a0000000000000000000000000000000000000000000000000000000008152600401611db490613d0e565b60405180910390fd5b600060405180606001604052803373ffffffffffffffffffffffffffffffffffffffff168152602001838152602001600280811115611e25577f4e487b7100000000000000000000000000000000000000000000000000000000600052602160045260246000fd5b8152509050600b600084815260200190815260200160002081908060018154018082558091505060019003906000526020600020906003020160009091909190915060008201518160000160006101000a81548173ffffffffffffffffffffffffffffffffffffffff021916908373ffffffffffffffffffffffffffffffffffffffff1602179055506020820151816001015560408201518160020160006101000a81548160ff02191690836002811115611f09577f4e487b7100000000000000000000000000000000000000000000000000000000600052602160045260246000fd5b021790555050507f4d0cbbf5e8ec1f02fd982d9a636d913a35d38e85d10199d578e4c105aebd282b83611f3b856114f0565b33604051611f4b93929190613ee9565b60405180910390a1505050565b611f69611f636123a6565b83612755565b611fa8576040517f08c379a0000000000000000000000000000000000000000000000000000000008152600401611f9f90613e2e565b60405180910390fd5b611fb484848484612833565b50505050565b6060611fc58261233a565b612004576040517f08c379a0000000000000000000000000000000000000000000000000000000008152600401611ffb90613d4e565b60405180910390fd5b6000600660008481526020019081526020016000208054612024906141dd565b80601f0160208091040260200160405190810160405280929190818152602001828054612050906141dd565b801561209d5780601f106120725761010080835404028352916020019161209d565b820191906000526020600020905b81548152906001019060200180831161208057829003601f168201915b5050505050905060006120ae61288f565b90506000815114156120c4578192505050612107565b6000825111156120f95780826040516020016120e1929190613984565b60405160208183030381529060405292505050612107565b612102846128a6565b925050505b919050565b6000600560008473ffffffffffffffffffffffffffffffffffffffff1673ffffffffffffffffffffffffffffffffffffffff16815260200190815260200160002060008373ffffffffffffffffffffffffffffffffffffffff1673ffffffffffffffffffffffffffffffffffffffff16815260200190815260200160002060009054906101000a900460ff16905092915050565b60096020528060005260406000206000915090508060000160009054906101000a900460ff16908060010154908060020154908060030154905084565b600760009054906101000a900473ffffffffffffffffffffffffffffffffffffffff1681565b60007f01ffc9a7000000000000000000000000000000000000000000000000000000007bffffffffffffffffffffffffffffffffffffffffffffffffffffffff1916827bffffffffffffffffffffffffffffffffffffffffffffffffffffffff1916149050919050565b5b6000600b600083815260200190815260200160002080549050111561233757600b60008281526020019081526020016000208054806122d6577f4e487b7100000000000000000000000000000000000000000000000000000000600052603160045260246000fd5b6001900381819060005260206000209060030201600080820160006101000a81549073ffffffffffffffffffffffffffffffffffffffff021916905560018201600090556002820160006101000a81549060ff02191690555050905561226e565b50565b60008073ffffffffffffffffffffffffffffffffffffffff166002600084815260200190815260200160002060009054906101000a900473ffffffffffffffffffffffffffffffffffffffff1673ffffffffffffffffffffffffffffffffffffffff1614159050919050565b600033905090565b816004600083815260200190815260200160002060006101000a81548173ffffffffffffffffffffffffffffffffffffffff021916908373ffffffffffffffffffffffffffffffffffffffff160217905550808273ffffffffffffffffffffffffffffffffffffffff16612421836114f0565b73ffffffffffffffffffffffffffffffffffffffff167f8c5be1e5ebec7d5bd14f71427d1e84f3dd0314c0f7b2291e5b200ac8c7c3b92560405160405180910390a45050565b8273ffffffffffffffffffffffffffffffffffffffff16612487826114f0565b73ffffffffffffffffffffffffffffffffffffffff16146124dd576040517f08c379a00000000000000000000000000000000000000000000000000000000081526004016124d490613dae565b60405180910390fd5b600073ffffffffffffffffffffffffffffffffffffffff168273ffffffffffffffffffffffffffffffffffffffff16141561254d576040517f08c379a000000000000000000000000000000000000000000000000000000000815260040161254490613bae565b60405180910390fd5b61255883838361294d565b6125636000826123ae565b6001600360008573ffffffffffffffffffffffffffffffffffffffff1673ffffffffffffffffffffffffffffffffffffffff16815260200190815260200160002060008282546125b391906140aa565b925050819055506001600360008473ffffffffffffffffffffffffffffffffffffffff1673ffffffffffffffffffffffffffffffffffffffff168152602001908152602001600020600082825461260a9190614023565b92505081905550816002600083815260200190815260200160002060006101000a81548173ffffffffffffffffffffffffffffffffffffffff021916908373ffffffffffffffffffffffffffffffffffffffff160217905550808273ffffffffffffffffffffffffffffffffffffffff168473ffffffffffffffffffffffffffffffffffffffff167fddf252ad1be2c89b69c2b068fc378daa952ba7f163c4a11628f55a4df523b3ef60405160405180910390a4505050565b6126dd828260405180602001604052806000815250612952565b5050565b6126ea8261233a565b612729576040517f08c379a000000000000000000000000000000000000000000000000000000000815260040161272090613cee565b60405180910390fd5b80600660008481526020019081526020016000209080519060200190612750929190612ed2565b505050565b60006127608261233a565b61279f576040517f08c379a000000000000000000000000000000000000000000000000000000000815260040161279690613c4e565b60405180910390fd5b60006127aa836114f0565b90508073ffffffffffffffffffffffffffffffffffffffff168473ffffffffffffffffffffffffffffffffffffffff16148061281957508373ffffffffffffffffffffffffffffffffffffffff1661280184610b09565b73ffffffffffffffffffffffffffffffffffffffff16145b8061282a5750612829818561210c565b5b91505092915050565b61283e848484612467565b61284a848484846129ad565b612889576040517f08c379a000000000000000000000000000000000000000000000000000000000815260040161288090613b2e565b60405180910390fd5b50505050565b606060405180602001604052806000815250905090565b60606128b18261233a565b6128f0576040517f08c379a00000000000000000000000000000000000000000000000000000000081526004016128e790613dce565b60405180910390fd5b60006128fa61288f565b9050600081511161291a5760405180602001604052806000815250612945565b8061292484612b44565b604051602001612935929190613984565b6040516020818303038152906040525b915050919050565b505050565b61295c8383612cf1565b61296960008484846129ad565b6129a8576040517f08c379a000000000000000000000000000000000000000000000000000000000815260040161299f90613b2e565b60405180910390fd5b505050565b60006129ce8473ffffffffffffffffffffffffffffffffffffffff16612ebf565b15612b37578373ffffffffffffffffffffffffffffffffffffffff1663150b7a026129f76123a6565b8786866040518563ffffffff1660e01b8152600401612a199493929190613a23565b602060405180830381600087803b158015612a3357600080fd5b505af1925050508015612a6457506040513d601f19601f82011682018060405250810190612a6191906132d1565b60015b612ae7573d8060008114612a94576040519150601f19603f3d011682016040523d82523d6000602084013e612a99565b606091505b50600081511415612adf576040517f08c379a0000000000000000000000000000000000000000000000000000000008152600401612ad690613b2e565b60405180910390fd5b805181602001fd5b63150b7a0260e01b7bffffffffffffffffffffffffffffffffffffffffffffffffffffffff1916817bffffffffffffffffffffffffffffffffffffffffffffffffffffffff191614915050612b3c565b600190505b949350505050565b60606000821415612b8c576040518060400160405280600181526020017f30000000000000000000000000000000000000000000000000000000000000008152509050612cec565b600082905060005b60008214612bbe578080612ba790614240565b915050600a82612bb79190614079565b9150612b94565b60008167ffffffffffffffff811115612c00577f4e487b7100000000000000000000000000000000000000000000000000000000600052604160045260246000fd5b6040519080825280601f01601f191660200182016040528015612c325781602001600182028036833780820191505090505b5090505b60008514612ce557600182612c4b91906140aa565b9150600a85612c5a9190614289565b6030612c669190614023565b60f81b818381518110612ca2577f4e487b7100000000000000000000000000000000000000000000000000000000600052603260045260246000fd5b60200101907effffffffffffffffffffffffffffffffffffffffffffffffffffffffffffff1916908160001a905350600a85612cde9190614079565b9450612c36565b8093505050505b919050565b600073ffffffffffffffffffffffffffffffffffffffff168273ffffffffffffffffffffffffffffffffffffffff161415612d61576040517f08c379a0000000000000000000000000000000000000000000000000000000008152600401612d5890613d2e565b60405180910390fd5b612d6a8161233a565b15612daa576040517f08c379a0000000000000000000000000000000000000000000000000000000008152600401612da190613b4e565b60405180910390fd5b612db66000838361294d565b6001600360008473ffffffffffffffffffffffffffffffffffffffff1673ffffffffffffffffffffffffffffffffffffffff1681526020019081526020016000206000828254612e069190614023565b92505081905550816002600083815260200190815260200160002060006101000a81548173ffffffffffffffffffffffffffffffffffffffff021916908373ffffffffffffffffffffffffffffffffffffffff160217905550808273ffffffffffffffffffffffffffffffffffffffff16600073ffffffffffffffffffffffffffffffffffffffff167fddf252ad1be2c89b69c2b068fc378daa952ba7f163c4a11628f55a4df523b3ef60405160405180910390a45050565b600080823b905060008111915050919050565b828054612ede906141dd565b90600052602060002090601f016020900481019282612f005760008555612f47565b82601f10612f1957805160ff1916838001178555612f47565b82800160010185558215612f47579182015b82811115612f46578251825591602001919060010190612f2b565b5b509050612f549190612f58565b5090565b5b80821115612f71576000816000905550600101612f59565b5090565b6000612f88612f8384613f45565b613f20565b905082815260208101848484011115612fa057600080fd5b612fab84828561419b565b509392505050565b6000612fc6612fc184613f76565b613f20565b905082815260208101848484011115612fde57600080fd5b612fe984828561419b565b509392505050565b60008135905061300081614af5565b92915050565b60008135905061301581614b0c565b92915050565b60008151905061302a81614b0c565b92915050565b60008135905061303f81614b23565b92915050565b60008151905061305481614b23565b92915050565b600082601f83011261306b57600080fd5b813561307b848260208601612f75565b91505092915050565b600082601f83011261309557600080fd5b81356130a5848260208601612fb3565b91505092915050565b6000813590506130bd81614b3a565b92915050565b6000815190506130d281614b3a565b92915050565b6000602082840312156130ea57600080fd5b60006130f884828501612ff1565b91505092915050565b6000806040838503121561311457600080fd5b600061312285828601612ff1565b925050602061313385828601612ff1565b9150509250929050565b60008060006060848603121561315257600080fd5b600061316086828701612ff1565b935050602061317186828701612ff1565b9250506040613182868287016130ae565b9150509250925092565b600080600080608085870312156131a257600080fd5b60006131b087828801612ff1565b94505060206131c187828801612ff1565b93505060406131d2878288016130ae565b925050606085013567ffffffffffffffff8111156131ef57600080fd5b6131fb8782880161305a565b91505092959194509250565b6000806040838503121561321a57600080fd5b600061322885828601612ff1565b925050602061323985828601613006565b9150509250929050565b6000806040838503121561325657600080fd5b600061326485828601612ff1565b9250506020613275858286016130ae565b9150509250929050565b60006020828403121561329157600080fd5b600061329f8482850161301b565b91505092915050565b6000602082840312156132ba57600080fd5b60006132c884828501613030565b91505092915050565b6000602082840312156132e357600080fd5b60006132f184828501613045565b91505092915050565b60006020828403121561330c57600080fd5b600082013567ffffffffffffffff81111561332657600080fd5b61333284828501613084565b91505092915050565b60006020828403121561334d57600080fd5b600061335b848285016130ae565b91505092915050565b60006020828403121561337657600080fd5b6000613384848285016130c3565b91505092915050565b600080604083850312156133a057600080fd5b60006133ae858286016130ae565b92505060206133bf858286016130ae565b9150509250929050565b60006133d58383613924565b60608301905092915050565b6133ea816140de565b82525050565b6133f9816140de565b82525050565b600061340a82613fb7565b6134148185613fe5565b935061341f83613fa7565b8060005b8381101561345057815161343788826133c9565b975061344283613fd8565b925050600181019050613423565b5085935050505092915050565b613466816140f0565b82525050565b600061347782613fc2565b6134818185613ff6565b93506134918185602086016141aa565b61349a816143a5565b840191505092915050565b6134ae81614165565b82525050565b6134bd81614189565b82525050565b60006134ce82613fcd565b6134d88185614007565b93506134e88185602086016141aa565b6134f1816143a5565b840191505092915050565b600061350782613fcd565b6135118185614018565b93506135218185602086016141aa565b80840191505092915050565b600061353a603283614007565b9150613545826143b6565b604082019050919050565b600061355d601c83614007565b915061356882614405565b602082019050919050565b6000613580602383614007565b915061358b8261442e565b604082019050919050565b60006135a3602783614007565b91506135ae8261447d565b604082019050919050565b60006135c6602483614007565b91506135d1826144cc565b604082019050919050565b60006135e9601983614007565b91506135f48261451b565b602082019050919050565b600061360c601e83614007565b915061361782614544565b602082019050919050565b600061362f601683614007565b915061363a8261456d565b602082019050919050565b6000613652602a83614007565b915061365d82614596565b604082019050919050565b6000613675602c83614007565b9150613680826145e5565b604082019050919050565b6000613698601983614007565b91506136a382614634565b602082019050919050565b60006136bb603883614007565b91506136c68261465d565b604082019050919050565b60006136de602a83614007565b91506136e9826146ac565b604082019050919050565b6000613701602983614007565b915061370c826146fb565b604082019050919050565b6000613724602e83614007565b915061372f8261474a565b604082019050919050565b6000613747601b83614007565b915061375282614799565b602082019050919050565b600061376a602083614007565b9150613775826147c2565b602082019050919050565b600061378d603183614007565b9150613798826147eb565b604082019050919050565b60006137b0602c83614007565b91506137bb8261483a565b604082019050919050565b60006137d3601a83614007565b91506137de82614889565b602082019050919050565b60006137f6602983614007565b9150613801826148b2565b604082019050919050565b6000613819602f83614007565b915061382482614901565b604082019050919050565b600061383c602483614007565b915061384782614950565b604082019050919050565b600061385f602183614007565b915061386a8261499f565b604082019050919050565b6000613882603183614007565b915061388d826149ee565b604082019050919050565b60006138a5601283614007565b91506138b082614a3d565b602082019050919050565b60006138c8601983614007565b91506138d382614a66565b602082019050919050565b60006138eb601c83614007565b91506138f682614a8f565b602082019050919050565b600061390e601983614007565b915061391982614ab8565b602082019050919050565b60608201600082015161393a60008501826133e1565b50602082015161394d6020850182613966565b50604082015161396060408501826134b4565b50505050565b61396f8161415b565b82525050565b61397e8161415b565b82525050565b600061399082856134fc565b915061399c82846134fc565b91508190509392505050565b60006020820190506139bd60008301846133f0565b92915050565b60006040820190506139d860008301856133f0565b6139e560208301846133f0565b9392505050565b6000606082019050613a0160008301866133f0565b613a0e60208301856133f0565b613a1b6040830184613975565b949350505050565b6000608082019050613a3860008301876133f0565b613a4560208301866133f0565b613a526040830185613975565b8181036060830152613a64818461346c565b905095945050505050565b60006020820190508181036000830152613a8981846133ff565b905092915050565b6000602082019050613aa6600083018461345d565b92915050565b6000608082019050613ac1600083018761345d565b613ace6020830186613975565b613adb6040830185613975565b613ae86060830184613975565b95945050505050565b6000602082019050613b0660008301846134a5565b92915050565b60006020820190508181036000830152613b2681846134c3565b905092915050565b60006020820190508181036000830152613b478161352d565b9050919050565b60006020820190508181036000830152613b6781613550565b9050919050565b60006020820190508181036000830152613b8781613573565b9050919050565b60006020820190508181036000830152613ba781613596565b9050919050565b60006020820190508181036000830152613bc7816135b9565b9050919050565b60006020820190508181036000830152613be7816135dc565b9050919050565b60006020820190508181036000830152613c07816135ff565b9050919050565b60006020820190508181036000830152613c2781613622565b9050919050565b60006020820190508181036000830152613c4781613645565b9050919050565b60006020820190508181036000830152613c6781613668565b9050919050565b60006020820190508181036000830152613c878161368b565b9050919050565b60006020820190508181036000830152613ca7816136ae565b9050919050565b60006020820190508181036000830152613cc7816136d1565b9050919050565b60006020820190508181036000830152613ce7816136f4565b9050919050565b60006020820190508181036000830152613d0781613717565b9050919050565b60006020820190508181036000830152613d278161373a565b9050919050565b60006020820190508181036000830152613d478161375d565b9050919050565b60006020820190508181036000830152613d6781613780565b9050919050565b60006020820190508181036000830152613d87816137a3565b9050919050565b60006020820190508181036000830152613da7816137c6565b9050919050565b60006020820190508181036000830152613dc7816137e9565b9050919050565b60006020820190508181036000830152613de78161380c565b9050919050565b60006020820190508181036000830152613e078161382f565b9050919050565b60006020820190508181036000830152613e2781613852565b9050919050565b60006020820190508181036000830152613e4781613875565b9050919050565b60006020820190508181036000830152613e6781613898565b9050919050565b60006020820190508181036000830152613e87816138bb565b9050919050565b60006020820190508181036000830152613ea7816138de565b9050919050565b60006020820190508181036000830152613ec781613901565b9050919050565b6000602082019050613ee36000830184613975565b92915050565b6000606082019050613efe6000830186613975565b613f0b60208301856133f0565b613f1860408301846133f0565b949350505050565b6000613f2a613f3b565b9050613f36828261420f565b919050565b6000604051905090565b600067ffffffffffffffff821115613f6057613f5f614376565b5b613f69826143a5565b9050602081019050919050565b600067ffffffffffffffff821115613f9157613f90614376565b5b613f9a826143a5565b9050602081019050919050565b6000819050602082019050919050565b600081519050919050565b600081519050919050565b600081519050919050565b6000602082019050919050565b600082825260208201905092915050565b600082825260208201905092915050565b600082825260208201905092915050565b600081905092915050565b600061402e8261415b565b91506140398361415b565b9250827fffffffffffffffffffffffffffffffffffffffffffffffffffffffffffffffff0382111561406e5761406d6142ba565b5b828201905092915050565b60006140848261415b565b915061408f8361415b565b92508261409f5761409e6142e9565b5b828204905092915050565b60006140b58261415b565b91506140c08361415b565b9250828210156140d3576140d26142ba565b5b828203905092915050565b60006140e98261413b565b9050919050565b60008115159050919050565b60007fffffffff0000000000000000000000000000000000000000000000000000000082169050919050565b600081905061413682614ae1565b919050565b600073ffffffffffffffffffffffffffffffffffffffff82169050919050565b6000819050919050565b600061417082614177565b9050919050565b60006141828261413b565b9050919050565b600061419482614128565b9050919050565b82818337600083830152505050565b60005b838110156141c85780820151818401526020810190506141ad565b838111156141d7576000848401525b50505050565b600060028204905060018216806141f557607f821691505b6020821081141561420957614208614347565b5b50919050565b614218826143a5565b810181811067ffffffffffffffff8211171561423757614236614376565b5b80604052505050565b600061424b8261415b565b91507fffffffffffffffffffffffffffffffffffffffffffffffffffffffffffffffff82141561427e5761427d6142ba565b5b600182019050919050565b60006142948261415b565b915061429f8361415b565b9250826142af576142ae6142e9565b5b828206905092915050565b7f4e487b7100000000000000000000000000000000000000000000000000000000600052601160045260246000fd5b7f4e487b7100000000000000000000000000000000000000000000000000000000600052601260045260246000fd5b7f4e487b7100000000000000000000000000000000000000000000000000000000600052602160045260246000fd5b7f4e487b7100000000000000000000000000000000000000000000000000000000600052602260045260246000fd5b7f4e487b7100000000000000000000000000000000000000000000000000000000600052604160045260246000fd5b6000601f19601f8301169050919050565b7f4552433732313a207472616e7366657220746f206e6f6e20455243373231526560008201527f63656976657220696d706c656d656e7465720000000000000000000000000000602082015250565b7f4552433732313a20746f6b656e20616c7265616479206d696e74656400000000600082015250565b7f596f7520617265206e6f7420746865206f776e6572206f66207468652070617460008201527f656e740000000000000000000000000000000000000000000000000000000000602082015250565b7f596f752061726520616c726561647920746865206f776e6572206f662074686560008201527f20706174656e7400000000000000000000000000000000000000000000000000602082015250565b7f4552433732313a207472616e7366657220746f20746865207a65726f2061646460008201527f7265737300000000000000000000000000000000000000000000000000000000602082015250565b7f4552433732313a20617070726f766520746f2063616c6c657200000000000000600082015250565b7f506174656e7420616c7265616479206e6f7420757020666f722073616c650000600082015250565b7f54686520706174656e7420686173206578706972656400000000000000000000600082015250565b7f596f752068617665206e6f7420656e6f7567682050544e5420746f206275792060008201527f74686520706174656e7400000000000000000000000000000000000000000000602082015250565b7f4552433732313a206f70657261746f7220717565727920666f72206e6f6e657860008201527f697374656e7420746f6b656e0000000000000000000000000000000000000000602082015250565b7f54686520706174656e74206973206e6f7420696e2073616c6500000000000000600082015250565b7f4552433732313a20617070726f76652063616c6c6572206973206e6f74206f7760008201527f6e6572206e6f7220617070726f76656420666f7220616c6c0000000000000000602082015250565b7f4552433732313a2062616c616e636520717565727920666f7220746865207a6560008201527f726f206164647265737300000000000000000000000000000000000000000000602082015250565b7f4552433732313a206f776e657220717565727920666f72206e6f6e657869737460008201527f656e7420746f6b656e0000000000000000000000000000000000000000000000602082015250565b7f45524337323155524953746f726167653a2055524920736574206f66206e6f6e60008201527f6578697374656e7420746f6b656e000000000000000000000000000000000000602082015250565b7f596f7520646f206e6f74206861766520656e6f7567682050544e540000000000600082015250565b7f4552433732313a206d696e7420746f20746865207a65726f2061646472657373600082015250565b7f45524337323155524953746f726167653a2055524920717565727920666f722060008201527f6e6f6e6578697374656e7420746f6b656e000000000000000000000000000000602082015250565b7f4552433732313a20617070726f76656420717565727920666f72206e6f6e657860008201527f697374656e7420746f6b656e0000000000000000000000000000000000000000602082015250565b7f506174656e7420616c726561647920757020666f722073616c65000000000000600082015250565b7f4552433732313a207472616e73666572206f6620746f6b656e2074686174206960008201527f73206e6f74206f776e0000000000000000000000000000000000000000000000602082015250565b7f4552433732314d657461646174613a2055524920717565727920666f72206e6f60008201527f6e6578697374656e7420746f6b656e0000000000000000000000000000000000602082015250565b7f5468652062696464657220646f6573206e6f74206861766520656e6f7567682060008201527f50544e5400000000000000000000000000000000000000000000000000000000602082015250565b7f4552433732313a20617070726f76616c20746f2063757272656e74206f776e6560008201527f7200000000000000000000000000000000000000000000000000000000000000602082015250565b7f4552433732313a207472616e736665722063616c6c6572206973206e6f74206f60008201527f776e6572206e6f7220617070726f766564000000000000000000000000000000602082015250565b7f496e646578206f7574206f662072616e67650000000000000000000000000000600082015250565b7f54686520706174656e7420646f6573206e6f7420657869737400000000000000600082015250565b7f596f752063616e206e6f742061636365707420796f7572206269647300000000600082015250565b7f46696c696e6720666565207061796d656e74206661696c656400000000000000600082015250565b60038110614af257614af1614318565b5b50565b614afe816140de565b8114614b0957600080fd5b50565b614b15816140f0565b8114614b2057600080fd5b50565b614b2c816140fc565b8114614b3757600080fd5b50565b614b438161415b565b8114614b4e57600080fd5b5056fea2646970667358221220da320ad994ecda94304cb3e938475ad35751b8208873493568332d8acaef931264736f6c63430008020033",
  "immutableReferences": {},
  "source": "// SPDX-License-Identifier: MIT\r\npragma solidity >=0.4.22 <0.9.0;\r\n\r\nimport \"@openzeppelin/contracts/token/ERC721/extensions/ERC721URIStorage.sol\";\r\n\r\n\r\ninterface IERC20{\r\n    function transfer(address from, address to, uint amount) external returns (bool);\r\n    function balanceOf(address account) external view returns(uint);\r\n    function payFilingFee(address sender) external returns(bool);\r\n}\r\n\r\n\r\n/// @title PatentNFT contract\r\n/// @author Carolina Proietti, Edoardo Giuggioloni, Paolo Marchignoli, Ruben Seror \r\n/// @notice You can use this contract to file patent, buy and sell associated NFTs\r\ncontract PatentNFT is ERC721URIStorage{\r\n\r\n    // Struttura dei brevetti\r\n    struct Patent {\r\n        bool forSale; //brevetto in vendita (s/n)\r\n        uint price; //prezzo brevetto (0 se non  in vendita)\r\n        uint timestamp;//data deposito brevetto\r\n        uint deadline;//scadenza brevetto\r\n    }\r\n\r\n    enum State {Refused, Accepted, Pending}\r\n\r\n    struct Bid{\r\n        address bidder;\r\n        uint amount;\r\n        State state;\r\n    }\r\n\r\n    IERC20 public token;\r\n    uint private patentCounter;\r\n    mapping(uint => Patent) public patents;\r\n    uint filingPrice;\r\n    mapping(uint => Bid[]) bids;\r\n\r\n    //evento deposito\r\n    event PatentFiled(uint indexed patentId, address owner);\r\n    //evento cessione\r\n    event PatentAssignment(uint indexed patentId, address from, address to);\r\n    //evento offerta rifiutata\r\n    event BidRefused(uint tokenId, address owner, address bidder);\r\n    //evento offerta\r\n    event MakeBid(uint tokenId, address owner, address bidder);\r\n\r\n    constructor(address tokenAddress) ERC721(\"PatentNFT\",\"PTNFT\"){\r\n        token = IERC20(tokenAddress);\r\n        patentCounter = 0;\r\n    }\r\n\r\n    ///@notice method that allow user to file their patents\r\n    ///@param _uri URI of the filed Patent in IPFS\r\n    function filePatent(string memory _uri) public{\r\n        require(token.payFilingFee(msg.sender),'Filing fee payment failed');\r\n        patents[patentCounter] = Patent({ \r\n            forSale: false, \r\n            price:0,\r\n            timestamp: block.timestamp,\r\n            deadline: block.timestamp + (20 * 365 days)});\r\n        _safeMint(msg.sender, patentCounter);\r\n        _setTokenURI(patentCounter, _uri);\r\n        emit PatentFiled(patentCounter, msg.sender);\r\n        patentCounter++;\r\n    }\r\n    ///@notice user can put the patent up for sale\r\n    ///@param patentId nft id of the patent\r\n    function setPatentForSale(uint patentId, uint price) public {\r\n        require(ownerOf(patentId) == msg.sender,'You are not the owner of the patent');\r\n        require(block.timestamp < patents[patentId].deadline,'The patent has expired');\r\n        require(patents[patentId].forSale, 'Patent already up for sale');\r\n        patents[patentId].price = price;\r\n        patents[patentId].forSale = true;\r\n    }\r\n\r\n    ///@notice user can remove the patent from sale\r\n    ///@param patentId nft id of the patent\r\n    function setPatentNotForSale(uint patentId) public {\r\n        require(ownerOf(patentId) == msg.sender,'You are not the owner of the patent');\r\n        require(block.timestamp < patents[patentId].deadline,'The patent has expired');\r\n        require(patents[patentId].forSale == false, 'Patent already not up for sale');\r\n        patents[patentId].price = 0;\r\n        patents[patentId].forSale = false;    \r\n    }\r\n\r\n    function buyPatent(uint patentId) public {\r\n        require(ownerOf(patentId) != address(0),'The patent does not exist');\r\n        require(patents[patentId].forSale,'The patent is not in sale');\r\n        require(block.timestamp < patents[patentId].deadline,'The patent has expired');\r\n        require(token.transfer(msg.sender,ownerOf(patentId), patents[patentId].price),'You have not enough PTNT to buy the patent');\r\n        emit PatentAssignment(patentId, ownerOf(patentId), msg.sender);\r\n        _transfer(ownerOf(patentId), msg.sender, patentId);\r\n    }\r\n    \r\n    ///@notice return number of filed patents\r\n    function getTokenCount() public view returns(uint){\r\n        return patentCounter;\r\n    }\r\n\r\n    ///@notice return the price in PTNT of a specific patent\r\n    ///@param patentId id of the nft associated to the patent\r\n    function getPatentprice(uint patentId) public view returns(uint){\r\n        return patents[patentId].price;\r\n    }\r\n\r\n    function getBids(uint tokenId) public view returns(Bid[] memory){\r\n        require(ownerOf(tokenId) == msg.sender,'You are not the owner of the patent');\r\n        return bids[tokenId];\r\n    }\r\n\r\n    function rejectBid(uint tokenId, uint indexBid) public{\r\n        require(ownerOf(tokenId) == msg.sender,'You are not the owner of the patent');\r\n        require(bids[tokenId].length < indexBid, 'Index out of range');\r\n        bids[tokenId][indexBid].state = State.Refused;\r\n        emit BidRefused(tokenId, ownerOf(tokenId), bids[tokenId][indexBid].bidder);\r\n    }\r\n\r\n    function acceptBid(uint tokenId, uint indexBid) public{\r\n        require(ownerOf(tokenId) == msg.sender,'You are not the owner of the patent');\r\n        require(bids[tokenId].length < indexBid, 'Index out of range');\r\n        Bid memory bid = bids[tokenId][indexBid];\r\n        require(ownerOf(tokenId) != bid.bidder, 'You can not accept your bids');\r\n        require(token.balanceOf(bid.bidder) >= bid.amount, 'The bidder does not have enough PTNT');\r\n        emit PatentAssignment(tokenId, msg.sender, bid.bidder);\r\n        token.transfer(bid.bidder, msg.sender, bid.amount);\r\n        safeTransferFrom(msg.sender, bid.bidder, tokenId);\r\n        clearBids(tokenId);\r\n    }\r\n\r\n    function makeBid(uint patentId, uint amount) public{\r\n        require(msg.sender != ownerOf(patentId),'You are already the owner of the patent');\r\n        require(token.balanceOf(msg.sender) >= amount, 'You do not have enough PTNT');\r\n        Bid memory bid = Bid({\r\n            bidder: msg.sender,\r\n            amount: amount,\r\n            state: State.Pending\r\n        });\r\n        bids[patentId].push(bid);\r\n        emit MakeBid(patentId, ownerOf(patentId), msg.sender);\r\n    }\r\n\r\n    function clearBids(uint patentId) internal {\r\n        while(bids[patentId].length > 0){\r\n            bids[patentId].pop();\r\n        }\r\n    }\r\n\r\n\r\n}",
  "sourcePath": "C:\\Users\\Paolo\\OneDrive\\Documenti\\testBlockchain\\PatentLink\\patent\\contracts\\PatentNFT.sol",
  "compiler": {
    "name": "solc",
    "version": "0.8.2+commit.661d1103.Emscripten.clang"
  },
  "schemaVersion": "3.4.16",
  "updatedAt": "2024-01-16T13:39:41.835Z",
  "devdoc": {
    "author": "Carolina Proietti, Edoardo Giuggioloni, Paolo Marchignoli, Ruben Seror ",
    "kind": "dev",
    "methods": {
      "approve(address,uint256)": {
        "details": "See {IERC721-approve}."
      },
      "balanceOf(address)": {
        "details": "See {IERC721-balanceOf}."
      },
      "filePatent(string)": {
        "params": {
          "_uri": "URI of the filed Patent in IPFS"
        }
      },
      "getApproved(uint256)": {
        "details": "See {IERC721-getApproved}."
      },
      "getPatentprice(uint256)": {
        "params": {
          "patentId": "id of the nft associated to the patent"
        }
      },
      "isApprovedForAll(address,address)": {
        "details": "See {IERC721-isApprovedForAll}."
      },
      "name()": {
        "details": "See {IERC721Metadata-name}."
      },
      "ownerOf(uint256)": {
        "details": "See {IERC721-ownerOf}."
      },
      "safeTransferFrom(address,address,uint256)": {
        "details": "See {IERC721-safeTransferFrom}."
      },
      "safeTransferFrom(address,address,uint256,bytes)": {
        "details": "See {IERC721-safeTransferFrom}."
      },
      "setApprovalForAll(address,bool)": {
        "details": "See {IERC721-setApprovalForAll}."
      },
      "setPatentForSale(uint256,uint256)": {
        "params": {
          "patentId": "nft id of the patent"
        }
      },
      "setPatentNotForSale(uint256)": {
        "params": {
          "patentId": "nft id of the patent"
        }
      },
      "supportsInterface(bytes4)": {
        "details": "See {IERC165-supportsInterface}."
      },
      "symbol()": {
        "details": "See {IERC721Metadata-symbol}."
      },
      "tokenURI(uint256)": {
        "details": "See {IERC721Metadata-tokenURI}."
      },
      "transferFrom(address,address,uint256)": {
        "details": "See {IERC721-transferFrom}."
      }
    },
    "title": "PatentNFT contract",
    "version": 1
  },
  "userdoc": {
    "kind": "user",
    "methods": {
      "filePatent(string)": {
        "notice": "method that allow user to file their patents"
      },
      "getPatentprice(uint256)": {
        "notice": "return the price in PTNT of a specific patent"
      },
      "getTokenCount()": {
        "notice": "return number of filed patents"
      },
      "setPatentForSale(uint256,uint256)": {
        "notice": "user can put the patent up for sale"
      },
      "setPatentNotForSale(uint256)": {
        "notice": "user can remove the patent from sale"
      }
    },
    "notice": "You can use this contract to file patent, buy and sell associated NFTs",
    "version": 1
  }
}