{
  "contractName": "PatentToken",
  "abi": [
    {
      "inputs": [
        {
          "internalType": "uint256",
          "name": "_filingFee",
          "type": "uint256"
        }
      ],
      "stateMutability": "nonpayable",
      "type": "constructor"
    },
    {
      "anonymous": false,
      "inputs": [
        {
          "indexed": true,
          "internalType": "address",
          "name": "owner",
          "type": "address"
        },
        {
          "indexed": true,
          "internalType": "address",
          "name": "spender",
          "type": "address"
        },
        {
          "indexed": false,
          "internalType": "uint256",
          "name": "value",
          "type": "uint256"
        }
      ],
      "name": "Approval",
      "type": "event"
    },
    {
      "anonymous": false,
      "inputs": [
        {
          "indexed": true,
          "internalType": "address",
          "name": "buyer",
          "type": "address"
        },
        {
          "indexed": false,
          "internalType": "uint256",
          "name": "value",
          "type": "uint256"
        }
      ],
      "name": "BuyPTNT",
      "type": "event"
    },
    {
      "anonymous": false,
      "inputs": [
        {
          "indexed": true,
          "internalType": "address",
          "name": "seller",
          "type": "address"
        },
        {
          "indexed": false,
          "internalType": "uint256",
          "name": "value",
          "type": "uint256"
        }
      ],
      "name": "SellPTNT",
      "type": "event"
    },
    {
      "anonymous": false,
      "inputs": [
        {
          "indexed": true,
          "internalType": "address",
          "name": "from",
          "type": "address"
        },
        {
          "indexed": true,
          "internalType": "address",
          "name": "to",
          "type": "address"
        },
        {
          "indexed": false,
          "internalType": "uint256",
          "name": "value",
          "type": "uint256"
        }
      ],
      "name": "Transfer",
      "type": "event"
    },
    {
      "inputs": [
        {
          "internalType": "address",
          "name": "owner",
          "type": "address"
        },
        {
          "internalType": "address",
          "name": "spender",
          "type": "address"
        }
      ],
      "name": "allowance",
      "outputs": [
        {
          "internalType": "uint256",
          "name": "",
          "type": "uint256"
        }
      ],
      "stateMutability": "view",
      "type": "function",
      "constant": true
    },
    {
      "inputs": [
        {
          "internalType": "address",
          "name": "spender",
          "type": "address"
        },
        {
          "internalType": "uint256",
          "name": "amount",
          "type": "uint256"
        }
      ],
      "name": "approve",
      "outputs": [
        {
          "internalType": "bool",
          "name": "",
          "type": "bool"
        }
      ],
      "stateMutability": "nonpayable",
      "type": "function"
    },
    {
      "inputs": [
        {
          "internalType": "address",
          "name": "account",
          "type": "address"
        }
      ],
      "name": "balanceOf",
      "outputs": [
        {
          "internalType": "uint256",
          "name": "",
          "type": "uint256"
        }
      ],
      "stateMutability": "view",
      "type": "function",
      "constant": true
    },
    {
      "inputs": [],
      "name": "decimals",
      "outputs": [
        {
          "internalType": "uint8",
          "name": "",
          "type": "uint8"
        }
      ],
      "stateMutability": "view",
      "type": "function",
      "constant": true
    },
    {
      "inputs": [
        {
          "internalType": "address",
          "name": "spender",
          "type": "address"
        },
        {
          "internalType": "uint256",
          "name": "subtractedValue",
          "type": "uint256"
        }
      ],
      "name": "decreaseAllowance",
      "outputs": [
        {
          "internalType": "bool",
          "name": "",
          "type": "bool"
        }
      ],
      "stateMutability": "nonpayable",
      "type": "function"
    },
    {
      "inputs": [],
      "name": "filingFee",
      "outputs": [
        {
          "internalType": "uint256",
          "name": "",
          "type": "uint256"
        }
      ],
      "stateMutability": "view",
      "type": "function",
      "constant": true
    },
    {
      "inputs": [
        {
          "internalType": "address",
          "name": "spender",
          "type": "address"
        },
        {
          "internalType": "uint256",
          "name": "addedValue",
          "type": "uint256"
        }
      ],
      "name": "increaseAllowance",
      "outputs": [
        {
          "internalType": "bool",
          "name": "",
          "type": "bool"
        }
      ],
      "stateMutability": "nonpayable",
      "type": "function"
    },
    {
      "inputs": [],
      "name": "name",
      "outputs": [
        {
          "internalType": "string",
          "name": "",
          "type": "string"
        }
      ],
      "stateMutability": "view",
      "type": "function",
      "constant": true
    },
    {
      "inputs": [],
      "name": "owner",
      "outputs": [
        {
          "internalType": "address",
          "name": "",
          "type": "address"
        }
      ],
      "stateMutability": "view",
      "type": "function",
      "constant": true
    },
    {
      "inputs": [],
      "name": "symbol",
      "outputs": [
        {
          "internalType": "string",
          "name": "",
          "type": "string"
        }
      ],
      "stateMutability": "view",
      "type": "function",
      "constant": true
    },
    {
      "inputs": [],
      "name": "totalSupply",
      "outputs": [
        {
          "internalType": "uint256",
          "name": "",
          "type": "uint256"
        }
      ],
      "stateMutability": "view",
      "type": "function",
      "constant": true
    },
    {
      "inputs": [
        {
          "internalType": "address",
          "name": "sender",
          "type": "address"
        },
        {
          "internalType": "address",
          "name": "recipient",
          "type": "address"
        },
        {
          "internalType": "uint256",
          "name": "amount",
          "type": "uint256"
        }
      ],
      "name": "transferFrom",
      "outputs": [
        {
          "internalType": "bool",
          "name": "",
          "type": "bool"
        }
      ],
      "stateMutability": "nonpayable",
      "type": "function"
    },
    {
      "inputs": [
        {
          "internalType": "uint256",
          "name": "amount",
          "type": "uint256"
        }
      ],
      "name": "buyToken",
      "outputs": [],
      "stateMutability": "payable",
      "type": "function",
      "payable": true
    },
    {
      "inputs": [
        {
          "internalType": "uint256",
          "name": "amount",
          "type": "uint256"
        }
      ],
      "name": "sellToken",
      "outputs": [],
      "stateMutability": "nonpayable",
      "type": "function"
    },
    {
      "inputs": [
        {
          "internalType": "address",
          "name": "_sender",
          "type": "address"
        }
      ],
      "name": "payFilingFee",
      "outputs": [
        {
          "internalType": "bool",
          "name": "",
          "type": "bool"
        }
      ],
      "stateMutability": "nonpayable",
      "type": "function"
    },
    {
      "inputs": [
        {
          "internalType": "uint256",
          "name": "amount",
          "type": "uint256"
        }
      ],
      "name": "setFilingFee",
      "outputs": [],
      "stateMutability": "nonpayable",
      "type": "function"
    },
    {
      "inputs": [],
      "name": "getFilingFee",
      "outputs": [
        {
          "internalType": "uint256",
          "name": "",
          "type": "uint256"
        }
      ],
      "stateMutability": "view",
      "type": "function",
      "constant": true
    },
    {
      "inputs": [
        {
          "internalType": "uint256",
          "name": "amount",
          "type": "uint256"
        }
      ],
      "name": "mint",
      "outputs": [],
      "stateMutability": "nonpayable",
      "type": "function"
    },
    {
      "inputs": [
        {
          "internalType": "address",
          "name": "_newOwner",
          "type": "address"
        }
      ],
      "name": "changeOwner",
      "outputs": [],
      "stateMutability": "nonpayable",
      "type": "function"
    },
    {
      "inputs": [
        {
          "internalType": "address",
          "name": "recipient",
          "type": "address"
        },
        {
          "internalType": "uint256",
          "name": "amount",
          "type": "uint256"
        }
      ],
      "name": "transfer",
      "outputs": [
        {
          "internalType": "bool",
          "name": "",
          "type": "bool"
        }
      ],
      "stateMutability": "nonpayable",
      "type": "function"
    },
    {
      "inputs": [
        {
          "internalType": "address",
          "name": "from",
          "type": "address"
        },
        {
          "internalType": "address",
          "name": "to",
          "type": "address"
        },
        {
          "internalType": "uint256",
          "name": "amount",
          "type": "uint256"
        }
      ],
      "name": "transfer",
      "outputs": [
        {
          "internalType": "bool",
          "name": "",
          "type": "bool"
        }
      ],
      "stateMutability": "nonpayable",
      "type": "function"
    }
  ],
  "bytecode": "0x60806040523480156200001157600080fd5b5060405162002b8f38038062002b8f8339818101604052810190620000379190620003da565b6040518060400160405280600b81526020017f506174656e74546f6b656e0000000000000000000000000000000000000000008152506040518060400160405280600481526020017f50544e54000000000000000000000000000000000000000000000000000000008152508160039080519060200190620000bb92919062000313565b508060049080519060200190620000d492919062000313565b50505033600560006101000a81548173ffffffffffffffffffffffffffffffffffffffff021916908373ffffffffffffffffffffffffffffffffffffffff1602179055508060068190555062000180600560009054906101000a900473ffffffffffffffffffffffffffffffffffffffff16620001566200018760201b60201c565b600a62000164919062000546565b620186a062000174919062000683565b6200019060201b60201c565b50620007df565b60006012905090565b600073ffffffffffffffffffffffffffffffffffffffff168273ffffffffffffffffffffffffffffffffffffffff16141562000203576040517f08c379a0000000000000000000000000000000000000000000000000000000008152600401620001fa906200043e565b60405180910390fd5b62000217600083836200030960201b60201c565b80600260008282546200022b91906200048e565b92505081905550806000808473ffffffffffffffffffffffffffffffffffffffff1673ffffffffffffffffffffffffffffffffffffffff16815260200190815260200160002060008282546200028291906200048e565b925050819055508173ffffffffffffffffffffffffffffffffffffffff16600073ffffffffffffffffffffffffffffffffffffffff167fddf252ad1be2c89b69c2b068fc378daa952ba7f163c4a11628f55a4df523b3ef83604051620002e9919062000460565b60405180910390a362000305600083836200030e60201b60201c565b5050565b505050565b505050565b8280546200032190620006fb565b90600052602060002090601f01602090048101928262000345576000855562000391565b82601f106200036057805160ff191683800117855562000391565b8280016001018555821562000391579182015b828111156200039057825182559160200191906001019062000373565b5b509050620003a09190620003a4565b5090565b5b80821115620003bf576000816000905550600101620003a5565b5090565b600081519050620003d481620007c5565b92915050565b600060208284031215620003ed57600080fd5b6000620003fd84828501620003c3565b91505092915050565b600062000415601f836200047d565b915062000422826200079c565b602082019050919050565b6200043881620006e4565b82525050565b60006020820190508181036000830152620004598162000406565b9050919050565b60006020820190506200047760008301846200042d565b92915050565b600082825260208201905092915050565b60006200049b82620006e4565b9150620004a883620006e4565b9250827fffffffffffffffffffffffffffffffffffffffffffffffffffffffffffffffff03821115620004e057620004df62000731565b5b828201905092915050565b6000808291508390505b60018511156200053d5780860481111562000515576200051462000731565b5b6001851615620005255780820291505b808102905062000535856200078f565b9450620004f5565b94509492505050565b60006200055382620006e4565b91506200056083620006ee565b92506200058f7fffffffffffffffffffffffffffffffffffffffffffffffffffffffffffffffff848462000597565b905092915050565b600082620005a957600190506200067c565b81620005b957600090506200067c565b8160018114620005d25760028114620005dd5762000613565b60019150506200067c565b60ff841115620005f257620005f162000731565b5b8360020a9150848211156200060c576200060b62000731565b5b506200067c565b5060208310610133831016604e8410600b84101617156200064d5782820a90508381111562000647576200064662000731565b5b6200067c565b6200065c8484846001620004eb565b9250905081840481111562000676576200067562000731565b5b81810290505b9392505050565b60006200069082620006e4565b91506200069d83620006e4565b9250817fffffffffffffffffffffffffffffffffffffffffffffffffffffffffffffffff0483118215151615620006d957620006d862000731565b5b828202905092915050565b6000819050919050565b600060ff82169050919050565b600060028204905060018216806200071457607f821691505b602082108114156200072b576200072a62000760565b5b50919050565b7f4e487b7100000000000000000000000000000000000000000000000000000000600052601160045260246000fd5b7f4e487b7100000000000000000000000000000000000000000000000000000000600052602260045260246000fd5b60008160011c9050919050565b7f45524332303a206d696e7420746f20746865207a65726f206164647265737300600082015250565b620007d081620006e4565b8114620007dc57600080fd5b50565b6123a080620007ef6000396000f3fe60806040526004361061012a5760003560e01c806373169cf8116100ab578063a0712d681161006f578063a0712d68146103fb578063a457c2d714610424578063a6f9dae114610461578063a9059cbb1461048a578063beabacc8146104c7578063dd62ed3e146105045761012a565b806373169cf8146103145780637f5db3e81461033f5780638da5cb5b1461037c57806395d89b41146103a757806399f0eed5146103d25761012a565b80632d296bf1116100f25780632d296bf114610228578063313ce56714610244578063395093511461026f57806364d5092b146102ac57806370a08231146102d75761012a565b806306fdde031461012f578063095ea7b31461015a57806318160ddd146101975780632397e4d7146101c257806323b872dd146101eb575b600080fd5b34801561013b57600080fd5b50610144610541565b6040516101519190611a1d565b60405180910390f35b34801561016657600080fd5b50610181600480360381019061017c9190611723565b6105d3565b60405161018e9190611a02565b60405180910390f35b3480156101a357600080fd5b506101ac6105f1565b6040516101b99190611bff565b60405180910390f35b3480156101ce57600080fd5b506101e960048036038101906101e4919061175f565b6105fb565b005b3480156101f757600080fd5b50610212600480360381019061020d91906116d4565b61074e565b60405161021f9190611a02565b60405180910390f35b610242600480360381019061023d919061175f565b610846565b005b34801561025057600080fd5b506102596109b7565b6040516102669190611c1a565b60405180910390f35b34801561027b57600080fd5b5061029660048036038101906102919190611723565b6109c0565b6040516102a39190611a02565b60405180910390f35b3480156102b857600080fd5b506102c1610a6c565b6040516102ce9190611bff565b60405180910390f35b3480156102e357600080fd5b506102fe60048036038101906102f9919061166f565b610a76565b60405161030b9190611bff565b60405180910390f35b34801561032057600080fd5b50610329610abe565b6040516103369190611bff565b60405180910390f35b34801561034b57600080fd5b506103666004803603810190610361919061166f565b610ac4565b6040516103739190611a02565b60405180910390f35b34801561038857600080fd5b50610391610b4b565b60405161039e91906119e7565b60405180910390f35b3480156103b357600080fd5b506103bc610b71565b6040516103c99190611a1d565b60405180910390f35b3480156103de57600080fd5b506103f960048036038101906103f4919061175f565b610c03565b005b34801561040757600080fd5b50610422600480360381019061041d919061175f565b610c9d565b005b34801561043057600080fd5b5061044b60048036038101906104469190611723565b610d7a565b6040516104589190611a02565b60405180910390f35b34801561046d57600080fd5b506104886004803603810190610483919061166f565b610e65565b005b34801561049657600080fd5b506104b160048036038101906104ac9190611723565b610fca565b6040516104be9190611a02565b60405180910390f35b3480156104d357600080fd5b506104ee60048036038101906104e991906116d4565b610fe8565b6040516104fb9190611a02565b60405180910390f35b34801561051057600080fd5b5061052b60048036038101906105269190611698565b611000565b6040516105389190611bff565b60405180910390f35b60606003805461055090611efa565b80601f016020809104026020016040519081016040528092919081815260200182805461057c90611efa565b80156105c95780601f1061059e576101008083540402835291602001916105c9565b820191906000526020600020905b8154815290600101906020018083116105ac57829003601f168201915b5050505050905090565b60006105e76105e0611087565b848461108f565b6001905092915050565b6000600254905090565b6000811161063e576040517f08c379a000000000000000000000000000000000000000000000000000000000815260040161063590611b9f565b60405180910390fd5b8061064833610a76565b1015610689576040517f08c379a000000000000000000000000000000000000000000000000000000000815260040161068090611adf565b60405180910390fd5b3373ffffffffffffffffffffffffffffffffffffffff167f9fef8f371a1f201ae0bdcba6e201607258bd7d95ff1d21f0ba2b45d42d90a9ff826040516106cf9190611bff565b60405180910390a23373ffffffffffffffffffffffffffffffffffffffff166108fc829081150290604051600060405180830381858888f1935050505015801561071d573d6000803e3d6000fd5b5061074b33600560009054906101000a900473ffffffffffffffffffffffffffffffffffffffff168361125a565b50565b600061075b84848461125a565b6000600160008673ffffffffffffffffffffffffffffffffffffffff1673ffffffffffffffffffffffffffffffffffffffff16815260200190815260200160002060006107a6611087565b73ffffffffffffffffffffffffffffffffffffffff1673ffffffffffffffffffffffffffffffffffffffff16815260200190815260200160002054905082811015610826576040517f08c379a000000000000000000000000000000000000000000000000000000000815260040161081d90611aff565b60405180910390fd5b61083a85610832611087565b85840361108f565b60019150509392505050565b60008111610889576040517f08c379a000000000000000000000000000000000000000000000000000000000815260040161088090611b9f565b60405180910390fd5b806108b5600560009054906101000a900473ffffffffffffffffffffffffffffffffffffffff16610a76565b10156108f6576040517f08c379a00000000000000000000000000000000000000000000000000000000081526004016108ed90611b1f565b60405180910390fd5b80341015610939576040517f08c379a000000000000000000000000000000000000000000000000000000000815260040161093090611b3f565b60405180910390fd5b3373ffffffffffffffffffffffffffffffffffffffff167f67e144813a3bb1a1aa250e38ebaad29e0f91d69b08e28fbd81c88e21da8166d08260405161097f9190611bff565b60405180910390a26109b4600560009054906101000a900473ffffffffffffffffffffffffffffffffffffffff16338361125a565b50565b60006012905090565b6000610a626109cd611087565b8484600160006109db611087565b73ffffffffffffffffffffffffffffffffffffffff1673ffffffffffffffffffffffffffffffffffffffff16815260200190815260200160002060008873ffffffffffffffffffffffffffffffffffffffff1673ffffffffffffffffffffffffffffffffffffffff16815260200190815260200160002054610a5d9190611c51565b61108f565b6001905092915050565b6000600654905090565b60008060008373ffffffffffffffffffffffffffffffffffffffff1673ffffffffffffffffffffffffffffffffffffffff168152602001908152602001600020549050919050565b60065481565b6000600654610ad283610a76565b1015610b13576040517f08c379a0000000000000000000000000000000000000000000000000000000008152600401610b0a90611abf565b60405180910390fd5b610b4282600560009054906101000a900473ffffffffffffffffffffffffffffffffffffffff1660065461125a565b60019050919050565b600560009054906101000a900473ffffffffffffffffffffffffffffffffffffffff1681565b606060048054610b8090611efa565b80601f0160208091040260200160405190810160405280929190818152602001828054610bac90611efa565b8015610bf95780601f10610bce57610100808354040283529160200191610bf9565b820191906000526020600020905b815481529060010190602001808311610bdc57829003601f168201915b5050505050905090565b600560009054906101000a900473ffffffffffffffffffffffffffffffffffffffff1673ffffffffffffffffffffffffffffffffffffffff163373ffffffffffffffffffffffffffffffffffffffff1614610c93576040517f08c379a0000000000000000000000000000000000000000000000000000000008152600401610c8a90611a5f565b60405180910390fd5b8060068190555050565b600560009054906101000a900473ffffffffffffffffffffffffffffffffffffffff1673ffffffffffffffffffffffffffffffffffffffff163373ffffffffffffffffffffffffffffffffffffffff1614610d2d576040517f08c379a0000000000000000000000000000000000000000000000000000000008152600401610d2490611a5f565b60405180910390fd5b610d77600560009054906101000a900473ffffffffffffffffffffffffffffffffffffffff16610d5b6109b7565b600a610d679190611cfa565b83610d729190611e18565b6114db565b50565b60008060016000610d89611087565b73ffffffffffffffffffffffffffffffffffffffff1673ffffffffffffffffffffffffffffffffffffffff16815260200190815260200160002060008573ffffffffffffffffffffffffffffffffffffffff1673ffffffffffffffffffffffffffffffffffffffff16815260200190815260200160002054905082811015610e46576040517f08c379a0000000000000000000000000000000000000000000000000000000008152600401610e3d90611bbf565b60405180910390fd5b610e5a610e51611087565b8585840361108f565b600191505092915050565b600560009054906101000a900473ffffffffffffffffffffffffffffffffffffffff1673ffffffffffffffffffffffffffffffffffffffff163373ffffffffffffffffffffffffffffffffffffffff1614610ef5576040517f08c379a0000000000000000000000000000000000000000000000000000000008152600401610eec90611a5f565b60405180910390fd5b600073ffffffffffffffffffffffffffffffffffffffff168173ffffffffffffffffffffffffffffffffffffffff161415610f2f57600080fd5b610f86600560009054906101000a900473ffffffffffffffffffffffffffffffffffffffff1682610f81600560009054906101000a900473ffffffffffffffffffffffffffffffffffffffff16610a76565b61125a565b80600560006101000a81548173ffffffffffffffffffffffffffffffffffffffff021916908373ffffffffffffffffffffffffffffffffffffffff16021790555050565b6000610fde610fd7611087565b848461125a565b6001905092915050565b6000610ff584848461125a565b600190509392505050565b6000600160008473ffffffffffffffffffffffffffffffffffffffff1673ffffffffffffffffffffffffffffffffffffffff16815260200190815260200160002060008373ffffffffffffffffffffffffffffffffffffffff1673ffffffffffffffffffffffffffffffffffffffff16815260200190815260200160002054905092915050565b600033905090565b600073ffffffffffffffffffffffffffffffffffffffff168373ffffffffffffffffffffffffffffffffffffffff1614156110ff576040517f08c379a00000000000000000000000000000000000000000000000000000000081526004016110f690611b7f565b60405180910390fd5b600073ffffffffffffffffffffffffffffffffffffffff168273ffffffffffffffffffffffffffffffffffffffff16141561116f576040517f08c379a000000000000000000000000000000000000000000000000000000000815260040161116690611a7f565b60405180910390fd5b80600160008573ffffffffffffffffffffffffffffffffffffffff1673ffffffffffffffffffffffffffffffffffffffff16815260200190815260200160002060008473ffffffffffffffffffffffffffffffffffffffff1673ffffffffffffffffffffffffffffffffffffffff168152602001908152602001600020819055508173ffffffffffffffffffffffffffffffffffffffff168373ffffffffffffffffffffffffffffffffffffffff167f8c5be1e5ebec7d5bd14f71427d1e84f3dd0314c0f7b2291e5b200ac8c7c3b9258360405161124d9190611bff565b60405180910390a3505050565b600073ffffffffffffffffffffffffffffffffffffffff168373ffffffffffffffffffffffffffffffffffffffff1614156112ca576040517f08c379a00000000000000000000000000000000000000000000000000000000081526004016112c190611b5f565b60405180910390fd5b600073ffffffffffffffffffffffffffffffffffffffff168273ffffffffffffffffffffffffffffffffffffffff16141561133a576040517f08c379a000000000000000000000000000000000000000000000000000000000815260040161133190611a3f565b60405180910390fd5b61134583838361163b565b60008060008573ffffffffffffffffffffffffffffffffffffffff1673ffffffffffffffffffffffffffffffffffffffff168152602001908152602001600020549050818110156113cb576040517f08c379a00000000000000000000000000000000000000000000000000000000081526004016113c290611a9f565b60405180910390fd5b8181036000808673ffffffffffffffffffffffffffffffffffffffff1673ffffffffffffffffffffffffffffffffffffffff16815260200190815260200160002081905550816000808573ffffffffffffffffffffffffffffffffffffffff1673ffffffffffffffffffffffffffffffffffffffff168152602001908152602001600020600082825461145e9190611c51565b925050819055508273ffffffffffffffffffffffffffffffffffffffff168473ffffffffffffffffffffffffffffffffffffffff167fddf252ad1be2c89b69c2b068fc378daa952ba7f163c4a11628f55a4df523b3ef846040516114c29190611bff565b60405180910390a36114d5848484611640565b50505050565b600073ffffffffffffffffffffffffffffffffffffffff168273ffffffffffffffffffffffffffffffffffffffff16141561154b576040517f08c379a000000000000000000000000000000000000000000000000000000000815260040161154290611bdf565b60405180910390fd5b6115576000838361163b565b80600260008282546115699190611c51565b92505081905550806000808473ffffffffffffffffffffffffffffffffffffffff1673ffffffffffffffffffffffffffffffffffffffff16815260200190815260200160002060008282546115be9190611c51565b925050819055508173ffffffffffffffffffffffffffffffffffffffff16600073ffffffffffffffffffffffffffffffffffffffff167fddf252ad1be2c89b69c2b068fc378daa952ba7f163c4a11628f55a4df523b3ef836040516116239190611bff565b60405180910390a361163760008383611640565b5050565b505050565b505050565b6000813590506116548161233c565b92915050565b60008135905061166981612353565b92915050565b60006020828403121561168157600080fd5b600061168f84828501611645565b91505092915050565b600080604083850312156116ab57600080fd5b60006116b985828601611645565b92505060206116ca85828601611645565b9150509250929050565b6000806000606084860312156116e957600080fd5b60006116f786828701611645565b935050602061170886828701611645565b92505060406117198682870161165a565b9150509250925092565b6000806040838503121561173657600080fd5b600061174485828601611645565b92505060206117558582860161165a565b9150509250929050565b60006020828403121561177157600080fd5b600061177f8482850161165a565b91505092915050565b61179181611e72565b82525050565b6117a081611e84565b82525050565b60006117b182611c35565b6117bb8185611c40565b93506117cb818560208601611ec7565b6117d481611f8a565b840191505092915050565b60006117ec602383611c40565b91506117f782611fa8565b604082019050919050565b600061180f601983611c40565b915061181a82611ff7565b602082019050919050565b6000611832602283611c40565b915061183d82612020565b604082019050919050565b6000611855602683611c40565b91506118608261206f565b604082019050919050565b6000611878602183611c40565b9150611883826120be565b604082019050919050565b600061189b602383611c40565b91506118a68261210d565b604082019050919050565b60006118be602883611c40565b91506118c98261215c565b604082019050919050565b60006118e1601e83611c40565b91506118ec826121ab565b602082019050919050565b6000611904601a83611c40565b915061190f826121d4565b602082019050919050565b6000611927602583611c40565b9150611932826121fd565b604082019050919050565b600061194a602483611c40565b91506119558261224c565b604082019050919050565b600061196d601f83611c40565b91506119788261229b565b602082019050919050565b6000611990602583611c40565b915061199b826122c4565b604082019050919050565b60006119b3601f83611c40565b91506119be82612313565b602082019050919050565b6119d281611eb0565b82525050565b6119e181611eba565b82525050565b60006020820190506119fc6000830184611788565b92915050565b6000602082019050611a176000830184611797565b92915050565b60006020820190508181036000830152611a3781846117a6565b905092915050565b60006020820190508181036000830152611a58816117df565b9050919050565b60006020820190508181036000830152611a7881611802565b9050919050565b60006020820190508181036000830152611a9881611825565b9050919050565b60006020820190508181036000830152611ab881611848565b9050919050565b60006020820190508181036000830152611ad88161186b565b9050919050565b60006020820190508181036000830152611af88161188e565b9050919050565b60006020820190508181036000830152611b18816118b1565b9050919050565b60006020820190508181036000830152611b38816118d4565b9050919050565b60006020820190508181036000830152611b58816118f7565b9050919050565b60006020820190508181036000830152611b788161191a565b9050919050565b60006020820190508181036000830152611b988161193d565b9050919050565b60006020820190508181036000830152611bb881611960565b9050919050565b60006020820190508181036000830152611bd881611983565b9050919050565b60006020820190508181036000830152611bf8816119a6565b9050919050565b6000602082019050611c1460008301846119c9565b92915050565b6000602082019050611c2f60008301846119d8565b92915050565b600081519050919050565b600082825260208201905092915050565b6000611c5c82611eb0565b9150611c6783611eb0565b9250827fffffffffffffffffffffffffffffffffffffffffffffffffffffffffffffffff03821115611c9c57611c9b611f2c565b5b828201905092915050565b6000808291508390505b6001851115611cf157808604811115611ccd57611ccc611f2c565b5b6001851615611cdc5780820291505b8081029050611cea85611f9b565b9450611cb1565b94509492505050565b6000611d0582611eb0565b9150611d1083611eba565b9250611d3d7fffffffffffffffffffffffffffffffffffffffffffffffffffffffffffffffff8484611d45565b905092915050565b600082611d555760019050611e11565b81611d635760009050611e11565b8160018114611d795760028114611d8357611db2565b6001915050611e11565b60ff841115611d9557611d94611f2c565b5b8360020a915084821115611dac57611dab611f2c565b5b50611e11565b5060208310610133831016604e8410600b8410161715611de75782820a905083811115611de257611de1611f2c565b5b611e11565b611df48484846001611ca7565b92509050818404811115611e0b57611e0a611f2c565b5b81810290505b9392505050565b6000611e2382611eb0565b9150611e2e83611eb0565b9250817fffffffffffffffffffffffffffffffffffffffffffffffffffffffffffffffff0483118215151615611e6757611e66611f2c565b5b828202905092915050565b6000611e7d82611e90565b9050919050565b60008115159050919050565b600073ffffffffffffffffffffffffffffffffffffffff82169050919050565b6000819050919050565b600060ff82169050919050565b60005b83811015611ee5578082015181840152602081019050611eca565b83811115611ef4576000848401525b50505050565b60006002820490506001821680611f1257607f821691505b60208210811415611f2657611f25611f5b565b5b50919050565b7f4e487b7100000000000000000000000000000000000000000000000000000000600052601160045260246000fd5b7f4e487b7100000000000000000000000000000000000000000000000000000000600052602260045260246000fd5b6000601f19601f8301169050919050565b60008160011c9050919050565b7f45524332303a207472616e7366657220746f20746865207a65726f206164647260008201527f6573730000000000000000000000000000000000000000000000000000000000602082015250565b7f4f6e6c79206f776e65722063616e2063616c6c20746869732e00000000000000600082015250565b7f45524332303a20617070726f766520746f20746865207a65726f20616464726560008201527f7373000000000000000000000000000000000000000000000000000000000000602082015250565b7f45524332303a207472616e7366657220616d6f756e742065786365656473206260008201527f616c616e63650000000000000000000000000000000000000000000000000000602082015250565b7f4e6f7420656e6f7567682050544e5420746f207061792066696c696e6720666560008201527f6500000000000000000000000000000000000000000000000000000000000000602082015250565b7f596f7520646f206e6f742068617665207468617420616d6f756e74206f66205060008201527f544e540000000000000000000000000000000000000000000000000000000000602082015250565b7f45524332303a207472616e7366657220616d6f756e742065786365656473206160008201527f6c6c6f77616e6365000000000000000000000000000000000000000000000000602082015250565b7f4e6f7420656e6f7567682050544e5420696e207468652065636f6e6f6d790000600082015250565b7f4e6f7420656e6f7567682045544820746f206275792050544e54000000000000600082015250565b7f45524332303a207472616e736665722066726f6d20746865207a65726f20616460008201527f6472657373000000000000000000000000000000000000000000000000000000602082015250565b7f45524332303a20617070726f76652066726f6d20746865207a65726f2061646460008201527f7265737300000000000000000000000000000000000000000000000000000000602082015250565b7f4e6f20616d6f756e74206f662050544e54206172652073706563696669656400600082015250565b7f45524332303a2064656372656173656420616c6c6f77616e63652062656c6f7760008201527f207a65726f000000000000000000000000000000000000000000000000000000602082015250565b7f45524332303a206d696e7420746f20746865207a65726f206164647265737300600082015250565b61234581611e72565b811461235057600080fd5b50565b61235c81611eb0565b811461236757600080fd5b5056fea264697066735822122001c30906b5bccc77d0fcc05e58c1a27690b5f317a34d1e169bc651929394766764736f6c63430008020033",
  "immutableReferences": {},
  "source": "// SPDX-License-Identifier: MIT\r\npragma solidity >=0.4.22 <0.9.0;\r\n\r\nimport \"@openzeppelin/contracts/token/ERC20/ERC20.sol\";\r\n\r\n\r\n/// @title Patent Token contract\r\n/// @author Carolina Proietti, Edoardo Giuggioloni, Paolo Marchignoli, Ruben Seror \r\n/// @notice You can use this contract to buy and sell PTNT, see accounts balances\r\ncontract PatentToken is ERC20{\r\n\r\n    address public owner;\r\n    uint public filingFee;\r\n    \r\n    event BuyPTNT(address indexed buyer, uint value);\r\n    event SellPTNT(address indexed seller, uint value);\r\n\r\n    /// @notice  throws an error if the msg.sender is not the owner.\r\n    modifier onlyOwner() {\r\n        require(msg.sender == owner, \"Only owner can call this.\");\r\n        _;\r\n    }\r\n   \r\n\r\n\r\n    constructor(uint _filingFee)\r\n        ERC20(\"PatentToken\", \"PTNT\") {\r\n            owner = msg.sender;\r\n            filingFee = _filingFee;\r\n            _mint(owner, 100000 * (10 ** decimals()));\r\n        }\r\n\r\n    ///@notice It allows sender to purchase PTNT\r\n    ///@param amount amount of PTNT to purchase\r\n    function buyToken(uint amount) public payable{\r\n        require(amount > 0, 'No amount of PTNT are specified');\r\n        require(balanceOf(owner) >= amount, 'Not enough PTNT in the economy');\r\n        require(msg.value >= amount,'Not enough ETH to buy PTNT');\r\n        emit BuyPTNT(msg.sender, amount);\r\n        _transfer(owner,msg.sender,amount);\r\n    }\r\n\r\n    ///@notice It allows sender to convert PTNT into ETH\r\n    ///@param amount amount of PTNT to sell  \r\n    function sellToken(uint amount) public{\r\n        require(amount > 0, 'No amount of PTNT are specified');\r\n        require(balanceOf(msg.sender) >= amount, 'You do not have that amount of PTNT');\r\n        emit SellPTNT(msg.sender,amount);\r\n        payable(msg.sender).transfer(amount);\r\n        _transfer(msg.sender, owner, amount);\r\n\r\n    }\r\n\r\n    ///@notice Sender pay filingFee to file patent\r\n    ///@param _sender address of account which pay the fee\r\n    function payFilingFee(address _sender) external returns(bool){\r\n        require(balanceOf(_sender) >= filingFee,'Not enough PTNT to pay filing fee');\r\n        _transfer(_sender, owner, filingFee);\r\n        return true;\r\n    }\r\n\r\n    ///@notice set the price of filing fee\r\n    ///@param amount new price of filing fee\r\n    function setFilingFee(uint amount) public onlyOwner{\r\n        filingFee = amount;\r\n    }\r\n\r\n    function getFilingFee() public view returns(uint){\r\n        return filingFee;\r\n    }\r\n\r\n    ///@notice emit PTNT \r\n    ///@param amount amount of PTNT minted\r\n    function mint(uint amount) public onlyOwner{\r\n        _mint(owner, amount * (10 ** decimals()));\r\n    }\r\n\r\n    function changeOwner(address _newOwner) public onlyOwner{\r\n        require(_newOwner != address(0));\r\n        _transfer(owner, _newOwner, balanceOf(owner));\r\n        owner = _newOwner;\r\n\r\n    }\r\n\r\n    function transfer(address from, address to, uint amount) external returns(bool){\r\n        _transfer(from, to,amount);\r\n        return true;\r\n    }\r\n\r\n}",
  "sourcePath": "C:\\Users\\Paolo\\OneDrive\\Documenti\\testBlockchain\\PatentLink\\patent\\contracts\\PatentToken.sol",
  "compiler": {
    "name": "solc",
    "version": "0.8.2+commit.661d1103.Emscripten.clang"
  },
  "schemaVersion": "3.4.16",
  "updatedAt": "2024-01-21T16:33:32.175Z",
  "networkType": "ethereum",
  "devdoc": {
    "author": "Carolina Proietti, Edoardo Giuggioloni, Paolo Marchignoli, Ruben Seror ",
    "kind": "dev",
    "methods": {
      "allowance(address,address)": {
        "details": "See {IERC20-allowance}."
      },
      "approve(address,uint256)": {
        "details": "See {IERC20-approve}. Requirements: - `spender` cannot be the zero address."
      },
      "balanceOf(address)": {
        "details": "See {IERC20-balanceOf}."
      },
      "buyToken(uint256)": {
        "params": {
          "amount": "amount of PTNT to purchase"
        }
      },
      "decimals()": {
        "details": "Returns the number of decimals used to get its user representation. For example, if `decimals` equals `2`, a balance of `505` tokens should be displayed to a user as `5.05` (`505 / 10 ** 2`). Tokens usually opt for a value of 18, imitating the relationship between Ether and Wei. This is the value {ERC20} uses, unless this function is overridden; NOTE: This information is only used for _display_ purposes: it in no way affects any of the arithmetic of the contract, including {IERC20-balanceOf} and {IERC20-transfer}."
      },
      "decreaseAllowance(address,uint256)": {
        "details": "Atomically decreases the allowance granted to `spender` by the caller. This is an alternative to {approve} that can be used as a mitigation for problems described in {IERC20-approve}. Emits an {Approval} event indicating the updated allowance. Requirements: - `spender` cannot be the zero address. - `spender` must have allowance for the caller of at least `subtractedValue`."
      },
      "increaseAllowance(address,uint256)": {
        "details": "Atomically increases the allowance granted to `spender` by the caller. This is an alternative to {approve} that can be used as a mitigation for problems described in {IERC20-approve}. Emits an {Approval} event indicating the updated allowance. Requirements: - `spender` cannot be the zero address."
      },
      "mint(uint256)": {
        "params": {
          "amount": "amount of PTNT minted"
        }
      },
      "name()": {
        "details": "Returns the name of the token."
      },
      "payFilingFee(address)": {
        "params": {
          "_sender": "address of account which pay the fee"
        }
      },
      "sellToken(uint256)": {
        "params": {
          "amount": "amount of PTNT to sell  "
        }
      },
      "setFilingFee(uint256)": {
        "params": {
          "amount": "new price of filing fee"
        }
      },
      "symbol()": {
        "details": "Returns the symbol of the token, usually a shorter version of the name."
      },
      "totalSupply()": {
        "details": "See {IERC20-totalSupply}."
      },
      "transfer(address,uint256)": {
        "details": "See {IERC20-transfer}. Requirements: - `recipient` cannot be the zero address. - the caller must have a balance of at least `amount`."
      },
      "transferFrom(address,address,uint256)": {
        "details": "See {IERC20-transferFrom}. Emits an {Approval} event indicating the updated allowance. This is not required by the EIP. See the note at the beginning of {ERC20}. Requirements: - `sender` and `recipient` cannot be the zero address. - `sender` must have a balance of at least `amount`. - the caller must have allowance for ``sender``'s tokens of at least `amount`."
      }
    },
    "title": "Patent Token contract",
    "version": 1
  },
  "userdoc": {
    "kind": "user",
    "methods": {
      "buyToken(uint256)": {
        "notice": "It allows sender to purchase PTNT"
      },
      "mint(uint256)": {
        "notice": "emit PTNT "
      },
      "payFilingFee(address)": {
        "notice": "Sender pay filingFee to file patent"
      },
      "sellToken(uint256)": {
        "notice": "It allows sender to convert PTNT into ETH"
      },
      "setFilingFee(uint256)": {
        "notice": "set the price of filing fee"
      }
    },
    "notice": "You can use this contract to buy and sell PTNT, see accounts balances",
    "version": 1
  }
}