{
  "contractName": "PatentToken",
  "abi": [
    {
      "inputs": [
        {
          "internalType": "uint256",
          "name": "_filingFee",
          "type": "uint256"
        }
      ],
      "stateMutability": "nonpayable",
      "type": "constructor"
    },
    {
      "anonymous": false,
      "inputs": [
        {
          "indexed": true,
          "internalType": "address",
          "name": "owner",
          "type": "address"
        },
        {
          "indexed": true,
          "internalType": "address",
          "name": "spender",
          "type": "address"
        },
        {
          "indexed": false,
          "internalType": "uint256",
          "name": "value",
          "type": "uint256"
        }
      ],
      "name": "Approval",
      "type": "event"
    },
    {
      "anonymous": false,
      "inputs": [
        {
          "indexed": true,
          "internalType": "address",
          "name": "buyer",
          "type": "address"
        },
        {
          "indexed": false,
          "internalType": "uint256",
          "name": "value",
          "type": "uint256"
        }
      ],
      "name": "BuyPTNT",
      "type": "event"
    },
    {
      "anonymous": false,
      "inputs": [
        {
          "indexed": true,
          "internalType": "address",
          "name": "seller",
          "type": "address"
        },
        {
          "indexed": false,
          "internalType": "uint256",
          "name": "value",
          "type": "uint256"
        }
      ],
      "name": "SellPTNT",
      "type": "event"
    },
    {
      "anonymous": false,
      "inputs": [
        {
          "indexed": true,
          "internalType": "address",
          "name": "from",
          "type": "address"
        },
        {
          "indexed": true,
          "internalType": "address",
          "name": "to",
          "type": "address"
        },
        {
          "indexed": false,
          "internalType": "uint256",
          "name": "value",
          "type": "uint256"
        }
      ],
      "name": "Transfer",
      "type": "event"
    },
    {
      "inputs": [
        {
          "internalType": "address",
          "name": "owner",
          "type": "address"
        },
        {
          "internalType": "address",
          "name": "spender",
          "type": "address"
        }
      ],
      "name": "allowance",
      "outputs": [
        {
          "internalType": "uint256",
          "name": "",
          "type": "uint256"
        }
      ],
      "stateMutability": "view",
      "type": "function",
      "constant": true
    },
    {
      "inputs": [
        {
          "internalType": "address",
          "name": "spender",
          "type": "address"
        },
        {
          "internalType": "uint256",
          "name": "amount",
          "type": "uint256"
        }
      ],
      "name": "approve",
      "outputs": [
        {
          "internalType": "bool",
          "name": "",
          "type": "bool"
        }
      ],
      "stateMutability": "nonpayable",
      "type": "function"
    },
    {
      "inputs": [
        {
          "internalType": "address",
          "name": "account",
          "type": "address"
        }
      ],
      "name": "balanceOf",
      "outputs": [
        {
          "internalType": "uint256",
          "name": "",
          "type": "uint256"
        }
      ],
      "stateMutability": "view",
      "type": "function",
      "constant": true
    },
    {
      "inputs": [],
      "name": "decimals",
      "outputs": [
        {
          "internalType": "uint8",
          "name": "",
          "type": "uint8"
        }
      ],
      "stateMutability": "view",
      "type": "function",
      "constant": true
    },
    {
      "inputs": [
        {
          "internalType": "address",
          "name": "spender",
          "type": "address"
        },
        {
          "internalType": "uint256",
          "name": "subtractedValue",
          "type": "uint256"
        }
      ],
      "name": "decreaseAllowance",
      "outputs": [
        {
          "internalType": "bool",
          "name": "",
          "type": "bool"
        }
      ],
      "stateMutability": "nonpayable",
      "type": "function"
    },
    {
      "inputs": [],
      "name": "filingFee",
      "outputs": [
        {
          "internalType": "uint256",
          "name": "",
          "type": "uint256"
        }
      ],
      "stateMutability": "view",
      "type": "function",
      "constant": true
    },
    {
      "inputs": [
        {
          "internalType": "address",
          "name": "spender",
          "type": "address"
        },
        {
          "internalType": "uint256",
          "name": "addedValue",
          "type": "uint256"
        }
      ],
      "name": "increaseAllowance",
      "outputs": [
        {
          "internalType": "bool",
          "name": "",
          "type": "bool"
        }
      ],
      "stateMutability": "nonpayable",
      "type": "function"
    },
    {
      "inputs": [],
      "name": "name",
      "outputs": [
        {
          "internalType": "string",
          "name": "",
          "type": "string"
        }
      ],
      "stateMutability": "view",
      "type": "function",
      "constant": true
    },
    {
      "inputs": [],
      "name": "owner",
      "outputs": [
        {
          "internalType": "address",
          "name": "",
          "type": "address"
        }
      ],
      "stateMutability": "view",
      "type": "function",
      "constant": true
    },
    {
      "inputs": [],
      "name": "symbol",
      "outputs": [
        {
          "internalType": "string",
          "name": "",
          "type": "string"
        }
      ],
      "stateMutability": "view",
      "type": "function",
      "constant": true
    },
    {
      "inputs": [],
      "name": "totalSupply",
      "outputs": [
        {
          "internalType": "uint256",
          "name": "",
          "type": "uint256"
        }
      ],
      "stateMutability": "view",
      "type": "function",
      "constant": true
    },
    {
      "inputs": [
        {
          "internalType": "address",
          "name": "sender",
          "type": "address"
        },
        {
          "internalType": "address",
          "name": "recipient",
          "type": "address"
        },
        {
          "internalType": "uint256",
          "name": "amount",
          "type": "uint256"
        }
      ],
      "name": "transferFrom",
      "outputs": [
        {
          "internalType": "bool",
          "name": "",
          "type": "bool"
        }
      ],
      "stateMutability": "nonpayable",
      "type": "function"
    },
    {
      "inputs": [
        {
          "internalType": "uint256",
          "name": "amount",
          "type": "uint256"
        }
      ],
      "name": "buyToken",
      "outputs": [],
      "stateMutability": "payable",
      "type": "function",
      "payable": true
    },
    {
      "inputs": [
        {
          "internalType": "uint256",
          "name": "amount",
          "type": "uint256"
        }
      ],
      "name": "sellToken",
      "outputs": [],
      "stateMutability": "nonpayable",
      "type": "function"
    },
    {
      "inputs": [
        {
          "internalType": "address",
          "name": "_sender",
          "type": "address"
        }
      ],
      "name": "payFilingFee",
      "outputs": [
        {
          "internalType": "bool",
          "name": "",
          "type": "bool"
        }
      ],
      "stateMutability": "nonpayable",
      "type": "function"
    },
    {
      "inputs": [
        {
          "internalType": "uint256",
          "name": "amount",
          "type": "uint256"
        }
      ],
      "name": "setFilingFee",
      "outputs": [],
      "stateMutability": "nonpayable",
      "type": "function"
    },
    {
      "inputs": [
        {
          "internalType": "uint256",
          "name": "amount",
          "type": "uint256"
        }
      ],
      "name": "mint",
      "outputs": [],
      "stateMutability": "nonpayable",
      "type": "function"
    },
    {
      "inputs": [
        {
          "internalType": "address",
          "name": "_newOwner",
          "type": "address"
        }
      ],
      "name": "changeOwner",
      "outputs": [],
      "stateMutability": "nonpayable",
      "type": "function"
    },
    {
      "inputs": [
        {
          "internalType": "address",
          "name": "recipient",
          "type": "address"
        },
        {
          "internalType": "uint256",
          "name": "amount",
          "type": "uint256"
        }
      ],
      "name": "transfer",
      "outputs": [
        {
          "internalType": "bool",
          "name": "",
          "type": "bool"
        }
      ],
      "stateMutability": "nonpayable",
      "type": "function"
    },
    {
      "inputs": [
        {
          "internalType": "address",
          "name": "from",
          "type": "address"
        },
        {
          "internalType": "address",
          "name": "to",
          "type": "address"
        },
        {
          "internalType": "uint256",
          "name": "amount",
          "type": "uint256"
        }
      ],
      "name": "transfer",
      "outputs": [
        {
          "internalType": "bool",
          "name": "",
          "type": "bool"
        }
      ],
      "stateMutability": "nonpayable",
      "type": "function"
    }
  ],
  "bytecode": "0x60806040523480156200001157600080fd5b5060405162002acc38038062002acc8339818101604052810190620000379190620003da565b6040518060400160405280600b81526020017f506174656e74546f6b656e0000000000000000000000000000000000000000008152506040518060400160405280600481526020017f50544e54000000000000000000000000000000000000000000000000000000008152508160039080519060200190620000bb92919062000313565b508060049080519060200190620000d492919062000313565b50505033600560006101000a81548173ffffffffffffffffffffffffffffffffffffffff021916908373ffffffffffffffffffffffffffffffffffffffff1602179055508060068190555062000180600560009054906101000a900473ffffffffffffffffffffffffffffffffffffffff16620001566200018760201b60201c565b600a62000164919062000546565b620186a062000174919062000683565b6200019060201b60201c565b50620007df565b60006012905090565b600073ffffffffffffffffffffffffffffffffffffffff168273ffffffffffffffffffffffffffffffffffffffff16141562000203576040517f08c379a0000000000000000000000000000000000000000000000000000000008152600401620001fa906200043e565b60405180910390fd5b62000217600083836200030960201b60201c565b80600260008282546200022b91906200048e565b92505081905550806000808473ffffffffffffffffffffffffffffffffffffffff1673ffffffffffffffffffffffffffffffffffffffff16815260200190815260200160002060008282546200028291906200048e565b925050819055508173ffffffffffffffffffffffffffffffffffffffff16600073ffffffffffffffffffffffffffffffffffffffff167fddf252ad1be2c89b69c2b068fc378daa952ba7f163c4a11628f55a4df523b3ef83604051620002e9919062000460565b60405180910390a362000305600083836200030e60201b60201c565b5050565b505050565b505050565b8280546200032190620006fb565b90600052602060002090601f01602090048101928262000345576000855562000391565b82601f106200036057805160ff191683800117855562000391565b8280016001018555821562000391579182015b828111156200039057825182559160200191906001019062000373565b5b509050620003a09190620003a4565b5090565b5b80821115620003bf576000816000905550600101620003a5565b5090565b600081519050620003d481620007c5565b92915050565b600060208284031215620003ed57600080fd5b6000620003fd84828501620003c3565b91505092915050565b600062000415601f836200047d565b915062000422826200079c565b602082019050919050565b6200043881620006e4565b82525050565b60006020820190508181036000830152620004598162000406565b9050919050565b60006020820190506200047760008301846200042d565b92915050565b600082825260208201905092915050565b60006200049b82620006e4565b9150620004a883620006e4565b9250827fffffffffffffffffffffffffffffffffffffffffffffffffffffffffffffffff03821115620004e057620004df62000731565b5b828201905092915050565b6000808291508390505b60018511156200053d5780860481111562000515576200051462000731565b5b6001851615620005255780820291505b808102905062000535856200078f565b9450620004f5565b94509492505050565b60006200055382620006e4565b91506200056083620006ee565b92506200058f7fffffffffffffffffffffffffffffffffffffffffffffffffffffffffffffffff848462000597565b905092915050565b600082620005a957600190506200067c565b81620005b957600090506200067c565b8160018114620005d25760028114620005dd5762000613565b60019150506200067c565b60ff841115620005f257620005f162000731565b5b8360020a9150848211156200060c576200060b62000731565b5b506200067c565b5060208310610133831016604e8410600b84101617156200064d5782820a90508381111562000647576200064662000731565b5b6200067c565b6200065c8484846001620004eb565b9250905081840481111562000676576200067562000731565b5b81810290505b9392505050565b60006200069082620006e4565b91506200069d83620006e4565b9250817fffffffffffffffffffffffffffffffffffffffffffffffffffffffffffffffff0483118215151615620006d957620006d862000731565b5b828202905092915050565b6000819050919050565b600060ff82169050919050565b600060028204905060018216806200071457607f821691505b602082108114156200072b576200072a62000760565b5b50919050565b7f4e487b7100000000000000000000000000000000000000000000000000000000600052601160045260246000fd5b7f4e487b7100000000000000000000000000000000000000000000000000000000600052602260045260246000fd5b60008160011c9050919050565b7f45524332303a206d696e7420746f20746865207a65726f206164647265737300600082015250565b620007d081620006e4565b8114620007dc57600080fd5b50565b6122dd80620007ef6000396000f3fe60806040526004361061011f5760003560e01c80637f5db3e8116100a0578063a457c2d711610064578063a457c2d7146103ee578063a6f9dae11461042b578063a9059cbb14610454578063beabacc814610491578063dd62ed3e146104ce5761011f565b80637f5db3e8146103095780638da5cb5b1461034657806395d89b411461037157806399f0eed51461039c578063a0712d68146103c55761011f565b80632d296bf1116100e75780632d296bf11461021d578063313ce56714610239578063395093511461026457806370a08231146102a157806373169cf8146102de5761011f565b806306fdde0314610124578063095ea7b31461014f57806318160ddd1461018c5780632397e4d7146101b757806323b872dd146101e0575b600080fd5b34801561013057600080fd5b5061013961050b565b60405161014691906119a3565b60405180910390f35b34801561015b57600080fd5b50610176600480360381019061017191906116cc565b61059d565b6040516101839190611988565b60405180910390f35b34801561019857600080fd5b506101a16105bb565b6040516101ae9190611b65565b60405180910390f35b3480156101c357600080fd5b506101de60048036038101906101d99190611708565b6105c5565b005b3480156101ec57600080fd5b506102076004803603810190610202919061167d565b61075e565b6040516102149190611988565b60405180910390f35b61023760048036038101906102329190611708565b610856565b005b34801561024557600080fd5b5061024e61096b565b60405161025b9190611b80565b60405180910390f35b34801561027057600080fd5b5061028b600480360381019061028691906116cc565b610974565b6040516102989190611988565b60405180910390f35b3480156102ad57600080fd5b506102c860048036038101906102c39190611618565b610a20565b6040516102d59190611b65565b60405180910390f35b3480156102ea57600080fd5b506102f3610a68565b6040516103009190611b65565b60405180910390f35b34801561031557600080fd5b50610330600480360381019061032b9190611618565b610a6e565b60405161033d9190611988565b60405180910390f35b34801561035257600080fd5b5061035b610af4565b604051610368919061196d565b60405180910390f35b34801561037d57600080fd5b50610386610b1a565b60405161039391906119a3565b60405180910390f35b3480156103a857600080fd5b506103c360048036038101906103be9190611708565b610bac565b005b3480156103d157600080fd5b506103ec60048036038101906103e79190611708565b610c46565b005b3480156103fa57600080fd5b50610415600480360381019061041091906116cc565b610d23565b6040516104229190611988565b60405180910390f35b34801561043757600080fd5b50610452600480360381019061044d9190611618565b610e0e565b005b34801561046057600080fd5b5061047b600480360381019061047691906116cc565b610f73565b6040516104889190611988565b60405180910390f35b34801561049d57600080fd5b506104b860048036038101906104b3919061167d565b610f91565b6040516104c59190611988565b60405180910390f35b3480156104da57600080fd5b506104f560048036038101906104f09190611641565b610fa9565b6040516105029190611b65565b60405180910390f35b60606003805461051a90611e60565b80601f016020809104026020016040519081016040528092919081815260200182805461054690611e60565b80156105935780601f1061056857610100808354040283529160200191610593565b820191906000526020600020905b81548152906001019060200180831161057657829003601f168201915b5050505050905090565b60006105b16105aa611030565b8484611038565b6001905092915050565b6000600254905090565b6000620f4240826105d69190611d7e565b11610616576040517f08c379a000000000000000000000000000000000000000000000000000000000815260040161060d90611b05565b60405180910390fd5b620f4240816106259190611d7e565b61062e33610a20565b101561066f576040517f08c379a000000000000000000000000000000000000000000000000000000000815260040161066690611a65565b60405180910390fd5b3373ffffffffffffffffffffffffffffffffffffffff167f9fef8f371a1f201ae0bdcba6e201607258bd7d95ff1d21f0ba2b45d42d90a9ff620f4240836106b69190611d7e565b6040516106c39190611b65565b60405180910390a23373ffffffffffffffffffffffffffffffffffffffff166108fc620f4240836106f49190611d7e565b9081150290604051600060405180830381858888f1935050505015801561071f573d6000803e3d6000fd5b5061075b33600560009054906101000a900473ffffffffffffffffffffffffffffffffffffffff16620f4240846107569190611d7e565b611203565b50565b600061076b848484611203565b6000600160008673ffffffffffffffffffffffffffffffffffffffff1673ffffffffffffffffffffffffffffffffffffffff16815260200190815260200160002060006107b6611030565b73ffffffffffffffffffffffffffffffffffffffff1673ffffffffffffffffffffffffffffffffffffffff16815260200190815260200160002054905082811015610836576040517f08c379a000000000000000000000000000000000000000000000000000000000815260040161082d90611a85565b60405180910390fd5b61084a85610842611030565b858403611038565b60019150509392505050565b620f4240816108659190611d7e565b610890600560009054906101000a900473ffffffffffffffffffffffffffffffffffffffff16610a20565b10156108d1576040517f08c379a00000000000000000000000000000000000000000000000000000000081526004016108c890611aa5565b60405180910390fd5b3373ffffffffffffffffffffffffffffffffffffffff167f67e144813a3bb1a1aa250e38ebaad29e0f91d69b08e28fbd81c88e21da8166d0620f4240836109189190611d7e565b6040516109259190611b65565b60405180910390a2610968600560009054906101000a900473ffffffffffffffffffffffffffffffffffffffff1633620f4240846109639190611d7e565b611203565b50565b60006012905090565b6000610a16610981611030565b84846001600061098f611030565b73ffffffffffffffffffffffffffffffffffffffff1673ffffffffffffffffffffffffffffffffffffffff16815260200190815260200160002060008873ffffffffffffffffffffffffffffffffffffffff1673ffffffffffffffffffffffffffffffffffffffff16815260200190815260200160002054610a119190611bb7565b611038565b6001905092915050565b60008060008373ffffffffffffffffffffffffffffffffffffffff1673ffffffffffffffffffffffffffffffffffffffff168152602001908152602001600020549050919050565b60065481565b6000600654610a7c83610a20565b11610abc576040517f08c379a0000000000000000000000000000000000000000000000000000000008152600401610ab390611a45565b60405180910390fd5b610aeb82600560009054906101000a900473ffffffffffffffffffffffffffffffffffffffff16600654611203565b60019050919050565b600560009054906101000a900473ffffffffffffffffffffffffffffffffffffffff1681565b606060048054610b2990611e60565b80601f0160208091040260200160405190810160405280929190818152602001828054610b5590611e60565b8015610ba25780601f10610b7757610100808354040283529160200191610ba2565b820191906000526020600020905b815481529060010190602001808311610b8557829003601f168201915b5050505050905090565b600560009054906101000a900473ffffffffffffffffffffffffffffffffffffffff1673ffffffffffffffffffffffffffffffffffffffff163373ffffffffffffffffffffffffffffffffffffffff1614610c3c576040517f08c379a0000000000000000000000000000000000000000000000000000000008152600401610c33906119e5565b60405180910390fd5b8060068190555050565b600560009054906101000a900473ffffffffffffffffffffffffffffffffffffffff1673ffffffffffffffffffffffffffffffffffffffff163373ffffffffffffffffffffffffffffffffffffffff1614610cd6576040517f08c379a0000000000000000000000000000000000000000000000000000000008152600401610ccd906119e5565b60405180910390fd5b610d20600560009054906101000a900473ffffffffffffffffffffffffffffffffffffffff16610d0461096b565b600a610d109190611c60565b83610d1b9190611d7e565b611484565b50565b60008060016000610d32611030565b73ffffffffffffffffffffffffffffffffffffffff1673ffffffffffffffffffffffffffffffffffffffff16815260200190815260200160002060008573ffffffffffffffffffffffffffffffffffffffff1673ffffffffffffffffffffffffffffffffffffffff16815260200190815260200160002054905082811015610def576040517f08c379a0000000000000000000000000000000000000000000000000000000008152600401610de690611b25565b60405180910390fd5b610e03610dfa611030565b85858403611038565b600191505092915050565b600560009054906101000a900473ffffffffffffffffffffffffffffffffffffffff1673ffffffffffffffffffffffffffffffffffffffff163373ffffffffffffffffffffffffffffffffffffffff1614610e9e576040517f08c379a0000000000000000000000000000000000000000000000000000000008152600401610e95906119e5565b60405180910390fd5b600073ffffffffffffffffffffffffffffffffffffffff168173ffffffffffffffffffffffffffffffffffffffff161415610ed857600080fd5b610f2f600560009054906101000a900473ffffffffffffffffffffffffffffffffffffffff1682610f2a600560009054906101000a900473ffffffffffffffffffffffffffffffffffffffff16610a20565b611203565b80600560006101000a81548173ffffffffffffffffffffffffffffffffffffffff021916908373ffffffffffffffffffffffffffffffffffffffff16021790555050565b6000610f87610f80611030565b8484611203565b6001905092915050565b6000610f9e848484611203565b600190509392505050565b6000600160008473ffffffffffffffffffffffffffffffffffffffff1673ffffffffffffffffffffffffffffffffffffffff16815260200190815260200160002060008373ffffffffffffffffffffffffffffffffffffffff1673ffffffffffffffffffffffffffffffffffffffff16815260200190815260200160002054905092915050565b600033905090565b600073ffffffffffffffffffffffffffffffffffffffff168373ffffffffffffffffffffffffffffffffffffffff1614156110a8576040517f08c379a000000000000000000000000000000000000000000000000000000000815260040161109f90611ae5565b60405180910390fd5b600073ffffffffffffffffffffffffffffffffffffffff168273ffffffffffffffffffffffffffffffffffffffff161415611118576040517f08c379a000000000000000000000000000000000000000000000000000000000815260040161110f90611a05565b60405180910390fd5b80600160008573ffffffffffffffffffffffffffffffffffffffff1673ffffffffffffffffffffffffffffffffffffffff16815260200190815260200160002060008473ffffffffffffffffffffffffffffffffffffffff1673ffffffffffffffffffffffffffffffffffffffff168152602001908152602001600020819055508173ffffffffffffffffffffffffffffffffffffffff168373ffffffffffffffffffffffffffffffffffffffff167f8c5be1e5ebec7d5bd14f71427d1e84f3dd0314c0f7b2291e5b200ac8c7c3b925836040516111f69190611b65565b60405180910390a3505050565b600073ffffffffffffffffffffffffffffffffffffffff168373ffffffffffffffffffffffffffffffffffffffff161415611273576040517f08c379a000000000000000000000000000000000000000000000000000000000815260040161126a90611ac5565b60405180910390fd5b600073ffffffffffffffffffffffffffffffffffffffff168273ffffffffffffffffffffffffffffffffffffffff1614156112e3576040517f08c379a00000000000000000000000000000000000000000000000000000000081526004016112da906119c5565b60405180910390fd5b6112ee8383836115e4565b60008060008573ffffffffffffffffffffffffffffffffffffffff1673ffffffffffffffffffffffffffffffffffffffff16815260200190815260200160002054905081811015611374576040517f08c379a000000000000000000000000000000000000000000000000000000000815260040161136b90611a25565b60405180910390fd5b8181036000808673ffffffffffffffffffffffffffffffffffffffff1673ffffffffffffffffffffffffffffffffffffffff16815260200190815260200160002081905550816000808573ffffffffffffffffffffffffffffffffffffffff1673ffffffffffffffffffffffffffffffffffffffff16815260200190815260200160002060008282546114079190611bb7565b925050819055508273ffffffffffffffffffffffffffffffffffffffff168473ffffffffffffffffffffffffffffffffffffffff167fddf252ad1be2c89b69c2b068fc378daa952ba7f163c4a11628f55a4df523b3ef8460405161146b9190611b65565b60405180910390a361147e8484846115e9565b50505050565b600073ffffffffffffffffffffffffffffffffffffffff168273ffffffffffffffffffffffffffffffffffffffff1614156114f4576040517f08c379a00000000000000000000000000000000000000000000000000000000081526004016114eb90611b45565b60405180910390fd5b611500600083836115e4565b80600260008282546115129190611bb7565b92505081905550806000808473ffffffffffffffffffffffffffffffffffffffff1673ffffffffffffffffffffffffffffffffffffffff16815260200190815260200160002060008282546115679190611bb7565b925050819055508173ffffffffffffffffffffffffffffffffffffffff16600073ffffffffffffffffffffffffffffffffffffffff167fddf252ad1be2c89b69c2b068fc378daa952ba7f163c4a11628f55a4df523b3ef836040516115cc9190611b65565b60405180910390a36115e0600083836115e9565b5050565b505050565b505050565b6000813590506115fd81612279565b92915050565b60008135905061161281612290565b92915050565b60006020828403121561162a57600080fd5b6000611638848285016115ee565b91505092915050565b6000806040838503121561165457600080fd5b6000611662858286016115ee565b9250506020611673858286016115ee565b9150509250929050565b60008060006060848603121561169257600080fd5b60006116a0868287016115ee565b93505060206116b1868287016115ee565b92505060406116c286828701611603565b9150509250925092565b600080604083850312156116df57600080fd5b60006116ed858286016115ee565b92505060206116fe85828601611603565b9150509250929050565b60006020828403121561171a57600080fd5b600061172884828501611603565b91505092915050565b61173a81611dd8565b82525050565b61174981611dea565b82525050565b600061175a82611b9b565b6117648185611ba6565b9350611774818560208601611e2d565b61177d81611ef0565b840191505092915050565b6000611795602383611ba6565b91506117a082611f0e565b604082019050919050565b60006117b8601983611ba6565b91506117c382611f5d565b602082019050919050565b60006117db602283611ba6565b91506117e682611f86565b604082019050919050565b60006117fe602683611ba6565b915061180982611fd5565b604082019050919050565b6000611821602183611ba6565b915061182c82612024565b604082019050919050565b6000611844602383611ba6565b915061184f82612073565b604082019050919050565b6000611867602883611ba6565b9150611872826120c2565b604082019050919050565b600061188a601e83611ba6565b915061189582612111565b602082019050919050565b60006118ad602583611ba6565b91506118b88261213a565b604082019050919050565b60006118d0602483611ba6565b91506118db82612189565b604082019050919050565b60006118f3601f83611ba6565b91506118fe826121d8565b602082019050919050565b6000611916602583611ba6565b915061192182612201565b604082019050919050565b6000611939601f83611ba6565b915061194482612250565b602082019050919050565b61195881611e16565b82525050565b61196781611e20565b82525050565b60006020820190506119826000830184611731565b92915050565b600060208201905061199d6000830184611740565b92915050565b600060208201905081810360008301526119bd818461174f565b905092915050565b600060208201905081810360008301526119de81611788565b9050919050565b600060208201905081810360008301526119fe816117ab565b9050919050565b60006020820190508181036000830152611a1e816117ce565b9050919050565b60006020820190508181036000830152611a3e816117f1565b9050919050565b60006020820190508181036000830152611a5e81611814565b9050919050565b60006020820190508181036000830152611a7e81611837565b9050919050565b60006020820190508181036000830152611a9e8161185a565b9050919050565b60006020820190508181036000830152611abe8161187d565b9050919050565b60006020820190508181036000830152611ade816118a0565b9050919050565b60006020820190508181036000830152611afe816118c3565b9050919050565b60006020820190508181036000830152611b1e816118e6565b9050919050565b60006020820190508181036000830152611b3e81611909565b9050919050565b60006020820190508181036000830152611b5e8161192c565b9050919050565b6000602082019050611b7a600083018461194f565b92915050565b6000602082019050611b95600083018461195e565b92915050565b600081519050919050565b600082825260208201905092915050565b6000611bc282611e16565b9150611bcd83611e16565b9250827fffffffffffffffffffffffffffffffffffffffffffffffffffffffffffffffff03821115611c0257611c01611e92565b5b828201905092915050565b6000808291508390505b6001851115611c5757808604811115611c3357611c32611e92565b5b6001851615611c425780820291505b8081029050611c5085611f01565b9450611c17565b94509492505050565b6000611c6b82611e16565b9150611c7683611e20565b9250611ca37fffffffffffffffffffffffffffffffffffffffffffffffffffffffffffffffff8484611cab565b905092915050565b600082611cbb5760019050611d77565b81611cc95760009050611d77565b8160018114611cdf5760028114611ce957611d18565b6001915050611d77565b60ff841115611cfb57611cfa611e92565b5b8360020a915084821115611d1257611d11611e92565b5b50611d77565b5060208310610133831016604e8410600b8410161715611d4d5782820a905083811115611d4857611d47611e92565b5b611d77565b611d5a8484846001611c0d565b92509050818404811115611d7157611d70611e92565b5b81810290505b9392505050565b6000611d8982611e16565b9150611d9483611e16565b9250817fffffffffffffffffffffffffffffffffffffffffffffffffffffffffffffffff0483118215151615611dcd57611dcc611e92565b5b828202905092915050565b6000611de382611df6565b9050919050565b60008115159050919050565b600073ffffffffffffffffffffffffffffffffffffffff82169050919050565b6000819050919050565b600060ff82169050919050565b60005b83811015611e4b578082015181840152602081019050611e30565b83811115611e5a576000848401525b50505050565b60006002820490506001821680611e7857607f821691505b60208210811415611e8c57611e8b611ec1565b5b50919050565b7f4e487b7100000000000000000000000000000000000000000000000000000000600052601160045260246000fd5b7f4e487b7100000000000000000000000000000000000000000000000000000000600052602260045260246000fd5b6000601f19601f8301169050919050565b60008160011c9050919050565b7f45524332303a207472616e7366657220746f20746865207a65726f206164647260008201527f6573730000000000000000000000000000000000000000000000000000000000602082015250565b7f4f6e6c79206f776e65722063616e2063616c6c20746869732e00000000000000600082015250565b7f45524332303a20617070726f766520746f20746865207a65726f20616464726560008201527f7373000000000000000000000000000000000000000000000000000000000000602082015250565b7f45524332303a207472616e7366657220616d6f756e742065786365656473206260008201527f616c616e63650000000000000000000000000000000000000000000000000000602082015250565b7f4e6f7420656e6f7567682050544e5420746f207061792066696c696e6720666560008201527f6500000000000000000000000000000000000000000000000000000000000000602082015250565b7f596f7520646f206e6f742068617665207468617420616d6f756e74206f66205060008201527f544e540000000000000000000000000000000000000000000000000000000000602082015250565b7f45524332303a207472616e7366657220616d6f756e742065786365656473206160008201527f6c6c6f77616e6365000000000000000000000000000000000000000000000000602082015250565b7f4e6f7420656e6f7567682050544e5420696e207468652065636f6e6f6d790000600082015250565b7f45524332303a207472616e736665722066726f6d20746865207a65726f20616460008201527f6472657373000000000000000000000000000000000000000000000000000000602082015250565b7f45524332303a20617070726f76652066726f6d20746865207a65726f2061646460008201527f7265737300000000000000000000000000000000000000000000000000000000602082015250565b7f4e6f20616d6f756e74206f662050544e54206172652073706563696669656400600082015250565b7f45524332303a2064656372656173656420616c6c6f77616e63652062656c6f7760008201527f207a65726f000000000000000000000000000000000000000000000000000000602082015250565b7f45524332303a206d696e7420746f20746865207a65726f206164647265737300600082015250565b61228281611dd8565b811461228d57600080fd5b50565b61229981611e16565b81146122a457600080fd5b5056fea264697066735822122083846c40534179727e7db9e3f8882e035714d40e4db3debe3a8384f21029b00664736f6c63430008020033",
  "immutableReferences": {},
  "source": "// SPDX-License-Identifier: MIT\r\npragma solidity >=0.4.22 <0.9.0;\r\n\r\nimport \"@openzeppelin/contracts/token/ERC20/ERC20.sol\";\r\n\r\n\r\n/// @title Patent Token contract\r\n/// @author Carolina Proietti, Edoardo Giuggioloni, Paolo Marchignoli, Ruben Seror \r\n/// @notice You can use this contract to buy and sell PTNT, see accounts balances\r\ncontract PatentToken is ERC20{\r\n\r\n    address public owner;\r\n    uint public filingFee;\r\n    \r\n    event BuyPTNT(address indexed buyer, uint value);\r\n    event SellPTNT(address indexed seller, uint value);\r\n\r\n    /// @notice  throws an error if the msg.sender is not the owner.\r\n    modifier onlyOwner() {\r\n        require(msg.sender == owner, \"Only owner can call this.\");\r\n        _;\r\n    }\r\n   \r\n\r\n\r\n    constructor(uint _filingFee)\r\n        ERC20(\"PatentToken\", \"PTNT\") {\r\n            owner = msg.sender;\r\n            filingFee = _filingFee;\r\n            _mint(owner, 100000 * (10 ** decimals()));\r\n        }\r\n\r\n    ///@notice It allows sender to purchase PTNT\r\n    ///@param amount amount of PTNT to purchase\r\n    function buyToken(uint amount) public payable{\r\n        require(balanceOf(owner) >= amount*1000000, 'Not enough PTNT in the economy');\r\n        //require(msg.value > amount * 1 ether,'Not enough ETH to buy PTNT');\r\n        emit BuyPTNT(msg.sender, amount*1000000);\r\n        _transfer(owner,msg.sender,amount*1000000);\r\n    }\r\n\r\n    ///@notice It allows sender to convert PTNT into ETH\r\n    ///@param amount amount of PTNT to sell  \r\n    function sellToken(uint amount) public{\r\n        require(amount*1000000 > 0, 'No amount of PTNT are specified');\r\n        require(balanceOf(msg.sender) >= amount*1000000, 'You do not have that amount of PTNT');\r\n        emit SellPTNT(msg.sender,amount*1000000);\r\n        payable(msg.sender).transfer(amount*1000000);\r\n        _transfer(msg.sender, owner, amount*1000000);\r\n\r\n    }\r\n\r\n    ///@notice Sender pay filingFee to file patent\r\n    ///@param _sender address of account which pay the fee\r\n    function payFilingFee(address _sender) external returns(bool){\r\n        require(balanceOf(_sender)> filingFee,'Not enough PTNT to pay filing fee');\r\n        _transfer(_sender, owner, filingFee);\r\n        return true;\r\n    }\r\n\r\n    ///@notice set the price of filing fee\r\n    ///@param amount new price of filing fee\r\n    function setFilingFee(uint amount) public onlyOwner{\r\n        filingFee = amount;\r\n    }\r\n\r\n    ///@notice emit PTNT \r\n    ///@param amount amount of PTNT minted\r\n    function mint(uint amount) public onlyOwner{\r\n        _mint(owner, amount * (10 ** decimals()));\r\n    }\r\n\r\n    function changeOwner(address _newOwner) public onlyOwner{\r\n        require(_newOwner != address(0));\r\n        _transfer(owner, _newOwner, balanceOf(owner));\r\n        owner = _newOwner;\r\n\r\n    }\r\n\r\n    function transfer(address from, address to, uint amount) external returns(bool){\r\n        _transfer(from, to,amount);\r\n        return true;\r\n    }\r\n\r\n}",
  "sourcePath": "C:\\Users\\Paolo\\OneDrive\\Documenti\\testBlockchain\\PatentLink\\patent\\contracts\\PatentToken.sol",
  "compiler": {
    "name": "solc",
    "version": "0.8.2+commit.661d1103.Emscripten.clang"
  },
  "schemaVersion": "3.4.16",
  "updatedAt": "2024-01-16T13:39:43.763Z",
  "networkType": "ethereum",
  "devdoc": {
    "author": "Carolina Proietti, Edoardo Giuggioloni, Paolo Marchignoli, Ruben Seror ",
    "kind": "dev",
    "methods": {
      "allowance(address,address)": {
        "details": "See {IERC20-allowance}."
      },
      "approve(address,uint256)": {
        "details": "See {IERC20-approve}. Requirements: - `spender` cannot be the zero address."
      },
      "balanceOf(address)": {
        "details": "See {IERC20-balanceOf}."
      },
      "buyToken(uint256)": {
        "params": {
          "amount": "amount of PTNT to purchase"
        }
      },
      "decimals()": {
        "details": "Returns the number of decimals used to get its user representation. For example, if `decimals` equals `2`, a balance of `505` tokens should be displayed to a user as `5.05` (`505 / 10 ** 2`). Tokens usually opt for a value of 18, imitating the relationship between Ether and Wei. This is the value {ERC20} uses, unless this function is overridden; NOTE: This information is only used for _display_ purposes: it in no way affects any of the arithmetic of the contract, including {IERC20-balanceOf} and {IERC20-transfer}."
      },
      "decreaseAllowance(address,uint256)": {
        "details": "Atomically decreases the allowance granted to `spender` by the caller. This is an alternative to {approve} that can be used as a mitigation for problems described in {IERC20-approve}. Emits an {Approval} event indicating the updated allowance. Requirements: - `spender` cannot be the zero address. - `spender` must have allowance for the caller of at least `subtractedValue`."
      },
      "increaseAllowance(address,uint256)": {
        "details": "Atomically increases the allowance granted to `spender` by the caller. This is an alternative to {approve} that can be used as a mitigation for problems described in {IERC20-approve}. Emits an {Approval} event indicating the updated allowance. Requirements: - `spender` cannot be the zero address."
      },
      "mint(uint256)": {
        "params": {
          "amount": "amount of PTNT minted"
        }
      },
      "name()": {
        "details": "Returns the name of the token."
      },
      "payFilingFee(address)": {
        "params": {
          "_sender": "address of account which pay the fee"
        }
      },
      "sellToken(uint256)": {
        "params": {
          "amount": "amount of PTNT to sell  "
        }
      },
      "setFilingFee(uint256)": {
        "params": {
          "amount": "new price of filing fee"
        }
      },
      "symbol()": {
        "details": "Returns the symbol of the token, usually a shorter version of the name."
      },
      "totalSupply()": {
        "details": "See {IERC20-totalSupply}."
      },
      "transfer(address,uint256)": {
        "details": "See {IERC20-transfer}. Requirements: - `recipient` cannot be the zero address. - the caller must have a balance of at least `amount`."
      },
      "transferFrom(address,address,uint256)": {
        "details": "See {IERC20-transferFrom}. Emits an {Approval} event indicating the updated allowance. This is not required by the EIP. See the note at the beginning of {ERC20}. Requirements: - `sender` and `recipient` cannot be the zero address. - `sender` must have a balance of at least `amount`. - the caller must have allowance for ``sender``'s tokens of at least `amount`."
      }
    },
    "title": "Patent Token contract",
    "version": 1
  },
  "userdoc": {
    "kind": "user",
    "methods": {
      "buyToken(uint256)": {
        "notice": "It allows sender to purchase PTNT"
      },
      "mint(uint256)": {
        "notice": "emit PTNT "
      },
      "payFilingFee(address)": {
        "notice": "Sender pay filingFee to file patent"
      },
      "sellToken(uint256)": {
        "notice": "It allows sender to convert PTNT into ETH"
      },
      "setFilingFee(uint256)": {
        "notice": "set the price of filing fee"
      }
    },
    "notice": "You can use this contract to buy and sell PTNT, see accounts balances",
    "version": 1
  }
}