{
  "contractName": "PatentNFT",
  "abi": [
    {
      "inputs": [
        {
          "internalType": "address",
          "name": "tokenAddress",
          "type": "address"
        }
      ],
      "stateMutability": "nonpayable",
      "type": "constructor"
    },
    {
      "anonymous": false,
      "inputs": [
        {
          "indexed": true,
          "internalType": "address",
          "name": "owner",
          "type": "address"
        },
        {
          "indexed": true,
          "internalType": "address",
          "name": "approved",
          "type": "address"
        },
        {
          "indexed": true,
          "internalType": "uint256",
          "name": "tokenId",
          "type": "uint256"
        }
      ],
      "name": "Approval",
      "type": "event"
    },
    {
      "anonymous": false,
      "inputs": [
        {
          "indexed": true,
          "internalType": "address",
          "name": "owner",
          "type": "address"
        },
        {
          "indexed": true,
          "internalType": "address",
          "name": "operator",
          "type": "address"
        },
        {
          "indexed": false,
          "internalType": "bool",
          "name": "approved",
          "type": "bool"
        }
      ],
      "name": "ApprovalForAll",
      "type": "event"
    },
    {
      "anonymous": false,
      "inputs": [
        {
          "indexed": false,
          "internalType": "uint256",
          "name": "tokenId",
          "type": "uint256"
        },
        {
          "indexed": false,
          "internalType": "address",
          "name": "owner",
          "type": "address"
        },
        {
          "indexed": false,
          "internalType": "address",
          "name": "bidder",
          "type": "address"
        }
      ],
      "name": "BidRefused",
      "type": "event"
    },
    {
      "anonymous": false,
      "inputs": [
        {
          "indexed": false,
          "internalType": "uint256",
          "name": "tokenId",
          "type": "uint256"
        },
        {
          "indexed": false,
          "internalType": "address",
          "name": "owner",
          "type": "address"
        },
        {
          "indexed": false,
          "internalType": "address",
          "name": "bidder",
          "type": "address"
        }
      ],
      "name": "MakeBid",
      "type": "event"
    },
    {
      "anonymous": false,
      "inputs": [
        {
          "indexed": true,
          "internalType": "uint256",
          "name": "patentId",
          "type": "uint256"
        },
        {
          "indexed": false,
          "internalType": "address",
          "name": "from",
          "type": "address"
        },
        {
          "indexed": false,
          "internalType": "address",
          "name": "to",
          "type": "address"
        }
      ],
      "name": "PatentAssignment",
      "type": "event"
    },
    {
      "anonymous": false,
      "inputs": [
        {
          "indexed": true,
          "internalType": "uint256",
          "name": "patentId",
          "type": "uint256"
        },
        {
          "indexed": false,
          "internalType": "address",
          "name": "owner",
          "type": "address"
        }
      ],
      "name": "PatentFiled",
      "type": "event"
    },
    {
      "anonymous": false,
      "inputs": [
        {
          "indexed": true,
          "internalType": "address",
          "name": "from",
          "type": "address"
        },
        {
          "indexed": true,
          "internalType": "address",
          "name": "to",
          "type": "address"
        },
        {
          "indexed": true,
          "internalType": "uint256",
          "name": "tokenId",
          "type": "uint256"
        }
      ],
      "name": "Transfer",
      "type": "event"
    },
    {
      "inputs": [
        {
          "internalType": "address",
          "name": "to",
          "type": "address"
        },
        {
          "internalType": "uint256",
          "name": "tokenId",
          "type": "uint256"
        }
      ],
      "name": "approve",
      "outputs": [],
      "stateMutability": "nonpayable",
      "type": "function"
    },
    {
      "inputs": [
        {
          "internalType": "address",
          "name": "owner",
          "type": "address"
        }
      ],
      "name": "balanceOf",
      "outputs": [
        {
          "internalType": "uint256",
          "name": "",
          "type": "uint256"
        }
      ],
      "stateMutability": "view",
      "type": "function",
      "constant": true
    },
    {
      "inputs": [
        {
          "internalType": "uint256",
          "name": "tokenId",
          "type": "uint256"
        }
      ],
      "name": "getApproved",
      "outputs": [
        {
          "internalType": "address",
          "name": "",
          "type": "address"
        }
      ],
      "stateMutability": "view",
      "type": "function",
      "constant": true
    },
    {
      "inputs": [
        {
          "internalType": "address",
          "name": "owner",
          "type": "address"
        },
        {
          "internalType": "address",
          "name": "operator",
          "type": "address"
        }
      ],
      "name": "isApprovedForAll",
      "outputs": [
        {
          "internalType": "bool",
          "name": "",
          "type": "bool"
        }
      ],
      "stateMutability": "view",
      "type": "function",
      "constant": true
    },
    {
      "inputs": [],
      "name": "name",
      "outputs": [
        {
          "internalType": "string",
          "name": "",
          "type": "string"
        }
      ],
      "stateMutability": "view",
      "type": "function",
      "constant": true
    },
    {
      "inputs": [
        {
          "internalType": "uint256",
          "name": "tokenId",
          "type": "uint256"
        }
      ],
      "name": "ownerOf",
      "outputs": [
        {
          "internalType": "address",
          "name": "",
          "type": "address"
        }
      ],
      "stateMutability": "view",
      "type": "function",
      "constant": true
    },
    {
      "inputs": [
        {
          "internalType": "uint256",
          "name": "",
          "type": "uint256"
        }
      ],
      "name": "patents",
      "outputs": [
        {
          "internalType": "string",
          "name": "name",
          "type": "string"
        },
        {
          "internalType": "uint256",
          "name": "timestamp",
          "type": "uint256"
        },
        {
          "internalType": "uint256",
          "name": "deadline",
          "type": "uint256"
        }
      ],
      "stateMutability": "view",
      "type": "function",
      "constant": true
    },
    {
      "inputs": [
        {
          "internalType": "address",
          "name": "from",
          "type": "address"
        },
        {
          "internalType": "address",
          "name": "to",
          "type": "address"
        },
        {
          "internalType": "uint256",
          "name": "tokenId",
          "type": "uint256"
        }
      ],
      "name": "safeTransferFrom",
      "outputs": [],
      "stateMutability": "nonpayable",
      "type": "function"
    },
    {
      "inputs": [
        {
          "internalType": "address",
          "name": "from",
          "type": "address"
        },
        {
          "internalType": "address",
          "name": "to",
          "type": "address"
        },
        {
          "internalType": "uint256",
          "name": "tokenId",
          "type": "uint256"
        },
        {
          "internalType": "bytes",
          "name": "_data",
          "type": "bytes"
        }
      ],
      "name": "safeTransferFrom",
      "outputs": [],
      "stateMutability": "nonpayable",
      "type": "function"
    },
    {
      "inputs": [
        {
          "internalType": "address",
          "name": "operator",
          "type": "address"
        },
        {
          "internalType": "bool",
          "name": "approved",
          "type": "bool"
        }
      ],
      "name": "setApprovalForAll",
      "outputs": [],
      "stateMutability": "nonpayable",
      "type": "function"
    },
    {
      "inputs": [
        {
          "internalType": "bytes4",
          "name": "interfaceId",
          "type": "bytes4"
        }
      ],
      "name": "supportsInterface",
      "outputs": [
        {
          "internalType": "bool",
          "name": "",
          "type": "bool"
        }
      ],
      "stateMutability": "view",
      "type": "function",
      "constant": true
    },
    {
      "inputs": [],
      "name": "symbol",
      "outputs": [
        {
          "internalType": "string",
          "name": "",
          "type": "string"
        }
      ],
      "stateMutability": "view",
      "type": "function",
      "constant": true
    },
    {
      "inputs": [],
      "name": "token",
      "outputs": [
        {
          "internalType": "contract IPatentToken",
          "name": "",
          "type": "address"
        }
      ],
      "stateMutability": "view",
      "type": "function",
      "constant": true
    },
    {
      "inputs": [
        {
          "internalType": "uint256",
          "name": "tokenId",
          "type": "uint256"
        }
      ],
      "name": "tokenURI",
      "outputs": [
        {
          "internalType": "string",
          "name": "",
          "type": "string"
        }
      ],
      "stateMutability": "view",
      "type": "function",
      "constant": true
    },
    {
      "inputs": [
        {
          "internalType": "address",
          "name": "from",
          "type": "address"
        },
        {
          "internalType": "address",
          "name": "to",
          "type": "address"
        },
        {
          "internalType": "uint256",
          "name": "tokenId",
          "type": "uint256"
        }
      ],
      "name": "transferFrom",
      "outputs": [],
      "stateMutability": "nonpayable",
      "type": "function"
    },
    {
      "inputs": [
        {
          "internalType": "string",
          "name": "_uri",
          "type": "string"
        },
        {
          "internalType": "string",
          "name": "_name",
          "type": "string"
        }
      ],
      "name": "filePatent",
      "outputs": [],
      "stateMutability": "nonpayable",
      "type": "function"
    },
    {
      "inputs": [],
      "name": "getTokenCount",
      "outputs": [
        {
          "internalType": "uint256",
          "name": "",
          "type": "uint256"
        }
      ],
      "stateMutability": "view",
      "type": "function",
      "constant": true
    },
    {
      "inputs": [
        {
          "internalType": "uint256",
          "name": "tokenId",
          "type": "uint256"
        }
      ],
      "name": "getBids",
      "outputs": [
        {
          "components": [
            {
              "internalType": "address",
              "name": "bidder",
              "type": "address"
            },
            {
              "internalType": "uint256",
              "name": "amount",
              "type": "uint256"
            },
            {
              "internalType": "enum PatentNFT.State",
              "name": "state",
              "type": "uint8"
            }
          ],
          "internalType": "struct PatentNFT.Bid[]",
          "name": "",
          "type": "tuple[]"
        }
      ],
      "stateMutability": "view",
      "type": "function",
      "constant": true
    },
    {
      "inputs": [
        {
          "internalType": "uint256",
          "name": "tokenId",
          "type": "uint256"
        },
        {
          "internalType": "uint256",
          "name": "indexBid",
          "type": "uint256"
        }
      ],
      "name": "rejectBid",
      "outputs": [],
      "stateMutability": "nonpayable",
      "type": "function"
    },
    {
      "inputs": [
        {
          "internalType": "uint256",
          "name": "tokenId",
          "type": "uint256"
        },
        {
          "internalType": "uint256",
          "name": "indexBid",
          "type": "uint256"
        }
      ],
      "name": "acceptBid",
      "outputs": [],
      "stateMutability": "nonpayable",
      "type": "function"
    },
    {
      "inputs": [
        {
          "internalType": "uint256",
          "name": "patentId",
          "type": "uint256"
        },
        {
          "internalType": "uint256",
          "name": "amount",
          "type": "uint256"
        }
      ],
      "name": "makeBid",
      "outputs": [],
      "stateMutability": "nonpayable",
      "type": "function"
    },
    {
      "inputs": [
        {
          "internalType": "uint256",
          "name": "patentId",
          "type": "uint256"
        }
      ],
      "name": "getPatent",
      "outputs": [
        {
          "components": [
            {
              "internalType": "string",
              "name": "name",
              "type": "string"
            },
            {
              "internalType": "uint256",
              "name": "timestamp",
              "type": "uint256"
            },
            {
              "internalType": "uint256",
              "name": "deadline",
              "type": "uint256"
            }
          ],
          "internalType": "struct PatentNFT.Patent",
          "name": "",
          "type": "tuple"
        }
      ],
      "stateMutability": "view",
      "type": "function",
      "constant": true
    },
    {
      "inputs": [
        {
          "internalType": "address",
          "name": "owner",
          "type": "address"
        }
      ],
      "name": "getPatentsByOwner",
      "outputs": [
        {
          "internalType": "uint256[]",
          "name": "",
          "type": "uint256[]"
        }
      ],
      "stateMutability": "view",
      "type": "function",
      "constant": true
    }
  ],
  "bytecode": "0x60806040523480156200001157600080fd5b5060405162004b9a38038062004b9a8339818101604052810190620000379190620001ee565b6040518060400160405280600981526020017f506174656e744e465400000000000000000000000000000000000000000000008152506040518060400160405280600581526020017f50544e46540000000000000000000000000000000000000000000000000000008152508160009080519060200190620000bb92919062000127565b508060019080519060200190620000d492919062000127565b50505080600760006101000a81548173ffffffffffffffffffffffffffffffffffffffff021916908373ffffffffffffffffffffffffffffffffffffffff160217905550600060088190555050620002cd565b82805462000135906200024e565b90600052602060002090601f016020900481019282620001595760008555620001a5565b82601f106200017457805160ff1916838001178555620001a5565b82800160010185558215620001a5579182015b82811115620001a457825182559160200191906001019062000187565b5b509050620001b49190620001b8565b5090565b5b80821115620001d3576000816000905550600101620001b9565b5090565b600081519050620001e881620002b3565b92915050565b6000602082840312156200020157600080fd5b60006200021184828501620001d7565b91505092915050565b600062000227826200022e565b9050919050565b600073ffffffffffffffffffffffffffffffffffffffff82169050919050565b600060028204905060018216806200026757607f821691505b602082108114156200027e576200027d62000284565b5b50919050565b7f4e487b7100000000000000000000000000000000000000000000000000000000600052602260045260246000fd5b620002be816200021a565b8114620002ca57600080fd5b50565b6148bd80620002dd6000396000f3fe608060405234801561001057600080fd5b506004361061014d5760003560e01c806378a89567116100c3578063b88d4fde1161007c578063b88d4fde146103ac578063c87b56dd146103c8578063e985e9c5146103f8578063f422bc6814610428578063fc0c546a1461045a578063fc8f39f5146104785761014d565b806378a89567146102ec57806379baa9fd1461030a57806395d89b41146103265780639c6d0d7814610344578063a22cb46514610374578063adfcdc11146103905761014d565b8063131d9a2711610115578063131d9a271461020857806323b872dd1461023857806328d0f45e1461025457806342842e0e146102705780636352211e1461028c57806370a08231146102bc5761014d565b806301ffc9a71461015257806302e9d5e41461018257806306fdde031461019e578063081812fc146101bc578063095ea7b3146101ec575b600080fd5b61016c60048036038101906101679190613003565b6104a8565b60405161017991906138ac565b60405180910390f35b61019c60048036038101906101979190613113565b61058a565b005b6101a6610aac565b6040516101b391906138e2565b60405180910390f35b6101d660048036038101906101d191906130c1565b610b3e565b6040516101e391906137a1565b60405180910390f35b61020660048036038101906102019190612f9e565b610bc3565b005b610222600480360381019061021d91906130c1565b610cdb565b60405161022f9190613868565b60405180910390f35b610252600480360381019061024d9190612e98565b610e34565b005b61026e60048036038101906102699190613055565b610e94565b005b61028a60048036038101906102859190612e98565b6110a5565b005b6102a660048036038101906102a191906130c1565b6110c5565b6040516102b391906137a1565b60405180910390f35b6102d660048036038101906102d19190612e33565b611177565b6040516102e39190613c84565b60405180910390f35b6102f461122f565b6040516103019190613c84565b60405180910390f35b610324600480360381019061031f9190613113565b611239565b005b61032e611475565b60405161033b91906138e2565b60405180910390f35b61035e600480360381019061035991906130c1565b611507565b60405161036b9190613c62565b60405180910390f35b61038e60048036038101906103899190612f62565b6115da565b005b6103aa60048036038101906103a59190613113565b61175b565b005b6103c660048036038101906103c19190612ee7565b611ad2565b005b6103e260048036038101906103dd91906130c1565b611b34565b6040516103ef91906138e2565b60405180910390f35b610412600480360381019061040d9190612e5c565b611c86565b60405161041f91906138ac565b60405180910390f35b610442600480360381019061043d91906130c1565b611d1a565b60405161045193929190613904565b60405180910390f35b610462611dcc565b60405161046f91906138c7565b60405180910390f35b610492600480360381019061048d9190612e33565b611df2565b60405161049f919061388a565b60405180910390f35b60007f80ac58cd000000000000000000000000000000000000000000000000000000007bffffffffffffffffffffffffffffffffffffffffffffffffffffffff1916827bffffffffffffffffffffffffffffffffffffffffffffffffffffffff1916148061057357507f5b5e139f000000000000000000000000000000000000000000000000000000007bffffffffffffffffffffffffffffffffffffffffffffffffffffffff1916827bffffffffffffffffffffffffffffffffffffffffffffffffffffffff1916145b80610583575061058282611f3d565b5b9050919050565b3373ffffffffffffffffffffffffffffffffffffffff166105aa836110c5565b73ffffffffffffffffffffffffffffffffffffffff1614610600576040517f08c379a00000000000000000000000000000000000000000000000000000000081526004016105f7906139a2565b60405180910390fd5b80600a60008481526020019081526020016000208054905011610658576040517f08c379a000000000000000000000000000000000000000000000000000000000815260040161064f90613be2565b60405180910390fd5b6000600a600084815260200190815260200160002082815481106106a5577f4e487b7100000000000000000000000000000000000000000000000000000000600052603260045260246000fd5b90600052602060002090600302016040518060600160405290816000820160009054906101000a900473ffffffffffffffffffffffffffffffffffffffff1673ffffffffffffffffffffffffffffffffffffffff1673ffffffffffffffffffffffffffffffffffffffff168152602001600182015481526020016002820160009054906101000a900460ff166002811115610769577f4e487b7100000000000000000000000000000000000000000000000000000000600052602160045260246000fd5b60028111156107a1577f4e487b7100000000000000000000000000000000000000000000000000000000600052602160045260246000fd5b8152505090506002808111156107e0577f4e487b7100000000000000000000000000000000000000000000000000000000600052602160045260246000fd5b8160400151600281111561081d577f4e487b7100000000000000000000000000000000000000000000000000000000600052602160045260246000fd5b1461082757600080fd5b806000015173ffffffffffffffffffffffffffffffffffffffff1661084b846110c5565b73ffffffffffffffffffffffffffffffffffffffff1614156108a2576040517f08c379a000000000000000000000000000000000000000000000000000000000815260040161089990613c22565b60405180910390fd5b8060200151600760009054906101000a900473ffffffffffffffffffffffffffffffffffffffff1673ffffffffffffffffffffffffffffffffffffffff166370a0823183600001516040518263ffffffff1660e01b815260040161090691906137a1565b60206040518083038186803b15801561091e57600080fd5b505afa158015610932573d6000803e3d6000fd5b505050506040513d601f19601f8201168201806040525081019061095691906130ea565b1015610997576040517f08c379a000000000000000000000000000000000000000000000000000000000815260040161098e90613b82565b60405180910390fd5b827fbc59543ce757cc7e4527a51c4c9d6e96e88a233bda92dc16607b63fd9599ade03383600001516040516109cd9291906137bc565b60405180910390a2600760009054906101000a900473ffffffffffffffffffffffffffffffffffffffff1673ffffffffffffffffffffffffffffffffffffffff1663beabacc882600001513384602001516040518463ffffffff1660e01b8152600401610a3c939291906137e5565b602060405180830381600087803b158015610a5657600080fd5b505af1158015610a6a573d6000803e3d6000fd5b505050506040513d601f19601f82011682018060405250810190610a8e9190612fda565b50610a9e338260000151856110a5565b610aa783611fa7565b505050565b606060008054610abb90613fdd565b80601f0160208091040260200160405190810160405280929190818152602001828054610ae790613fdd565b8015610b345780601f10610b0957610100808354040283529160200191610b34565b820191906000526020600020905b815481529060010190602001808311610b1757829003601f168201915b5050505050905090565b6000610b4982612074565b610b88576040517f08c379a0000000000000000000000000000000000000000000000000000000008152600401610b7f90613b22565b60405180910390fd5b6004600083815260200190815260200160002060009054906101000a900473ffffffffffffffffffffffffffffffffffffffff169050919050565b6000610bce826110c5565b90508073ffffffffffffffffffffffffffffffffffffffff168373ffffffffffffffffffffffffffffffffffffffff161415610c3f576040517f08c379a0000000000000000000000000000000000000000000000000000000008152600401610c3690613ba2565b60405180910390fd5b8073ffffffffffffffffffffffffffffffffffffffff16610c5e6120e0565b73ffffffffffffffffffffffffffffffffffffffff161480610c8d5750610c8c81610c876120e0565b611c86565b5b610ccc576040517f08c379a0000000000000000000000000000000000000000000000000000000008152600401610cc390613a42565b60405180910390fd5b610cd683836120e8565b505050565b6060600a6000838152602001908152602001600020805480602002602001604051908101604052809291908181526020016000905b82821015610e2957838290600052602060002090600302016040518060600160405290816000820160009054906101000a900473ffffffffffffffffffffffffffffffffffffffff1673ffffffffffffffffffffffffffffffffffffffff1673ffffffffffffffffffffffffffffffffffffffff168152602001600182015481526020016002820160009054906101000a900460ff166002811115610dde577f4e487b7100000000000000000000000000000000000000000000000000000000600052602160045260246000fd5b6002811115610e16577f4e487b7100000000000000000000000000000000000000000000000000000000600052602160045260246000fd5b8152505081526020019060010190610d10565b505050509050919050565b610e45610e3f6120e0565b826121a1565b610e84576040517f08c379a0000000000000000000000000000000000000000000000000000000008152600401610e7b90613bc2565b60405180910390fd5b610e8f83838361227f565b505050565b6000825111610ed8576040517f08c379a0000000000000000000000000000000000000000000000000000000008152600401610ecf90613982565b60405180910390fd5b600760009054906101000a900473ffffffffffffffffffffffffffffffffffffffff1673ffffffffffffffffffffffffffffffffffffffff16637f5db3e8336040518263ffffffff1660e01b8152600401610f3391906137a1565b602060405180830381600087803b158015610f4d57600080fd5b505af1158015610f61573d6000803e3d6000fd5b505050506040513d601f19601f82011682018060405250810190610f859190612fda565b610fc4576040517f08c379a0000000000000000000000000000000000000000000000000000000008152600401610fbb90613c42565b60405180910390fd5b6040518060600160405280828152602001428152602001632598060042610feb9190613e23565b815250600960006008548152602001908152602001600020600082015181600001908051906020019061101f929190612c0c565b506020820151816001015560408201518160020155905050611043336008546124db565b61104f600854836124f9565b6008547fe035201264bc301f014898837139831792b61fd25d2a44511eaa8bac73575e8a3360405161108191906137a1565b60405180910390a26008600081548092919061109c90614040565b91905055505050565b6110c083838360405180602001604052806000815250611ad2565b505050565b6000806002600084815260200190815260200160002060009054906101000a900473ffffffffffffffffffffffffffffffffffffffff169050600073ffffffffffffffffffffffffffffffffffffffff168173ffffffffffffffffffffffffffffffffffffffff16141561116e576040517f08c379a000000000000000000000000000000000000000000000000000000000815260040161116590613a82565b60405180910390fd5b80915050919050565b60008073ffffffffffffffffffffffffffffffffffffffff168273ffffffffffffffffffffffffffffffffffffffff1614156111e8576040517f08c379a00000000000000000000000000000000000000000000000000000000081526004016111df90613a62565b60405180910390fd5b600360008373ffffffffffffffffffffffffffffffffffffffff1673ffffffffffffffffffffffffffffffffffffffff168152602001908152602001600020549050919050565b6000600854905090565b3373ffffffffffffffffffffffffffffffffffffffff16611259836110c5565b73ffffffffffffffffffffffffffffffffffffffff16146112af576040517f08c379a00000000000000000000000000000000000000000000000000000000081526004016112a6906139a2565b60405180910390fd5b80600a60008481526020019081526020016000208054905011611307576040517f08c379a00000000000000000000000000000000000000000000000000000000081526004016112fe90613be2565b60405180910390fd5b6000600a60008481526020019081526020016000208281548110611354577f4e487b7100000000000000000000000000000000000000000000000000000000600052603260045260246000fd5b906000526020600020906003020160020160006101000a81548160ff021916908360028111156113ad577f4e487b7100000000000000000000000000000000000000000000000000000000600052602160045260246000fd5b02179055507fbc154f7987a14b2fa030a8c69aea4ee9febfd621cc40bb12817668a9c3d6b96f826113dd846110c5565b600a60008681526020019081526020016000208481548110611428577f4e487b7100000000000000000000000000000000000000000000000000000000600052603260045260246000fd5b906000526020600020906003020160000160009054906101000a900473ffffffffffffffffffffffffffffffffffffffff1660405161146993929190613c9f565b60405180910390a15050565b60606001805461148490613fdd565b80601f01602080910402602001604051908101604052809291908181526020018280546114b090613fdd565b80156114fd5780601f106114d2576101008083540402835291602001916114fd565b820191906000526020600020905b8154815290600101906020018083116114e057829003601f168201915b5050505050905090565b61150f612c92565b6009600083815260200190815260200160002060405180606001604052908160008201805461153d90613fdd565b80601f016020809104026020016040519081016040528092919081815260200182805461156990613fdd565b80156115b65780601f1061158b576101008083540402835291602001916115b6565b820191906000526020600020905b81548152906001019060200180831161159957829003601f168201915b50505050508152602001600182015481526020016002820154815250509050919050565b6115e26120e0565b73ffffffffffffffffffffffffffffffffffffffff168273ffffffffffffffffffffffffffffffffffffffff161415611650576040517f08c379a000000000000000000000000000000000000000000000000000000000815260040161164790613a02565b60405180910390fd5b806005600061165d6120e0565b73ffffffffffffffffffffffffffffffffffffffff1673ffffffffffffffffffffffffffffffffffffffff16815260200190815260200160002060008473ffffffffffffffffffffffffffffffffffffffff1673ffffffffffffffffffffffffffffffffffffffff16815260200190815260200160002060006101000a81548160ff0219169083151502179055508173ffffffffffffffffffffffffffffffffffffffff1661170a6120e0565b73ffffffffffffffffffffffffffffffffffffffff167f17307eab39ab6107e8899845ad3d59bd9653f200f220920489ca2b5937696c318360405161174f91906138ac565b60405180910390a35050565b600073ffffffffffffffffffffffffffffffffffffffff1661177c836110c5565b73ffffffffffffffffffffffffffffffffffffffff1614156117d3576040517f08c379a00000000000000000000000000000000000000000000000000000000081526004016117ca90613c02565b60405180910390fd5b6117dc826110c5565b73ffffffffffffffffffffffffffffffffffffffff163373ffffffffffffffffffffffffffffffffffffffff16141561184a576040517f08c379a0000000000000000000000000000000000000000000000000000000008152600401611841906139c2565b60405180910390fd5b80600760009054906101000a900473ffffffffffffffffffffffffffffffffffffffff1673ffffffffffffffffffffffffffffffffffffffff166370a08231336040518263ffffffff1660e01b81526004016118a691906137a1565b60206040518083038186803b1580156118be57600080fd5b505afa1580156118d2573d6000803e3d6000fd5b505050506040513d601f19601f820116820180604052508101906118f691906130ea565b1015611937576040517f08c379a000000000000000000000000000000000000000000000000000000000815260040161192e90613ac2565b60405180910390fd5b600060405180606001604052803373ffffffffffffffffffffffffffffffffffffffff16815260200183815260200160028081111561199f577f4e487b7100000000000000000000000000000000000000000000000000000000600052602160045260246000fd5b8152509050600a600084815260200190815260200160002081908060018154018082558091505060019003906000526020600020906003020160009091909190915060008201518160000160006101000a81548173ffffffffffffffffffffffffffffffffffffffff021916908373ffffffffffffffffffffffffffffffffffffffff1602179055506020820151816001015560408201518160020160006101000a81548160ff02191690836002811115611a83577f4e487b7100000000000000000000000000000000000000000000000000000000600052602160045260246000fd5b021790555050507f4d0cbbf5e8ec1f02fd982d9a636d913a35d38e85d10199d578e4c105aebd282b83611ab5856110c5565b33604051611ac593929190613c9f565b60405180910390a1505050565b611ae3611add6120e0565b836121a1565b611b22576040517f08c379a0000000000000000000000000000000000000000000000000000000008152600401611b1990613bc2565b60405180910390fd5b611b2e8484848461256d565b50505050565b6060611b3f82612074565b611b7e576040517f08c379a0000000000000000000000000000000000000000000000000000000008152600401611b7590613b02565b60405180910390fd5b6000600660008481526020019081526020016000208054611b9e90613fdd565b80601f0160208091040260200160405190810160405280929190818152602001828054611bca90613fdd565b8015611c175780601f10611bec57610100808354040283529160200191611c17565b820191906000526020600020905b815481529060010190602001808311611bfa57829003601f168201915b505050505090506000611c286125c9565b9050600081511415611c3e578192505050611c81565b600082511115611c73578082604051602001611c5b92919061377d565b60405160208183030381529060405292505050611c81565b611c7c846125e0565b925050505b919050565b6000600560008473ffffffffffffffffffffffffffffffffffffffff1673ffffffffffffffffffffffffffffffffffffffff16815260200190815260200160002060008373ffffffffffffffffffffffffffffffffffffffff1673ffffffffffffffffffffffffffffffffffffffff16815260200190815260200160002060009054906101000a900460ff16905092915050565b6009602052806000526040600020600091509050806000018054611d3d90613fdd565b80601f0160208091040260200160405190810160405280929190818152602001828054611d6990613fdd565b8015611db65780601f10611d8b57610100808354040283529160200191611db6565b820191906000526020600020905b815481529060010190602001808311611d9957829003601f168201915b5050505050908060010154908060020154905083565b600760009054906101000a900473ffffffffffffffffffffffffffffffffffffffff1681565b60606000611dff83611177565b905060008167ffffffffffffffff811115611e43577f4e487b7100000000000000000000000000000000000000000000000000000000600052604160045260246000fd5b604051908082528060200260200182016040528015611e715781602001602082028036833780820191505090505b5090506000805b60085481108015611e8857508382105b15611f31578573ffffffffffffffffffffffffffffffffffffffff16611ead826110c5565b73ffffffffffffffffffffffffffffffffffffffff161415611f1e5780838381518110611f03577f4e487b7100000000000000000000000000000000000000000000000000000000600052603260045260246000fd5b6020026020010181815250508180611f1a90614040565b9250505b8080611f2990614040565b915050611e78565b50819350505050919050565b60007f01ffc9a7000000000000000000000000000000000000000000000000000000007bffffffffffffffffffffffffffffffffffffffffffffffffffffffff1916827bffffffffffffffffffffffffffffffffffffffffffffffffffffffff1916149050919050565b5b6000600a600083815260200190815260200160002080549050111561207157600a6000828152602001908152602001600020805480612010577f4e487b7100000000000000000000000000000000000000000000000000000000600052603160045260246000fd5b6001900381819060005260206000209060030201600080820160006101000a81549073ffffffffffffffffffffffffffffffffffffffff021916905560018201600090556002820160006101000a81549060ff021916905550509055611fa8565b50565b60008073ffffffffffffffffffffffffffffffffffffffff166002600084815260200190815260200160002060009054906101000a900473ffffffffffffffffffffffffffffffffffffffff1673ffffffffffffffffffffffffffffffffffffffff1614159050919050565b600033905090565b816004600083815260200190815260200160002060006101000a81548173ffffffffffffffffffffffffffffffffffffffff021916908373ffffffffffffffffffffffffffffffffffffffff160217905550808273ffffffffffffffffffffffffffffffffffffffff1661215b836110c5565b73ffffffffffffffffffffffffffffffffffffffff167f8c5be1e5ebec7d5bd14f71427d1e84f3dd0314c0f7b2291e5b200ac8c7c3b92560405160405180910390a45050565b60006121ac82612074565b6121eb576040517f08c379a00000000000000000000000000000000000000000000000000000000081526004016121e290613a22565b60405180910390fd5b60006121f6836110c5565b90508073ffffffffffffffffffffffffffffffffffffffff168473ffffffffffffffffffffffffffffffffffffffff16148061226557508373ffffffffffffffffffffffffffffffffffffffff1661224d84610b3e565b73ffffffffffffffffffffffffffffffffffffffff16145b8061227657506122758185611c86565b5b91505092915050565b8273ffffffffffffffffffffffffffffffffffffffff1661229f826110c5565b73ffffffffffffffffffffffffffffffffffffffff16146122f5576040517f08c379a00000000000000000000000000000000000000000000000000000000081526004016122ec90613b42565b60405180910390fd5b600073ffffffffffffffffffffffffffffffffffffffff168273ffffffffffffffffffffffffffffffffffffffff161415612365576040517f08c379a000000000000000000000000000000000000000000000000000000000815260040161235c906139e2565b60405180910390fd5b612370838383612687565b61237b6000826120e8565b6001600360008573ffffffffffffffffffffffffffffffffffffffff1673ffffffffffffffffffffffffffffffffffffffff16815260200190815260200160002060008282546123cb9190613eaa565b925050819055506001600360008473ffffffffffffffffffffffffffffffffffffffff1673ffffffffffffffffffffffffffffffffffffffff16815260200190815260200160002060008282546124229190613e23565b92505081905550816002600083815260200190815260200160002060006101000a81548173ffffffffffffffffffffffffffffffffffffffff021916908373ffffffffffffffffffffffffffffffffffffffff160217905550808273ffffffffffffffffffffffffffffffffffffffff168473ffffffffffffffffffffffffffffffffffffffff167fddf252ad1be2c89b69c2b068fc378daa952ba7f163c4a11628f55a4df523b3ef60405160405180910390a4505050565b6124f582826040518060200160405280600081525061268c565b5050565b61250282612074565b612541576040517f08c379a000000000000000000000000000000000000000000000000000000000815260040161253890613aa2565b60405180910390fd5b80600660008481526020019081526020016000209080519060200190612568929190612c0c565b505050565b61257884848461227f565b612584848484846126e7565b6125c3576040517f08c379a00000000000000000000000000000000000000000000000000000000081526004016125ba90613942565b60405180910390fd5b50505050565b606060405180602001604052806000815250905090565b60606125eb82612074565b61262a576040517f08c379a000000000000000000000000000000000000000000000000000000000815260040161262190613b62565b60405180910390fd5b60006126346125c9565b90506000815111612654576040518060200160405280600081525061267f565b8061265e8461287e565b60405160200161266f92919061377d565b6040516020818303038152906040525b915050919050565b505050565b6126968383612a2b565b6126a360008484846126e7565b6126e2576040517f08c379a00000000000000000000000000000000000000000000000000000000081526004016126d990613942565b60405180910390fd5b505050565b60006127088473ffffffffffffffffffffffffffffffffffffffff16612bf9565b15612871578373ffffffffffffffffffffffffffffffffffffffff1663150b7a026127316120e0565b8786866040518563ffffffff1660e01b8152600401612753949392919061381c565b602060405180830381600087803b15801561276d57600080fd5b505af192505050801561279e57506040513d601f19601f8201168201806040525081019061279b919061302c565b60015b612821573d80600081146127ce576040519150601f19603f3d011682016040523d82523d6000602084013e6127d3565b606091505b50600081511415612819576040517f08c379a000000000000000000000000000000000000000000000000000000000815260040161281090613942565b60405180910390fd5b805181602001fd5b63150b7a0260e01b7bffffffffffffffffffffffffffffffffffffffffffffffffffffffff1916817bffffffffffffffffffffffffffffffffffffffffffffffffffffffff191614915050612876565b600190505b949350505050565b606060008214156128c6576040518060400160405280600181526020017f30000000000000000000000000000000000000000000000000000000000000008152509050612a26565b600082905060005b600082146128f85780806128e190614040565b915050600a826128f19190613e79565b91506128ce565b60008167ffffffffffffffff81111561293a577f4e487b7100000000000000000000000000000000000000000000000000000000600052604160045260246000fd5b6040519080825280601f01601f19166020018201604052801561296c5781602001600182028036833780820191505090505b5090505b60008514612a1f576001826129859190613eaa565b9150600a856129949190614089565b60306129a09190613e23565b60f81b8183815181106129dc577f4e487b7100000000000000000000000000000000000000000000000000000000600052603260045260246000fd5b60200101907effffffffffffffffffffffffffffffffffffffffffffffffffffffffffffff1916908160001a905350600a85612a189190613e79565b9450612970565b8093505050505b919050565b600073ffffffffffffffffffffffffffffffffffffffff168273ffffffffffffffffffffffffffffffffffffffff161415612a9b576040517f08c379a0000000000000000000000000000000000000000000000000000000008152600401612a9290613ae2565b60405180910390fd5b612aa481612074565b15612ae4576040517f08c379a0000000000000000000000000000000000000000000000000000000008152600401612adb90613962565b60405180910390fd5b612af060008383612687565b6001600360008473ffffffffffffffffffffffffffffffffffffffff1673ffffffffffffffffffffffffffffffffffffffff1681526020019081526020016000206000828254612b409190613e23565b92505081905550816002600083815260200190815260200160002060006101000a81548173ffffffffffffffffffffffffffffffffffffffff021916908373ffffffffffffffffffffffffffffffffffffffff160217905550808273ffffffffffffffffffffffffffffffffffffffff16600073ffffffffffffffffffffffffffffffffffffffff167fddf252ad1be2c89b69c2b068fc378daa952ba7f163c4a11628f55a4df523b3ef60405160405180910390a45050565b600080823b905060008111915050919050565b828054612c1890613fdd565b90600052602060002090601f016020900481019282612c3a5760008555612c81565b82601f10612c5357805160ff1916838001178555612c81565b82800160010185558215612c81579182015b82811115612c80578251825591602001919060010190612c65565b5b509050612c8e9190612cb3565b5090565b60405180606001604052806060815260200160008152602001600081525090565b5b80821115612ccc576000816000905550600101612cb4565b5090565b6000612ce3612cde84613cfb565b613cd6565b905082815260208101848484011115612cfb57600080fd5b612d06848285613f9b565b509392505050565b6000612d21612d1c84613d2c565b613cd6565b905082815260208101848484011115612d3957600080fd5b612d44848285613f9b565b509392505050565b600081359050612d5b8161482b565b92915050565b600081359050612d7081614842565b92915050565b600081519050612d8581614842565b92915050565b600081359050612d9a81614859565b92915050565b600081519050612daf81614859565b92915050565b600082601f830112612dc657600080fd5b8135612dd6848260208601612cd0565b91505092915050565b600082601f830112612df057600080fd5b8135612e00848260208601612d0e565b91505092915050565b600081359050612e1881614870565b92915050565b600081519050612e2d81614870565b92915050565b600060208284031215612e4557600080fd5b6000612e5384828501612d4c565b91505092915050565b60008060408385031215612e6f57600080fd5b6000612e7d85828601612d4c565b9250506020612e8e85828601612d4c565b9150509250929050565b600080600060608486031215612ead57600080fd5b6000612ebb86828701612d4c565b9350506020612ecc86828701612d4c565b9250506040612edd86828701612e09565b9150509250925092565b60008060008060808587031215612efd57600080fd5b6000612f0b87828801612d4c565b9450506020612f1c87828801612d4c565b9350506040612f2d87828801612e09565b925050606085013567ffffffffffffffff811115612f4a57600080fd5b612f5687828801612db5565b91505092959194509250565b60008060408385031215612f7557600080fd5b6000612f8385828601612d4c565b9250506020612f9485828601612d61565b9150509250929050565b60008060408385031215612fb157600080fd5b6000612fbf85828601612d4c565b9250506020612fd085828601612e09565b9150509250929050565b600060208284031215612fec57600080fd5b6000612ffa84828501612d76565b91505092915050565b60006020828403121561301557600080fd5b600061302384828501612d8b565b91505092915050565b60006020828403121561303e57600080fd5b600061304c84828501612da0565b91505092915050565b6000806040838503121561306857600080fd5b600083013567ffffffffffffffff81111561308257600080fd5b61308e85828601612ddf565b925050602083013567ffffffffffffffff8111156130ab57600080fd5b6130b785828601612ddf565b9150509250929050565b6000602082840312156130d357600080fd5b60006130e184828501612e09565b91505092915050565b6000602082840312156130fc57600080fd5b600061310a84828501612e1e565b91505092915050565b6000806040838503121561312657600080fd5b600061313485828601612e09565b925050602061314585828601612e09565b9150509250929050565b600061315b83836136cd565b60608301905092915050565b6000613173838361375f565b60208301905092915050565b61318881613ede565b82525050565b61319781613ede565b82525050565b60006131a882613d7d565b6131b28185613dc3565b93506131bd83613d5d565b8060005b838110156131ee5781516131d5888261314f565b97506131e083613da9565b9250506001810190506131c1565b5085935050505092915050565b600061320682613d88565b6132108185613dd4565b935061321b83613d6d565b8060005b8381101561324c5781516132338882613167565b975061323e83613db6565b92505060018101905061321f565b5085935050505092915050565b61326281613ef0565b82525050565b600061327382613d93565b61327d8185613de5565b935061328d818560208601613faa565b613296816141a5565b840191505092915050565b6132aa81613f65565b82525050565b6132b981613f89565b82525050565b60006132ca82613d9e565b6132d48185613df6565b93506132e4818560208601613faa565b6132ed816141a5565b840191505092915050565b600061330382613d9e565b61330d8185613e07565b935061331d818560208601613faa565b613326816141a5565b840191505092915050565b600061333c82613d9e565b6133468185613e18565b9350613356818560208601613faa565b80840191505092915050565b600061336f603283613e07565b915061337a826141b6565b604082019050919050565b6000613392601c83613e07565b915061339d82614205565b602082019050919050565b60006133b5601283613e07565b91506133c08261422e565b602082019050919050565b60006133d8602383613e07565b91506133e382614257565b604082019050919050565b60006133fb602783613e07565b9150613406826142a6565b604082019050919050565b600061341e602483613e07565b9150613429826142f5565b604082019050919050565b6000613441601983613e07565b915061344c82614344565b602082019050919050565b6000613464602c83613e07565b915061346f8261436d565b604082019050919050565b6000613487603883613e07565b9150613492826143bc565b604082019050919050565b60006134aa602a83613e07565b91506134b58261440b565b604082019050919050565b60006134cd602983613e07565b91506134d88261445a565b604082019050919050565b60006134f0602e83613e07565b91506134fb826144a9565b604082019050919050565b6000613513601b83613e07565b915061351e826144f8565b602082019050919050565b6000613536602083613e07565b915061354182614521565b602082019050919050565b6000613559603183613e07565b91506135648261454a565b604082019050919050565b600061357c602c83613e07565b915061358782614599565b604082019050919050565b600061359f602983613e07565b91506135aa826145e8565b604082019050919050565b60006135c2602f83613e07565b91506135cd82614637565b604082019050919050565b60006135e5602483613e07565b91506135f082614686565b604082019050919050565b6000613608602183613e07565b9150613613826146d5565b604082019050919050565b600061362b603183613e07565b915061363682614724565b604082019050919050565b600061364e601283613e07565b915061365982614773565b602082019050919050565b6000613671601983613e07565b915061367c8261479c565b602082019050919050565b6000613694601c83613e07565b915061369f826147c5565b602082019050919050565b60006136b7601983613e07565b91506136c2826147ee565b602082019050919050565b6060820160008201516136e3600085018261317f565b5060208201516136f6602085018261375f565b50604082015161370960408501826132b0565b50505050565b6000606083016000830151848203600086015261372c82826132bf565b9150506020830151613741602086018261375f565b506040830151613754604086018261375f565b508091505092915050565b61376881613f5b565b82525050565b61377781613f5b565b82525050565b60006137898285613331565b91506137958284613331565b91508190509392505050565b60006020820190506137b6600083018461318e565b92915050565b60006040820190506137d1600083018561318e565b6137de602083018461318e565b9392505050565b60006060820190506137fa600083018661318e565b613807602083018561318e565b613814604083018461376e565b949350505050565b6000608082019050613831600083018761318e565b61383e602083018661318e565b61384b604083018561376e565b818103606083015261385d8184613268565b905095945050505050565b60006020820190508181036000830152613882818461319d565b905092915050565b600060208201905081810360008301526138a481846131fb565b905092915050565b60006020820190506138c16000830184613259565b92915050565b60006020820190506138dc60008301846132a1565b92915050565b600060208201905081810360008301526138fc81846132f8565b905092915050565b6000606082019050818103600083015261391e81866132f8565b905061392d602083018561376e565b61393a604083018461376e565b949350505050565b6000602082019050818103600083015261395b81613362565b9050919050565b6000602082019050818103600083015261397b81613385565b9050919050565b6000602082019050818103600083015261399b816133a8565b9050919050565b600060208201905081810360008301526139bb816133cb565b9050919050565b600060208201905081810360008301526139db816133ee565b9050919050565b600060208201905081810360008301526139fb81613411565b9050919050565b60006020820190508181036000830152613a1b81613434565b9050919050565b60006020820190508181036000830152613a3b81613457565b9050919050565b60006020820190508181036000830152613a5b8161347a565b9050919050565b60006020820190508181036000830152613a7b8161349d565b9050919050565b60006020820190508181036000830152613a9b816134c0565b9050919050565b60006020820190508181036000830152613abb816134e3565b9050919050565b60006020820190508181036000830152613adb81613506565b9050919050565b60006020820190508181036000830152613afb81613529565b9050919050565b60006020820190508181036000830152613b1b8161354c565b9050919050565b60006020820190508181036000830152613b3b8161356f565b9050919050565b60006020820190508181036000830152613b5b81613592565b9050919050565b60006020820190508181036000830152613b7b816135b5565b9050919050565b60006020820190508181036000830152613b9b816135d8565b9050919050565b60006020820190508181036000830152613bbb816135fb565b9050919050565b60006020820190508181036000830152613bdb8161361e565b9050919050565b60006020820190508181036000830152613bfb81613641565b9050919050565b60006020820190508181036000830152613c1b81613664565b9050919050565b60006020820190508181036000830152613c3b81613687565b9050919050565b60006020820190508181036000830152613c5b816136aa565b9050919050565b60006020820190508181036000830152613c7c818461370f565b905092915050565b6000602082019050613c99600083018461376e565b92915050565b6000606082019050613cb4600083018661376e565b613cc1602083018561318e565b613cce604083018461318e565b949350505050565b6000613ce0613cf1565b9050613cec828261400f565b919050565b6000604051905090565b600067ffffffffffffffff821115613d1657613d15614176565b5b613d1f826141a5565b9050602081019050919050565b600067ffffffffffffffff821115613d4757613d46614176565b5b613d50826141a5565b9050602081019050919050565b6000819050602082019050919050565b6000819050602082019050919050565b600081519050919050565b600081519050919050565b600081519050919050565b600081519050919050565b6000602082019050919050565b6000602082019050919050565b600082825260208201905092915050565b600082825260208201905092915050565b600082825260208201905092915050565b600082825260208201905092915050565b600082825260208201905092915050565b600081905092915050565b6000613e2e82613f5b565b9150613e3983613f5b565b9250827fffffffffffffffffffffffffffffffffffffffffffffffffffffffffffffffff03821115613e6e57613e6d6140ba565b5b828201905092915050565b6000613e8482613f5b565b9150613e8f83613f5b565b925082613e9f57613e9e6140e9565b5b828204905092915050565b6000613eb582613f5b565b9150613ec083613f5b565b925082821015613ed357613ed26140ba565b5b828203905092915050565b6000613ee982613f3b565b9050919050565b60008115159050919050565b60007fffffffff0000000000000000000000000000000000000000000000000000000082169050919050565b6000819050613f3682614817565b919050565b600073ffffffffffffffffffffffffffffffffffffffff82169050919050565b6000819050919050565b6000613f7082613f77565b9050919050565b6000613f8282613f3b565b9050919050565b6000613f9482613f28565b9050919050565b82818337600083830152505050565b60005b83811015613fc8578082015181840152602081019050613fad565b83811115613fd7576000848401525b50505050565b60006002820490506001821680613ff557607f821691505b6020821081141561400957614008614147565b5b50919050565b614018826141a5565b810181811067ffffffffffffffff8211171561403757614036614176565b5b80604052505050565b600061404b82613f5b565b91507fffffffffffffffffffffffffffffffffffffffffffffffffffffffffffffffff82141561407e5761407d6140ba565b5b600182019050919050565b600061409482613f5b565b915061409f83613f5b565b9250826140af576140ae6140e9565b5b828206905092915050565b7f4e487b7100000000000000000000000000000000000000000000000000000000600052601160045260246000fd5b7f4e487b7100000000000000000000000000000000000000000000000000000000600052601260045260246000fd5b7f4e487b7100000000000000000000000000000000000000000000000000000000600052602160045260246000fd5b7f4e487b7100000000000000000000000000000000000000000000000000000000600052602260045260246000fd5b7f4e487b7100000000000000000000000000000000000000000000000000000000600052604160045260246000fd5b6000601f19601f8301169050919050565b7f4552433732313a207472616e7366657220746f206e6f6e20455243373231526560008201527f63656976657220696d706c656d656e7465720000000000000000000000000000602082015250565b7f4552433732313a20746f6b656e20616c7265616479206d696e74656400000000600082015250565b7f555249206973206e6f7420646566696e65640000000000000000000000000000600082015250565b7f596f7520617265206e6f7420746865206f776e6572206f66207468652070617460008201527f656e740000000000000000000000000000000000000000000000000000000000602082015250565b7f596f752061726520616c726561647920746865206f776e6572206f662074686560008201527f20706174656e7400000000000000000000000000000000000000000000000000602082015250565b7f4552433732313a207472616e7366657220746f20746865207a65726f2061646460008201527f7265737300000000000000000000000000000000000000000000000000000000602082015250565b7f4552433732313a20617070726f766520746f2063616c6c657200000000000000600082015250565b7f4552433732313a206f70657261746f7220717565727920666f72206e6f6e657860008201527f697374656e7420746f6b656e0000000000000000000000000000000000000000602082015250565b7f4552433732313a20617070726f76652063616c6c6572206973206e6f74206f7760008201527f6e6572206e6f7220617070726f76656420666f7220616c6c0000000000000000602082015250565b7f4552433732313a2062616c616e636520717565727920666f7220746865207a6560008201527f726f206164647265737300000000000000000000000000000000000000000000602082015250565b7f4552433732313a206f776e657220717565727920666f72206e6f6e657869737460008201527f656e7420746f6b656e0000000000000000000000000000000000000000000000602082015250565b7f45524337323155524953746f726167653a2055524920736574206f66206e6f6e60008201527f6578697374656e7420746f6b656e000000000000000000000000000000000000602082015250565b7f596f7520646f206e6f74206861766520656e6f7567682050544e540000000000600082015250565b7f4552433732313a206d696e7420746f20746865207a65726f2061646472657373600082015250565b7f45524337323155524953746f726167653a2055524920717565727920666f722060008201527f6e6f6e6578697374656e7420746f6b656e000000000000000000000000000000602082015250565b7f4552433732313a20617070726f76656420717565727920666f72206e6f6e657860008201527f697374656e7420746f6b656e0000000000000000000000000000000000000000602082015250565b7f4552433732313a207472616e73666572206f6620746f6b656e2074686174206960008201527f73206e6f74206f776e0000000000000000000000000000000000000000000000602082015250565b7f4552433732314d657461646174613a2055524920717565727920666f72206e6f60008201527f6e6578697374656e7420746f6b656e0000000000000000000000000000000000602082015250565b7f5468652062696464657220646f6573206e6f74206861766520656e6f7567682060008201527f50544e5400000000000000000000000000000000000000000000000000000000602082015250565b7f4552433732313a20617070726f76616c20746f2063757272656e74206f776e6560008201527f7200000000000000000000000000000000000000000000000000000000000000602082015250565b7f4552433732313a207472616e736665722063616c6c6572206973206e6f74206f60008201527f776e6572206e6f7220617070726f766564000000000000000000000000000000602082015250565b7f496e646578206f7574206f662072616e67650000000000000000000000000000600082015250565b7f54686520706174656e7420646f6573206e6f7420657869737400000000000000600082015250565b7f596f752063616e206e6f742061636365707420796f7572206269647300000000600082015250565b7f46696c696e6720666565207061796d656e74206661696c656400000000000000600082015250565b6003811061482857614827614118565b5b50565b61483481613ede565b811461483f57600080fd5b50565b61484b81613ef0565b811461485657600080fd5b50565b61486281613efc565b811461486d57600080fd5b50565b61487981613f5b565b811461488457600080fd5b5056fea2646970667358221220a10bb2bfa15d31ff6a4eb2a3745b0142acd70c4a63edd7e6dbfabc8b67aa6da064736f6c63430008020033",
  "immutableReferences": {},
  "source": "// SPDX-License-Identifier: MIT\r\npragma solidity >=0.4.22 <0.9.0;\r\n\r\nimport \"@openzeppelin/contracts/token/ERC721/extensions/ERC721URIStorage.sol\";\r\n\r\n\r\ninterface IPatentToken{\r\n    function transfer(address from, address to, uint amount) external returns (bool);\r\n    function balanceOf(address account) external view returns(uint);\r\n    function payFilingFee(address sender) external returns(bool);\r\n}\r\n\r\n\r\n/// @title PatentNFT contract\r\n/// @author Carolina Proietti, Edoardo Giuggioloni, Paolo Marchignoli, Ruben Seror \r\n/// @notice You can use this contract to file patent, buy and sell associated NFTs\r\ncontract PatentNFT is ERC721URIStorage{\r\n\r\n    // Struttura dei brevetti\r\n    struct Patent {\r\n        string name; //brevetto in vendita (s/n)\r\n        uint timestamp;//data deposito brevetto\r\n        uint deadline;//scadenza brevetto\r\n    }\r\n\r\n    enum State {Refused, Accepted, Pending}\r\n\r\n    struct Bid{\r\n        address bidder;\r\n        uint amount;\r\n        State state;\r\n    }\r\n\r\n    IPatentToken public token;\r\n    uint private patentCounter;\r\n    mapping(uint => Patent) public patents;\r\n    mapping(uint => Bid[]) bids;\r\n\r\n    //evento deposito\r\n    event PatentFiled(uint indexed patentId, address owner);\r\n    //evento cessione\r\n    event PatentAssignment(uint indexed patentId, address from, address to);\r\n    //evento offerta rifiutata\r\n    event BidRefused(uint tokenId, address owner, address bidder);\r\n    //evento offerta\r\n    event MakeBid(uint tokenId, address owner, address bidder);\r\n\r\n    constructor(address tokenAddress) ERC721(\"PatentNFT\",\"PTNFT\"){\r\n        token = IPatentToken(tokenAddress);\r\n        patentCounter = 0;\r\n    }\r\n\r\n    ///@notice method that allow user to file their patents\r\n    ///@param _uri URI of the filed Patent in IPFS\r\n    function filePatent(string memory _uri, string memory _name) public{\r\n        require(bytes(_uri).length > 0,'URI is not defined');\r\n        require(token.payFilingFee(msg.sender),'Filing fee payment failed');\r\n\r\n        patents[patentCounter] = Patent({ \r\n            name: _name, \r\n            timestamp: block.timestamp,\r\n            deadline: block.timestamp + (20 * 365 days)});\r\n        _safeMint(msg.sender, patentCounter);\r\n        _setTokenURI(patentCounter, _uri);\r\n        emit PatentFiled(patentCounter, msg.sender);\r\n        patentCounter++;\r\n    }\r\n\r\n\r\n    ///@notice return number of filed patents\r\n    function getTokenCount() public view returns(uint){\r\n        return patentCounter;\r\n    }\r\n\r\n    function getBids(uint tokenId) public view returns(Bid[] memory){\r\n        //require(ownerOf(tokenId) == msg.sender,'You are not the owner of the patent');\r\n        return bids[tokenId];\r\n    }\r\n\r\n    function rejectBid(uint tokenId, uint indexBid) public{\r\n        require(ownerOf(tokenId) == msg.sender,'You are not the owner of the patent');\r\n        require(bids[tokenId].length > indexBid, 'Index out of range');\r\n        bids[tokenId][indexBid].state = State.Refused;\r\n        emit BidRefused(tokenId, ownerOf(tokenId), bids[tokenId][indexBid].bidder);\r\n    }\r\n\r\n    function acceptBid(uint tokenId, uint indexBid) public{\r\n        require(ownerOf(tokenId) == msg.sender,'You are not the owner of the patent');\r\n        require(bids[tokenId].length > indexBid, 'Index out of range');\r\n        Bid memory bid = bids[tokenId][indexBid];\r\n        require(bid.state == State.Pending);\r\n        require(ownerOf(tokenId) != bid.bidder, 'You can not accept your bids');\r\n        require(token.balanceOf(bid.bidder) >= bid.amount, 'The bidder does not have enough PTNT');\r\n        emit PatentAssignment(tokenId, msg.sender, bid.bidder);\r\n        token.transfer(bid.bidder, msg.sender, bid.amount);\r\n        safeTransferFrom(msg.sender, bid.bidder, tokenId);\r\n        clearBids(tokenId);\r\n    }\r\n\r\n    function makeBid(uint patentId, uint amount) public{\r\n        require(ownerOf(patentId) != address(0), 'The patent does not exist');\r\n        require(msg.sender != ownerOf(patentId),'You are already the owner of the patent');\r\n        require(token.balanceOf(msg.sender) >= amount, 'You do not have enough PTNT');\r\n        \r\n        Bid memory bid = Bid({\r\n            bidder: msg.sender,\r\n            amount: amount,\r\n            state: State.Pending\r\n        });\r\n        bids[patentId].push(bid);\r\n        emit MakeBid(patentId, ownerOf(patentId), msg.sender);\r\n    }\r\n\r\n    function clearBids(uint patentId) internal {\r\n        while(bids[patentId].length > 0){\r\n            bids[patentId].pop();\r\n        }\r\n    }\r\n\r\n    function getPatent(uint patentId) public view returns(Patent memory){\r\n        return patents[patentId];\r\n\r\n    }\r\n\r\n    function getPatentsByOwner(address owner) external view returns (uint[] memory) {\r\n        uint tokenCount = balanceOf(owner);\r\n        uint[] memory tokens = new uint[](tokenCount);\r\n        uint count = 0;\r\n        for(uint i = 0; i < patentCounter && count < tokenCount; i++) {\r\n            if (ownerOf(i) == owner) {\r\n                tokens[count] = i;\r\n                count++;\r\n            }\r\n            \r\n        }\r\n\r\n        return tokens;\r\n    }\r\n    \r\n\r\n\r\n\r\n}",
  "sourcePath": "C:\\Users\\Paolo\\OneDrive\\Documenti\\testBlockchain\\PatentLink\\patent\\contracts\\PatentNFT.sol",
  "compiler": {
    "name": "solc",
    "version": "0.8.2+commit.661d1103.Emscripten.clang"
  },
  "schemaVersion": "3.4.16",
  "updatedAt": "2024-01-21T16:33:32.192Z",
  "networkType": "ethereum",
  "devdoc": {
    "author": "Carolina Proietti, Edoardo Giuggioloni, Paolo Marchignoli, Ruben Seror ",
    "kind": "dev",
    "methods": {
      "approve(address,uint256)": {
        "details": "See {IERC721-approve}."
      },
      "balanceOf(address)": {
        "details": "See {IERC721-balanceOf}."
      },
      "filePatent(string,string)": {
        "params": {
          "_uri": "URI of the filed Patent in IPFS"
        }
      },
      "getApproved(uint256)": {
        "details": "See {IERC721-getApproved}."
      },
      "isApprovedForAll(address,address)": {
        "details": "See {IERC721-isApprovedForAll}."
      },
      "name()": {
        "details": "See {IERC721Metadata-name}."
      },
      "ownerOf(uint256)": {
        "details": "See {IERC721-ownerOf}."
      },
      "safeTransferFrom(address,address,uint256)": {
        "details": "See {IERC721-safeTransferFrom}."
      },
      "safeTransferFrom(address,address,uint256,bytes)": {
        "details": "See {IERC721-safeTransferFrom}."
      },
      "setApprovalForAll(address,bool)": {
        "details": "See {IERC721-setApprovalForAll}."
      },
      "supportsInterface(bytes4)": {
        "details": "See {IERC165-supportsInterface}."
      },
      "symbol()": {
        "details": "See {IERC721Metadata-symbol}."
      },
      "tokenURI(uint256)": {
        "details": "See {IERC721Metadata-tokenURI}."
      },
      "transferFrom(address,address,uint256)": {
        "details": "See {IERC721-transferFrom}."
      }
    },
    "title": "PatentNFT contract",
    "version": 1
  },
  "userdoc": {
    "kind": "user",
    "methods": {
      "filePatent(string,string)": {
        "notice": "method that allow user to file their patents"
      },
      "getTokenCount()": {
        "notice": "return number of filed patents"
      }
    },
    "notice": "You can use this contract to file patent, buy and sell associated NFTs",
    "version": 1
  }
}