{
  "contractName": "PatentNFT",
  "abi": [
    {
      "inputs": [
        {
          "internalType": "address",
          "name": "tokenAddress",
          "type": "address"
        }
      ],
      "stateMutability": "nonpayable",
      "type": "constructor"
    },
    {
      "anonymous": false,
      "inputs": [
        {
          "indexed": true,
          "internalType": "address",
          "name": "owner",
          "type": "address"
        },
        {
          "indexed": true,
          "internalType": "address",
          "name": "approved",
          "type": "address"
        },
        {
          "indexed": true,
          "internalType": "uint256",
          "name": "tokenId",
          "type": "uint256"
        }
      ],
      "name": "Approval",
      "type": "event"
    },
    {
      "anonymous": false,
      "inputs": [
        {
          "indexed": true,
          "internalType": "address",
          "name": "owner",
          "type": "address"
        },
        {
          "indexed": true,
          "internalType": "address",
          "name": "operator",
          "type": "address"
        },
        {
          "indexed": false,
          "internalType": "bool",
          "name": "approved",
          "type": "bool"
        }
      ],
      "name": "ApprovalForAll",
      "type": "event"
    },
    {
      "anonymous": false,
      "inputs": [
        {
          "indexed": false,
          "internalType": "uint256",
          "name": "tokenId",
          "type": "uint256"
        },
        {
          "indexed": false,
          "internalType": "address",
          "name": "owner",
          "type": "address"
        },
        {
          "indexed": false,
          "internalType": "address",
          "name": "bidder",
          "type": "address"
        }
      ],
      "name": "BidRefused",
      "type": "event"
    },
    {
      "anonymous": false,
      "inputs": [
        {
          "indexed": false,
          "internalType": "uint256",
          "name": "tokenId",
          "type": "uint256"
        },
        {
          "indexed": false,
          "internalType": "address",
          "name": "owner",
          "type": "address"
        },
        {
          "indexed": false,
          "internalType": "address",
          "name": "bidder",
          "type": "address"
        }
      ],
      "name": "MakeBid",
      "type": "event"
    },
    {
      "anonymous": false,
      "inputs": [
        {
          "indexed": true,
          "internalType": "uint256",
          "name": "patentId",
          "type": "uint256"
        },
        {
          "indexed": false,
          "internalType": "address",
          "name": "from",
          "type": "address"
        },
        {
          "indexed": false,
          "internalType": "address",
          "name": "to",
          "type": "address"
        }
      ],
      "name": "PatentAssignment",
      "type": "event"
    },
    {
      "anonymous": false,
      "inputs": [
        {
          "indexed": true,
          "internalType": "uint256",
          "name": "patentId",
          "type": "uint256"
        },
        {
          "indexed": false,
          "internalType": "address",
          "name": "owner",
          "type": "address"
        }
      ],
      "name": "PatentFiled",
      "type": "event"
    },
    {
      "anonymous": false,
      "inputs": [
        {
          "indexed": true,
          "internalType": "address",
          "name": "from",
          "type": "address"
        },
        {
          "indexed": true,
          "internalType": "address",
          "name": "to",
          "type": "address"
        },
        {
          "indexed": true,
          "internalType": "uint256",
          "name": "tokenId",
          "type": "uint256"
        }
      ],
      "name": "Transfer",
      "type": "event"
    },
    {
      "inputs": [
        {
          "internalType": "address",
          "name": "to",
          "type": "address"
        },
        {
          "internalType": "uint256",
          "name": "tokenId",
          "type": "uint256"
        }
      ],
      "name": "approve",
      "outputs": [],
      "stateMutability": "nonpayable",
      "type": "function"
    },
    {
      "inputs": [
        {
          "internalType": "address",
          "name": "owner",
          "type": "address"
        }
      ],
      "name": "balanceOf",
      "outputs": [
        {
          "internalType": "uint256",
          "name": "",
          "type": "uint256"
        }
      ],
      "stateMutability": "view",
      "type": "function",
      "constant": true
    },
    {
      "inputs": [
        {
          "internalType": "uint256",
          "name": "tokenId",
          "type": "uint256"
        }
      ],
      "name": "getApproved",
      "outputs": [
        {
          "internalType": "address",
          "name": "",
          "type": "address"
        }
      ],
      "stateMutability": "view",
      "type": "function",
      "constant": true
    },
    {
      "inputs": [
        {
          "internalType": "address",
          "name": "owner",
          "type": "address"
        },
        {
          "internalType": "address",
          "name": "operator",
          "type": "address"
        }
      ],
      "name": "isApprovedForAll",
      "outputs": [
        {
          "internalType": "bool",
          "name": "",
          "type": "bool"
        }
      ],
      "stateMutability": "view",
      "type": "function",
      "constant": true
    },
    {
      "inputs": [],
      "name": "name",
      "outputs": [
        {
          "internalType": "string",
          "name": "",
          "type": "string"
        }
      ],
      "stateMutability": "view",
      "type": "function",
      "constant": true
    },
    {
      "inputs": [
        {
          "internalType": "uint256",
          "name": "tokenId",
          "type": "uint256"
        }
      ],
      "name": "ownerOf",
      "outputs": [
        {
          "internalType": "address",
          "name": "",
          "type": "address"
        }
      ],
      "stateMutability": "view",
      "type": "function",
      "constant": true
    },
    {
      "inputs": [
        {
          "internalType": "uint256",
          "name": "",
          "type": "uint256"
        }
      ],
      "name": "patents",
      "outputs": [
        {
          "internalType": "string",
          "name": "name",
          "type": "string"
        },
        {
          "internalType": "uint256",
          "name": "timestamp",
          "type": "uint256"
        },
        {
          "internalType": "uint256",
          "name": "deadline",
          "type": "uint256"
        }
      ],
      "stateMutability": "view",
      "type": "function",
      "constant": true
    },
    {
      "inputs": [
        {
          "internalType": "address",
          "name": "from",
          "type": "address"
        },
        {
          "internalType": "address",
          "name": "to",
          "type": "address"
        },
        {
          "internalType": "uint256",
          "name": "tokenId",
          "type": "uint256"
        }
      ],
      "name": "safeTransferFrom",
      "outputs": [],
      "stateMutability": "nonpayable",
      "type": "function"
    },
    {
      "inputs": [
        {
          "internalType": "address",
          "name": "from",
          "type": "address"
        },
        {
          "internalType": "address",
          "name": "to",
          "type": "address"
        },
        {
          "internalType": "uint256",
          "name": "tokenId",
          "type": "uint256"
        },
        {
          "internalType": "bytes",
          "name": "_data",
          "type": "bytes"
        }
      ],
      "name": "safeTransferFrom",
      "outputs": [],
      "stateMutability": "nonpayable",
      "type": "function"
    },
    {
      "inputs": [
        {
          "internalType": "address",
          "name": "operator",
          "type": "address"
        },
        {
          "internalType": "bool",
          "name": "approved",
          "type": "bool"
        }
      ],
      "name": "setApprovalForAll",
      "outputs": [],
      "stateMutability": "nonpayable",
      "type": "function"
    },
    {
      "inputs": [
        {
          "internalType": "bytes4",
          "name": "interfaceId",
          "type": "bytes4"
        }
      ],
      "name": "supportsInterface",
      "outputs": [
        {
          "internalType": "bool",
          "name": "",
          "type": "bool"
        }
      ],
      "stateMutability": "view",
      "type": "function",
      "constant": true
    },
    {
      "inputs": [],
      "name": "symbol",
      "outputs": [
        {
          "internalType": "string",
          "name": "",
          "type": "string"
        }
      ],
      "stateMutability": "view",
      "type": "function",
      "constant": true
    },
    {
      "inputs": [],
      "name": "token",
      "outputs": [
        {
          "internalType": "contract IPatentToken",
          "name": "",
          "type": "address"
        }
      ],
      "stateMutability": "view",
      "type": "function",
      "constant": true
    },
    {
      "inputs": [
        {
          "internalType": "uint256",
          "name": "tokenId",
          "type": "uint256"
        }
      ],
      "name": "tokenURI",
      "outputs": [
        {
          "internalType": "string",
          "name": "",
          "type": "string"
        }
      ],
      "stateMutability": "view",
      "type": "function",
      "constant": true
    },
    {
      "inputs": [
        {
          "internalType": "address",
          "name": "from",
          "type": "address"
        },
        {
          "internalType": "address",
          "name": "to",
          "type": "address"
        },
        {
          "internalType": "uint256",
          "name": "tokenId",
          "type": "uint256"
        }
      ],
      "name": "transferFrom",
      "outputs": [],
      "stateMutability": "nonpayable",
      "type": "function"
    },
    {
      "inputs": [
        {
          "internalType": "string",
          "name": "_uri",
          "type": "string"
        },
        {
          "internalType": "string",
          "name": "_name",
          "type": "string"
        }
      ],
      "name": "filePatent",
      "outputs": [],
      "stateMutability": "nonpayable",
      "type": "function"
    },
    {
      "inputs": [],
      "name": "getTokenCount",
      "outputs": [
        {
          "internalType": "uint256",
          "name": "",
          "type": "uint256"
        }
      ],
      "stateMutability": "view",
      "type": "function",
      "constant": true
    },
    {
      "inputs": [
        {
          "internalType": "uint256",
          "name": "tokenId",
          "type": "uint256"
        }
      ],
      "name": "getBids",
      "outputs": [
        {
          "components": [
            {
              "internalType": "address",
              "name": "bidder",
              "type": "address"
            },
            {
              "internalType": "uint256",
              "name": "amount",
              "type": "uint256"
            },
            {
              "internalType": "enum PatentNFT.State",
              "name": "state",
              "type": "uint8"
            }
          ],
          "internalType": "struct PatentNFT.Bid[]",
          "name": "",
          "type": "tuple[]"
        }
      ],
      "stateMutability": "view",
      "type": "function",
      "constant": true
    },
    {
      "inputs": [
        {
          "internalType": "uint256",
          "name": "tokenId",
          "type": "uint256"
        },
        {
          "internalType": "uint256",
          "name": "indexBid",
          "type": "uint256"
        }
      ],
      "name": "rejectBid",
      "outputs": [],
      "stateMutability": "nonpayable",
      "type": "function"
    },
    {
      "inputs": [
        {
          "internalType": "uint256",
          "name": "tokenId",
          "type": "uint256"
        },
        {
          "internalType": "uint256",
          "name": "indexBid",
          "type": "uint256"
        }
      ],
      "name": "acceptBid",
      "outputs": [],
      "stateMutability": "nonpayable",
      "type": "function"
    },
    {
      "inputs": [
        {
          "internalType": "uint256",
          "name": "patentId",
          "type": "uint256"
        },
        {
          "internalType": "uint256",
          "name": "amount",
          "type": "uint256"
        }
      ],
      "name": "makeBid",
      "outputs": [],
      "stateMutability": "nonpayable",
      "type": "function"
    },
    {
      "inputs": [
        {
          "internalType": "uint256",
          "name": "patentId",
          "type": "uint256"
        }
      ],
      "name": "getPatent",
      "outputs": [
        {
          "components": [
            {
              "internalType": "string",
              "name": "name",
              "type": "string"
            },
            {
              "internalType": "uint256",
              "name": "timestamp",
              "type": "uint256"
            },
            {
              "internalType": "uint256",
              "name": "deadline",
              "type": "uint256"
            }
          ],
          "internalType": "struct PatentNFT.Patent",
          "name": "",
          "type": "tuple"
        }
      ],
      "stateMutability": "view",
      "type": "function",
      "constant": true
    }
  ],
  "bytecode": "0x60806040523480156200001157600080fd5b50604051620047a5380380620047a58339818101604052810190620000379190620001ee565b6040518060400160405280600981526020017f506174656e744e465400000000000000000000000000000000000000000000008152506040518060400160405280600581526020017f50544e46540000000000000000000000000000000000000000000000000000008152508160009080519060200190620000bb92919062000127565b508060019080519060200190620000d492919062000127565b50505080600760006101000a81548173ffffffffffffffffffffffffffffffffffffffff021916908373ffffffffffffffffffffffffffffffffffffffff160217905550600060088190555050620002cd565b82805462000135906200024e565b90600052602060002090601f016020900481019282620001595760008555620001a5565b82601f106200017457805160ff1916838001178555620001a5565b82800160010185558215620001a5579182015b82811115620001a457825182559160200191906001019062000187565b5b509050620001b49190620001b8565b5090565b5b80821115620001d3576000816000905550600101620001b9565b5090565b600081519050620001e881620002b3565b92915050565b6000602082840312156200020157600080fd5b60006200021184828501620001d7565b91505092915050565b600062000227826200022e565b9050919050565b600073ffffffffffffffffffffffffffffffffffffffff82169050919050565b600060028204905060018216806200026757607f821691505b602082108114156200027e576200027d62000284565b5b50919050565b7f4e487b7100000000000000000000000000000000000000000000000000000000600052602260045260246000fd5b620002be816200021a565b8114620002ca57600080fd5b50565b6144c880620002dd6000396000f3fe608060405234801561001057600080fd5b50600436106101425760003560e01c806378a89567116100b8578063adfcdc111161007c578063adfcdc1114610385578063b88d4fde146103a1578063c87b56dd146103bd578063e985e9c5146103ed578063f422bc681461041d578063fc0c546a1461044f57610142565b806378a89567146102e157806379baa9fd146102ff57806395d89b411461031b5780639c6d0d7814610339578063a22cb4651461036957610142565b8063131d9a271161010a578063131d9a27146101fd57806323b872dd1461022d57806328d0f45e1461024957806342842e0e146102655780636352211e1461028157806370a08231146102b157610142565b806301ffc9a71461014757806302e9d5e41461017757806306fdde0314610193578063081812fc146101b1578063095ea7b3146101e1575b600080fd5b610161600480360381019061015c9190612db7565b61046d565b60405161016e9190613582565b60405180910390f35b610191600480360381019061018c9190612ec7565b61054f565b005b61019b6109f1565b6040516101a891906135b8565b60405180910390f35b6101cb60048036038101906101c69190612e75565b610a83565b6040516101d89190613499565b60405180910390f35b6101fb60048036038101906101f69190612d52565b610b08565b005b61021760048036038101906102129190612e75565b610c20565b6040516102249190613560565b60405180910390f35b61024760048036038101906102429190612c4c565b610def565b005b610263600480360381019061025e9190612e09565b610e4f565b005b61027f600480360381019061027a9190612c4c565b61101c565b005b61029b60048036038101906102969190612e75565b61103c565b6040516102a89190613499565b60405180910390f35b6102cb60048036038101906102c69190612be7565b6110ee565b6040516102d8919061391a565b60405180910390f35b6102e96111a6565b6040516102f6919061391a565b60405180910390f35b61031960048036038101906103149190612ec7565b6111b0565b005b6103236113ec565b60405161033091906135b8565b60405180910390f35b610353600480360381019061034e9190612e75565b61147e565b60405161036091906138f8565b60405180910390f35b610383600480360381019061037e9190612d16565b611551565b005b61039f600480360381019061039a9190612ec7565b6116d2565b005b6103bb60048036038101906103b69190612c9b565b6119d1565b005b6103d760048036038101906103d29190612e75565b611a33565b6040516103e491906135b8565b60405180910390f35b61040760048036038101906104029190612c10565b611b85565b6040516104149190613582565b60405180910390f35b61043760048036038101906104329190612e75565b611c19565b604051610446939291906135da565b60405180910390f35b610457611ccb565b604051610464919061359d565b60405180910390f35b60007f80ac58cd000000000000000000000000000000000000000000000000000000007bffffffffffffffffffffffffffffffffffffffffffffffffffffffff1916827bffffffffffffffffffffffffffffffffffffffffffffffffffffffff1916148061053857507f5b5e139f000000000000000000000000000000000000000000000000000000007bffffffffffffffffffffffffffffffffffffffffffffffffffffffff1916827bffffffffffffffffffffffffffffffffffffffffffffffffffffffff1916145b80610548575061054782611cf1565b5b9050919050565b3373ffffffffffffffffffffffffffffffffffffffff1661056f8361103c565b73ffffffffffffffffffffffffffffffffffffffff16146105c5576040517f08c379a00000000000000000000000000000000000000000000000000000000081526004016105bc90613658565b60405180910390fd5b80600a6000848152602001908152602001600020805490501061061d576040517f08c379a000000000000000000000000000000000000000000000000000000000815260040161061490613898565b60405180910390fd5b6000600a6000848152602001908152602001600020828154811061066a577f4e487b7100000000000000000000000000000000000000000000000000000000600052603260045260246000fd5b90600052602060002090600302016040518060600160405290816000820160009054906101000a900473ffffffffffffffffffffffffffffffffffffffff1673ffffffffffffffffffffffffffffffffffffffff1673ffffffffffffffffffffffffffffffffffffffff168152602001600182015481526020016002820160009054906101000a900460ff16600281111561072e577f4e487b7100000000000000000000000000000000000000000000000000000000600052602160045260246000fd5b6002811115610766577f4e487b7100000000000000000000000000000000000000000000000000000000600052602160045260246000fd5b815250509050806000015173ffffffffffffffffffffffffffffffffffffffff166107908461103c565b73ffffffffffffffffffffffffffffffffffffffff1614156107e7576040517f08c379a00000000000000000000000000000000000000000000000000000000081526004016107de906138b8565b60405180910390fd5b8060200151600760009054906101000a900473ffffffffffffffffffffffffffffffffffffffff1673ffffffffffffffffffffffffffffffffffffffff166370a0823183600001516040518263ffffffff1660e01b815260040161084b9190613499565b60206040518083038186803b15801561086357600080fd5b505afa158015610877573d6000803e3d6000fd5b505050506040513d601f19601f8201168201806040525081019061089b9190612e9e565b10156108dc576040517f08c379a00000000000000000000000000000000000000000000000000000000081526004016108d390613838565b60405180910390fd5b827fbc59543ce757cc7e4527a51c4c9d6e96e88a233bda92dc16607b63fd9599ade03383600001516040516109129291906134b4565b60405180910390a2600760009054906101000a900473ffffffffffffffffffffffffffffffffffffffff1673ffffffffffffffffffffffffffffffffffffffff1663beabacc882600001513384602001516040518463ffffffff1660e01b8152600401610981939291906134dd565b602060405180830381600087803b15801561099b57600080fd5b505af11580156109af573d6000803e3d6000fd5b505050506040513d601f19601f820116820180604052508101906109d39190612d8e565b506109e33382600001518561101c565b6109ec83611d5b565b505050565b606060008054610a0090613c3a565b80601f0160208091040260200160405190810160405280929190818152602001828054610a2c90613c3a565b8015610a795780601f10610a4e57610100808354040283529160200191610a79565b820191906000526020600020905b815481529060010190602001808311610a5c57829003601f168201915b5050505050905090565b6000610a8e82611e28565b610acd576040517f08c379a0000000000000000000000000000000000000000000000000000000008152600401610ac4906137d8565b60405180910390fd5b6004600083815260200190815260200160002060009054906101000a900473ffffffffffffffffffffffffffffffffffffffff169050919050565b6000610b138261103c565b90508073ffffffffffffffffffffffffffffffffffffffff168373ffffffffffffffffffffffffffffffffffffffff161415610b84576040517f08c379a0000000000000000000000000000000000000000000000000000000008152600401610b7b90613858565b60405180910390fd5b8073ffffffffffffffffffffffffffffffffffffffff16610ba3611e94565b73ffffffffffffffffffffffffffffffffffffffff161480610bd25750610bd181610bcc611e94565b611b85565b5b610c11576040517f08c379a0000000000000000000000000000000000000000000000000000000008152600401610c08906136f8565b60405180910390fd5b610c1b8383611e9c565b505050565b60603373ffffffffffffffffffffffffffffffffffffffff16610c428361103c565b73ffffffffffffffffffffffffffffffffffffffff1614610c98576040517f08c379a0000000000000000000000000000000000000000000000000000000008152600401610c8f90613658565b60405180910390fd5b600a6000838152602001908152602001600020805480602002602001604051908101604052809291908181526020016000905b82821015610de457838290600052602060002090600302016040518060600160405290816000820160009054906101000a900473ffffffffffffffffffffffffffffffffffffffff1673ffffffffffffffffffffffffffffffffffffffff1673ffffffffffffffffffffffffffffffffffffffff168152602001600182015481526020016002820160009054906101000a900460ff166002811115610d99577f4e487b7100000000000000000000000000000000000000000000000000000000600052602160045260246000fd5b6002811115610dd1577f4e487b7100000000000000000000000000000000000000000000000000000000600052602160045260246000fd5b8152505081526020019060010190610ccb565b505050509050919050565b610e00610dfa611e94565b82611f55565b610e3f576040517f08c379a0000000000000000000000000000000000000000000000000000000008152600401610e3690613878565b60405180910390fd5b610e4a838383612033565b505050565b600760009054906101000a900473ffffffffffffffffffffffffffffffffffffffff1673ffffffffffffffffffffffffffffffffffffffff16637f5db3e8336040518263ffffffff1660e01b8152600401610eaa9190613499565b602060405180830381600087803b158015610ec457600080fd5b505af1158015610ed8573d6000803e3d6000fd5b505050506040513d601f19601f82011682018060405250810190610efc9190612d8e565b610f3b576040517f08c379a0000000000000000000000000000000000000000000000000000000008152600401610f32906138d8565b60405180910390fd5b6040518060600160405280828152602001428152602001632598060042610f629190613a80565b8152506009600060085481526020019081526020016000206000820151816000019080519060200190610f969291906129c0565b506020820151816001015560408201518160020155905050610fba3360085461228f565b610fc6600854836122ad565b6008547fe035201264bc301f014898837139831792b61fd25d2a44511eaa8bac73575e8a33604051610ff89190613499565b60405180910390a26008600081548092919061101390613c9d565b91905055505050565b611037838383604051806020016040528060008152506119d1565b505050565b6000806002600084815260200190815260200160002060009054906101000a900473ffffffffffffffffffffffffffffffffffffffff169050600073ffffffffffffffffffffffffffffffffffffffff168173ffffffffffffffffffffffffffffffffffffffff1614156110e5576040517f08c379a00000000000000000000000000000000000000000000000000000000081526004016110dc90613738565b60405180910390fd5b80915050919050565b60008073ffffffffffffffffffffffffffffffffffffffff168273ffffffffffffffffffffffffffffffffffffffff16141561115f576040517f08c379a000000000000000000000000000000000000000000000000000000000815260040161115690613718565b60405180910390fd5b600360008373ffffffffffffffffffffffffffffffffffffffff1673ffffffffffffffffffffffffffffffffffffffff168152602001908152602001600020549050919050565b6000600854905090565b3373ffffffffffffffffffffffffffffffffffffffff166111d08361103c565b73ffffffffffffffffffffffffffffffffffffffff1614611226576040517f08c379a000000000000000000000000000000000000000000000000000000000815260040161121d90613658565b60405180910390fd5b80600a6000848152602001908152602001600020805490501061127e576040517f08c379a000000000000000000000000000000000000000000000000000000000815260040161127590613898565b60405180910390fd5b6000600a600084815260200190815260200160002082815481106112cb577f4e487b7100000000000000000000000000000000000000000000000000000000600052603260045260246000fd5b906000526020600020906003020160020160006101000a81548160ff02191690836002811115611324577f4e487b7100000000000000000000000000000000000000000000000000000000600052602160045260246000fd5b02179055507fbc154f7987a14b2fa030a8c69aea4ee9febfd621cc40bb12817668a9c3d6b96f826113548461103c565b600a6000868152602001908152602001600020848154811061139f577f4e487b7100000000000000000000000000000000000000000000000000000000600052603260045260246000fd5b906000526020600020906003020160000160009054906101000a900473ffffffffffffffffffffffffffffffffffffffff166040516113e093929190613935565b60405180910390a15050565b6060600180546113fb90613c3a565b80601f016020809104026020016040519081016040528092919081815260200182805461142790613c3a565b80156114745780601f1061144957610100808354040283529160200191611474565b820191906000526020600020905b81548152906001019060200180831161145757829003601f168201915b5050505050905090565b611486612a46565b600960008381526020019081526020016000206040518060600160405290816000820180546114b490613c3a565b80601f01602080910402602001604051908101604052809291908181526020018280546114e090613c3a565b801561152d5780601f106115025761010080835404028352916020019161152d565b820191906000526020600020905b81548152906001019060200180831161151057829003601f168201915b50505050508152602001600182015481526020016002820154815250509050919050565b611559611e94565b73ffffffffffffffffffffffffffffffffffffffff168273ffffffffffffffffffffffffffffffffffffffff1614156115c7576040517f08c379a00000000000000000000000000000000000000000000000000000000081526004016115be906136b8565b60405180910390fd5b80600560006115d4611e94565b73ffffffffffffffffffffffffffffffffffffffff1673ffffffffffffffffffffffffffffffffffffffff16815260200190815260200160002060008473ffffffffffffffffffffffffffffffffffffffff1673ffffffffffffffffffffffffffffffffffffffff16815260200190815260200160002060006101000a81548160ff0219169083151502179055508173ffffffffffffffffffffffffffffffffffffffff16611681611e94565b73ffffffffffffffffffffffffffffffffffffffff167f17307eab39ab6107e8899845ad3d59bd9653f200f220920489ca2b5937696c31836040516116c69190613582565b60405180910390a35050565b6116db8261103c565b73ffffffffffffffffffffffffffffffffffffffff163373ffffffffffffffffffffffffffffffffffffffff161415611749576040517f08c379a000000000000000000000000000000000000000000000000000000000815260040161174090613678565b60405180910390fd5b80600760009054906101000a900473ffffffffffffffffffffffffffffffffffffffff1673ffffffffffffffffffffffffffffffffffffffff166370a08231336040518263ffffffff1660e01b81526004016117a59190613499565b60206040518083038186803b1580156117bd57600080fd5b505afa1580156117d1573d6000803e3d6000fd5b505050506040513d601f19601f820116820180604052508101906117f59190612e9e565b1015611836576040517f08c379a000000000000000000000000000000000000000000000000000000000815260040161182d90613778565b60405180910390fd5b600060405180606001604052803373ffffffffffffffffffffffffffffffffffffffff16815260200183815260200160028081111561189e577f4e487b7100000000000000000000000000000000000000000000000000000000600052602160045260246000fd5b8152509050600a600084815260200190815260200160002081908060018154018082558091505060019003906000526020600020906003020160009091909190915060008201518160000160006101000a81548173ffffffffffffffffffffffffffffffffffffffff021916908373ffffffffffffffffffffffffffffffffffffffff1602179055506020820151816001015560408201518160020160006101000a81548160ff02191690836002811115611982577f4e487b7100000000000000000000000000000000000000000000000000000000600052602160045260246000fd5b021790555050507f4d0cbbf5e8ec1f02fd982d9a636d913a35d38e85d10199d578e4c105aebd282b836119b48561103c565b336040516119c493929190613935565b60405180910390a1505050565b6119e26119dc611e94565b83611f55565b611a21576040517f08c379a0000000000000000000000000000000000000000000000000000000008152600401611a1890613878565b60405180910390fd5b611a2d84848484612321565b50505050565b6060611a3e82611e28565b611a7d576040517f08c379a0000000000000000000000000000000000000000000000000000000008152600401611a74906137b8565b60405180910390fd5b6000600660008481526020019081526020016000208054611a9d90613c3a565b80601f0160208091040260200160405190810160405280929190818152602001828054611ac990613c3a565b8015611b165780601f10611aeb57610100808354040283529160200191611b16565b820191906000526020600020905b815481529060010190602001808311611af957829003601f168201915b505050505090506000611b2761237d565b9050600081511415611b3d578192505050611b80565b600082511115611b72578082604051602001611b5a929190613475565b60405160208183030381529060405292505050611b80565b611b7b84612394565b925050505b919050565b6000600560008473ffffffffffffffffffffffffffffffffffffffff1673ffffffffffffffffffffffffffffffffffffffff16815260200190815260200160002060008373ffffffffffffffffffffffffffffffffffffffff1673ffffffffffffffffffffffffffffffffffffffff16815260200190815260200160002060009054906101000a900460ff16905092915050565b6009602052806000526040600020600091509050806000018054611c3c90613c3a565b80601f0160208091040260200160405190810160405280929190818152602001828054611c6890613c3a565b8015611cb55780601f10611c8a57610100808354040283529160200191611cb5565b820191906000526020600020905b815481529060010190602001808311611c9857829003601f168201915b5050505050908060010154908060020154905083565b600760009054906101000a900473ffffffffffffffffffffffffffffffffffffffff1681565b60007f01ffc9a7000000000000000000000000000000000000000000000000000000007bffffffffffffffffffffffffffffffffffffffffffffffffffffffff1916827bffffffffffffffffffffffffffffffffffffffffffffffffffffffff1916149050919050565b5b6000600a6000838152602001908152602001600020805490501115611e2557600a6000828152602001908152602001600020805480611dc4577f4e487b7100000000000000000000000000000000000000000000000000000000600052603160045260246000fd5b6001900381819060005260206000209060030201600080820160006101000a81549073ffffffffffffffffffffffffffffffffffffffff021916905560018201600090556002820160006101000a81549060ff021916905550509055611d5c565b50565b60008073ffffffffffffffffffffffffffffffffffffffff166002600084815260200190815260200160002060009054906101000a900473ffffffffffffffffffffffffffffffffffffffff1673ffffffffffffffffffffffffffffffffffffffff1614159050919050565b600033905090565b816004600083815260200190815260200160002060006101000a81548173ffffffffffffffffffffffffffffffffffffffff021916908373ffffffffffffffffffffffffffffffffffffffff160217905550808273ffffffffffffffffffffffffffffffffffffffff16611f0f8361103c565b73ffffffffffffffffffffffffffffffffffffffff167f8c5be1e5ebec7d5bd14f71427d1e84f3dd0314c0f7b2291e5b200ac8c7c3b92560405160405180910390a45050565b6000611f6082611e28565b611f9f576040517f08c379a0000000000000000000000000000000000000000000000000000000008152600401611f96906136d8565b60405180910390fd5b6000611faa8361103c565b90508073ffffffffffffffffffffffffffffffffffffffff168473ffffffffffffffffffffffffffffffffffffffff16148061201957508373ffffffffffffffffffffffffffffffffffffffff1661200184610a83565b73ffffffffffffffffffffffffffffffffffffffff16145b8061202a57506120298185611b85565b5b91505092915050565b8273ffffffffffffffffffffffffffffffffffffffff166120538261103c565b73ffffffffffffffffffffffffffffffffffffffff16146120a9576040517f08c379a00000000000000000000000000000000000000000000000000000000081526004016120a0906137f8565b60405180910390fd5b600073ffffffffffffffffffffffffffffffffffffffff168273ffffffffffffffffffffffffffffffffffffffff161415612119576040517f08c379a000000000000000000000000000000000000000000000000000000000815260040161211090613698565b60405180910390fd5b61212483838361243b565b61212f600082611e9c565b6001600360008573ffffffffffffffffffffffffffffffffffffffff1673ffffffffffffffffffffffffffffffffffffffff168152602001908152602001600020600082825461217f9190613b07565b925050819055506001600360008473ffffffffffffffffffffffffffffffffffffffff1673ffffffffffffffffffffffffffffffffffffffff16815260200190815260200160002060008282546121d69190613a80565b92505081905550816002600083815260200190815260200160002060006101000a81548173ffffffffffffffffffffffffffffffffffffffff021916908373ffffffffffffffffffffffffffffffffffffffff160217905550808273ffffffffffffffffffffffffffffffffffffffff168473ffffffffffffffffffffffffffffffffffffffff167fddf252ad1be2c89b69c2b068fc378daa952ba7f163c4a11628f55a4df523b3ef60405160405180910390a4505050565b6122a9828260405180602001604052806000815250612440565b5050565b6122b682611e28565b6122f5576040517f08c379a00000000000000000000000000000000000000000000000000000000081526004016122ec90613758565b60405180910390fd5b8060066000848152602001908152602001600020908051906020019061231c9291906129c0565b505050565b61232c848484612033565b6123388484848461249b565b612377576040517f08c379a000000000000000000000000000000000000000000000000000000000815260040161236e90613618565b60405180910390fd5b50505050565b606060405180602001604052806000815250905090565b606061239f82611e28565b6123de576040517f08c379a00000000000000000000000000000000000000000000000000000000081526004016123d590613818565b60405180910390fd5b60006123e861237d565b905060008151116124085760405180602001604052806000815250612433565b8061241284612632565b604051602001612423929190613475565b6040516020818303038152906040525b915050919050565b505050565b61244a83836127df565b612457600084848461249b565b612496576040517f08c379a000000000000000000000000000000000000000000000000000000000815260040161248d90613618565b60405180910390fd5b505050565b60006124bc8473ffffffffffffffffffffffffffffffffffffffff166129ad565b15612625578373ffffffffffffffffffffffffffffffffffffffff1663150b7a026124e5611e94565b8786866040518563ffffffff1660e01b81526004016125079493929190613514565b602060405180830381600087803b15801561252157600080fd5b505af192505050801561255257506040513d601f19601f8201168201806040525081019061254f9190612de0565b60015b6125d5573d8060008114612582576040519150601f19603f3d011682016040523d82523d6000602084013e612587565b606091505b506000815114156125cd576040517f08c379a00000000000000000000000000000000000000000000000000000000081526004016125c490613618565b60405180910390fd5b805181602001fd5b63150b7a0260e01b7bffffffffffffffffffffffffffffffffffffffffffffffffffffffff1916817bffffffffffffffffffffffffffffffffffffffffffffffffffffffff19161491505061262a565b600190505b949350505050565b6060600082141561267a576040518060400160405280600181526020017f300000000000000000000000000000000000000000000000000000000000000081525090506127da565b600082905060005b600082146126ac57808061269590613c9d565b915050600a826126a59190613ad6565b9150612682565b60008167ffffffffffffffff8111156126ee577f4e487b7100000000000000000000000000000000000000000000000000000000600052604160045260246000fd5b6040519080825280601f01601f1916602001820160405280156127205781602001600182028036833780820191505090505b5090505b600085146127d3576001826127399190613b07565b9150600a856127489190613ce6565b60306127549190613a80565b60f81b818381518110612790577f4e487b7100000000000000000000000000000000000000000000000000000000600052603260045260246000fd5b60200101907effffffffffffffffffffffffffffffffffffffffffffffffffffffffffffff1916908160001a905350600a856127cc9190613ad6565b9450612724565b8093505050505b919050565b600073ffffffffffffffffffffffffffffffffffffffff168273ffffffffffffffffffffffffffffffffffffffff16141561284f576040517f08c379a000000000000000000000000000000000000000000000000000000000815260040161284690613798565b60405180910390fd5b61285881611e28565b15612898576040517f08c379a000000000000000000000000000000000000000000000000000000000815260040161288f90613638565b60405180910390fd5b6128a46000838361243b565b6001600360008473ffffffffffffffffffffffffffffffffffffffff1673ffffffffffffffffffffffffffffffffffffffff16815260200190815260200160002060008282546128f49190613a80565b92505081905550816002600083815260200190815260200160002060006101000a81548173ffffffffffffffffffffffffffffffffffffffff021916908373ffffffffffffffffffffffffffffffffffffffff160217905550808273ffffffffffffffffffffffffffffffffffffffff16600073ffffffffffffffffffffffffffffffffffffffff167fddf252ad1be2c89b69c2b068fc378daa952ba7f163c4a11628f55a4df523b3ef60405160405180910390a45050565b600080823b905060008111915050919050565b8280546129cc90613c3a565b90600052602060002090601f0160209004810192826129ee5760008555612a35565b82601f10612a0757805160ff1916838001178555612a35565b82800160010185558215612a35579182015b82811115612a34578251825591602001919060010190612a19565b5b509050612a429190612a67565b5090565b60405180606001604052806060815260200160008152602001600081525090565b5b80821115612a80576000816000905550600101612a68565b5090565b6000612a97612a9284613991565b61396c565b905082815260208101848484011115612aaf57600080fd5b612aba848285613bf8565b509392505050565b6000612ad5612ad0846139c2565b61396c565b905082815260208101848484011115612aed57600080fd5b612af8848285613bf8565b509392505050565b600081359050612b0f81614436565b92915050565b600081359050612b248161444d565b92915050565b600081519050612b398161444d565b92915050565b600081359050612b4e81614464565b92915050565b600081519050612b6381614464565b92915050565b600082601f830112612b7a57600080fd5b8135612b8a848260208601612a84565b91505092915050565b600082601f830112612ba457600080fd5b8135612bb4848260208601612ac2565b91505092915050565b600081359050612bcc8161447b565b92915050565b600081519050612be18161447b565b92915050565b600060208284031215612bf957600080fd5b6000612c0784828501612b00565b91505092915050565b60008060408385031215612c2357600080fd5b6000612c3185828601612b00565b9250506020612c4285828601612b00565b9150509250929050565b600080600060608486031215612c6157600080fd5b6000612c6f86828701612b00565b9350506020612c8086828701612b00565b9250506040612c9186828701612bbd565b9150509250925092565b60008060008060808587031215612cb157600080fd5b6000612cbf87828801612b00565b9450506020612cd087828801612b00565b9350506040612ce187828801612bbd565b925050606085013567ffffffffffffffff811115612cfe57600080fd5b612d0a87828801612b69565b91505092959194509250565b60008060408385031215612d2957600080fd5b6000612d3785828601612b00565b9250506020612d4885828601612b15565b9150509250929050565b60008060408385031215612d6557600080fd5b6000612d7385828601612b00565b9250506020612d8485828601612bbd565b9150509250929050565b600060208284031215612da057600080fd5b6000612dae84828501612b2a565b91505092915050565b600060208284031215612dc957600080fd5b6000612dd784828501612b3f565b91505092915050565b600060208284031215612df257600080fd5b6000612e0084828501612b54565b91505092915050565b60008060408385031215612e1c57600080fd5b600083013567ffffffffffffffff811115612e3657600080fd5b612e4285828601612b93565b925050602083013567ffffffffffffffff811115612e5f57600080fd5b612e6b85828601612b93565b9150509250929050565b600060208284031215612e8757600080fd5b6000612e9584828501612bbd565b91505092915050565b600060208284031215612eb057600080fd5b6000612ebe84828501612bd2565b91505092915050565b60008060408385031215612eda57600080fd5b6000612ee885828601612bbd565b9250506020612ef985828601612bbd565b9150509250929050565b6000612f0f83836133c5565b60608301905092915050565b612f2481613b3b565b82525050565b612f3381613b3b565b82525050565b6000612f4482613a03565b612f4e8185613a31565b9350612f59836139f3565b8060005b83811015612f8a578151612f718882612f03565b9750612f7c83613a24565b925050600181019050612f5d565b5085935050505092915050565b612fa081613b4d565b82525050565b6000612fb182613a0e565b612fbb8185613a42565b9350612fcb818560208601613c07565b612fd481613e02565b840191505092915050565b612fe881613bc2565b82525050565b612ff781613be6565b82525050565b600061300882613a19565b6130128185613a53565b9350613022818560208601613c07565b61302b81613e02565b840191505092915050565b600061304182613a19565b61304b8185613a64565b935061305b818560208601613c07565b61306481613e02565b840191505092915050565b600061307a82613a19565b6130848185613a75565b9350613094818560208601613c07565b80840191505092915050565b60006130ad603283613a64565b91506130b882613e13565b604082019050919050565b60006130d0601c83613a64565b91506130db82613e62565b602082019050919050565b60006130f3602383613a64565b91506130fe82613e8b565b604082019050919050565b6000613116602783613a64565b915061312182613eda565b604082019050919050565b6000613139602483613a64565b915061314482613f29565b604082019050919050565b600061315c601983613a64565b915061316782613f78565b602082019050919050565b600061317f602c83613a64565b915061318a82613fa1565b604082019050919050565b60006131a2603883613a64565b91506131ad82613ff0565b604082019050919050565b60006131c5602a83613a64565b91506131d08261403f565b604082019050919050565b60006131e8602983613a64565b91506131f38261408e565b604082019050919050565b600061320b602e83613a64565b9150613216826140dd565b604082019050919050565b600061322e601b83613a64565b91506132398261412c565b602082019050919050565b6000613251602083613a64565b915061325c82614155565b602082019050919050565b6000613274603183613a64565b915061327f8261417e565b604082019050919050565b6000613297602c83613a64565b91506132a2826141cd565b604082019050919050565b60006132ba602983613a64565b91506132c58261421c565b604082019050919050565b60006132dd602f83613a64565b91506132e88261426b565b604082019050919050565b6000613300602483613a64565b915061330b826142ba565b604082019050919050565b6000613323602183613a64565b915061332e82614309565b604082019050919050565b6000613346603183613a64565b915061335182614358565b604082019050919050565b6000613369601283613a64565b9150613374826143a7565b602082019050919050565b600061338c601c83613a64565b9150613397826143d0565b602082019050919050565b60006133af601983613a64565b91506133ba826143f9565b602082019050919050565b6060820160008201516133db6000850182612f1b565b5060208201516133ee6020850182613457565b5060408201516134016040850182612fee565b50505050565b600060608301600083015184820360008601526134248282612ffd565b91505060208301516134396020860182613457565b50604083015161344c6040860182613457565b508091505092915050565b61346081613bb8565b82525050565b61346f81613bb8565b82525050565b6000613481828561306f565b915061348d828461306f565b91508190509392505050565b60006020820190506134ae6000830184612f2a565b92915050565b60006040820190506134c96000830185612f2a565b6134d66020830184612f2a565b9392505050565b60006060820190506134f26000830186612f2a565b6134ff6020830185612f2a565b61350c6040830184613466565b949350505050565b60006080820190506135296000830187612f2a565b6135366020830186612f2a565b6135436040830185613466565b81810360608301526135558184612fa6565b905095945050505050565b6000602082019050818103600083015261357a8184612f39565b905092915050565b60006020820190506135976000830184612f97565b92915050565b60006020820190506135b26000830184612fdf565b92915050565b600060208201905081810360008301526135d28184613036565b905092915050565b600060608201905081810360008301526135f48186613036565b90506136036020830185613466565b6136106040830184613466565b949350505050565b60006020820190508181036000830152613631816130a0565b9050919050565b60006020820190508181036000830152613651816130c3565b9050919050565b60006020820190508181036000830152613671816130e6565b9050919050565b6000602082019050818103600083015261369181613109565b9050919050565b600060208201905081810360008301526136b18161312c565b9050919050565b600060208201905081810360008301526136d18161314f565b9050919050565b600060208201905081810360008301526136f181613172565b9050919050565b6000602082019050818103600083015261371181613195565b9050919050565b60006020820190508181036000830152613731816131b8565b9050919050565b60006020820190508181036000830152613751816131db565b9050919050565b60006020820190508181036000830152613771816131fe565b9050919050565b6000602082019050818103600083015261379181613221565b9050919050565b600060208201905081810360008301526137b181613244565b9050919050565b600060208201905081810360008301526137d181613267565b9050919050565b600060208201905081810360008301526137f18161328a565b9050919050565b60006020820190508181036000830152613811816132ad565b9050919050565b60006020820190508181036000830152613831816132d0565b9050919050565b60006020820190508181036000830152613851816132f3565b9050919050565b6000602082019050818103600083015261387181613316565b9050919050565b6000602082019050818103600083015261389181613339565b9050919050565b600060208201905081810360008301526138b18161335c565b9050919050565b600060208201905081810360008301526138d18161337f565b9050919050565b600060208201905081810360008301526138f1816133a2565b9050919050565b600060208201905081810360008301526139128184613407565b905092915050565b600060208201905061392f6000830184613466565b92915050565b600060608201905061394a6000830186613466565b6139576020830185612f2a565b6139646040830184612f2a565b949350505050565b6000613976613987565b90506139828282613c6c565b919050565b6000604051905090565b600067ffffffffffffffff8211156139ac576139ab613dd3565b5b6139b582613e02565b9050602081019050919050565b600067ffffffffffffffff8211156139dd576139dc613dd3565b5b6139e682613e02565b9050602081019050919050565b6000819050602082019050919050565b600081519050919050565b600081519050919050565b600081519050919050565b6000602082019050919050565b600082825260208201905092915050565b600082825260208201905092915050565b600082825260208201905092915050565b600082825260208201905092915050565b600081905092915050565b6000613a8b82613bb8565b9150613a9683613bb8565b9250827fffffffffffffffffffffffffffffffffffffffffffffffffffffffffffffffff03821115613acb57613aca613d17565b5b828201905092915050565b6000613ae182613bb8565b9150613aec83613bb8565b925082613afc57613afb613d46565b5b828204905092915050565b6000613b1282613bb8565b9150613b1d83613bb8565b925082821015613b3057613b2f613d17565b5b828203905092915050565b6000613b4682613b98565b9050919050565b60008115159050919050565b60007fffffffff0000000000000000000000000000000000000000000000000000000082169050919050565b6000819050613b9382614422565b919050565b600073ffffffffffffffffffffffffffffffffffffffff82169050919050565b6000819050919050565b6000613bcd82613bd4565b9050919050565b6000613bdf82613b98565b9050919050565b6000613bf182613b85565b9050919050565b82818337600083830152505050565b60005b83811015613c25578082015181840152602081019050613c0a565b83811115613c34576000848401525b50505050565b60006002820490506001821680613c5257607f821691505b60208210811415613c6657613c65613da4565b5b50919050565b613c7582613e02565b810181811067ffffffffffffffff82111715613c9457613c93613dd3565b5b80604052505050565b6000613ca882613bb8565b91507fffffffffffffffffffffffffffffffffffffffffffffffffffffffffffffffff821415613cdb57613cda613d17565b5b600182019050919050565b6000613cf182613bb8565b9150613cfc83613bb8565b925082613d0c57613d0b613d46565b5b828206905092915050565b7f4e487b7100000000000000000000000000000000000000000000000000000000600052601160045260246000fd5b7f4e487b7100000000000000000000000000000000000000000000000000000000600052601260045260246000fd5b7f4e487b7100000000000000000000000000000000000000000000000000000000600052602160045260246000fd5b7f4e487b7100000000000000000000000000000000000000000000000000000000600052602260045260246000fd5b7f4e487b7100000000000000000000000000000000000000000000000000000000600052604160045260246000fd5b6000601f19601f8301169050919050565b7f4552433732313a207472616e7366657220746f206e6f6e20455243373231526560008201527f63656976657220696d706c656d656e7465720000000000000000000000000000602082015250565b7f4552433732313a20746f6b656e20616c7265616479206d696e74656400000000600082015250565b7f596f7520617265206e6f7420746865206f776e6572206f66207468652070617460008201527f656e740000000000000000000000000000000000000000000000000000000000602082015250565b7f596f752061726520616c726561647920746865206f776e6572206f662074686560008201527f20706174656e7400000000000000000000000000000000000000000000000000602082015250565b7f4552433732313a207472616e7366657220746f20746865207a65726f2061646460008201527f7265737300000000000000000000000000000000000000000000000000000000602082015250565b7f4552433732313a20617070726f766520746f2063616c6c657200000000000000600082015250565b7f4552433732313a206f70657261746f7220717565727920666f72206e6f6e657860008201527f697374656e7420746f6b656e0000000000000000000000000000000000000000602082015250565b7f4552433732313a20617070726f76652063616c6c6572206973206e6f74206f7760008201527f6e6572206e6f7220617070726f76656420666f7220616c6c0000000000000000602082015250565b7f4552433732313a2062616c616e636520717565727920666f7220746865207a6560008201527f726f206164647265737300000000000000000000000000000000000000000000602082015250565b7f4552433732313a206f776e657220717565727920666f72206e6f6e657869737460008201527f656e7420746f6b656e0000000000000000000000000000000000000000000000602082015250565b7f45524337323155524953746f726167653a2055524920736574206f66206e6f6e60008201527f6578697374656e7420746f6b656e000000000000000000000000000000000000602082015250565b7f596f7520646f206e6f74206861766520656e6f7567682050544e540000000000600082015250565b7f4552433732313a206d696e7420746f20746865207a65726f2061646472657373600082015250565b7f45524337323155524953746f726167653a2055524920717565727920666f722060008201527f6e6f6e6578697374656e7420746f6b656e000000000000000000000000000000602082015250565b7f4552433732313a20617070726f76656420717565727920666f72206e6f6e657860008201527f697374656e7420746f6b656e0000000000000000000000000000000000000000602082015250565b7f4552433732313a207472616e73666572206f6620746f6b656e2074686174206960008201527f73206e6f74206f776e0000000000000000000000000000000000000000000000602082015250565b7f4552433732314d657461646174613a2055524920717565727920666f72206e6f60008201527f6e6578697374656e7420746f6b656e0000000000000000000000000000000000602082015250565b7f5468652062696464657220646f6573206e6f74206861766520656e6f7567682060008201527f50544e5400000000000000000000000000000000000000000000000000000000602082015250565b7f4552433732313a20617070726f76616c20746f2063757272656e74206f776e6560008201527f7200000000000000000000000000000000000000000000000000000000000000602082015250565b7f4552433732313a207472616e736665722063616c6c6572206973206e6f74206f60008201527f776e6572206e6f7220617070726f766564000000000000000000000000000000602082015250565b7f496e646578206f7574206f662072616e67650000000000000000000000000000600082015250565b7f596f752063616e206e6f742061636365707420796f7572206269647300000000600082015250565b7f46696c696e6720666565207061796d656e74206661696c656400000000000000600082015250565b6003811061443357614432613d75565b5b50565b61443f81613b3b565b811461444a57600080fd5b50565b61445681613b4d565b811461446157600080fd5b50565b61446d81613b59565b811461447857600080fd5b50565b61448481613bb8565b811461448f57600080fd5b5056fea2646970667358221220feb9ec13812fc4e87dae395c69294c88fc1d19f57b1c4d2081170ca540bc1eb064736f6c63430008020033",
  "immutableReferences": {},
  "source": "// SPDX-License-Identifier: MIT\r\npragma solidity >=0.4.22 <0.9.0;\r\n\r\nimport \"@openzeppelin/contracts/token/ERC721/extensions/ERC721URIStorage.sol\";\r\n\r\n\r\ninterface IPatentToken{\r\n    function transfer(address from, address to, uint amount) external returns (bool);\r\n    function balanceOf(address account) external view returns(uint);\r\n    function payFilingFee(address sender) external returns(bool);\r\n}\r\n\r\n\r\n/// @title PatentNFT contract\r\n/// @author Carolina Proietti, Edoardo Giuggioloni, Paolo Marchignoli, Ruben Seror \r\n/// @notice You can use this contract to file patent, buy and sell associated NFTs\r\ncontract PatentNFT is ERC721URIStorage{\r\n\r\n    // Struttura dei brevetti\r\n    struct Patent {\r\n        string name; //brevetto in vendita (s/n)\r\n        uint timestamp;//data deposito brevetto\r\n        uint deadline;//scadenza brevetto\r\n    }\r\n\r\n    enum State {Refused, Accepted, Pending}\r\n\r\n    struct Bid{\r\n        address bidder;\r\n        uint amount;\r\n        State state;\r\n    }\r\n\r\n    IPatentToken public token;\r\n    uint private patentCounter;\r\n    mapping(uint => Patent) public patents;\r\n    mapping(uint => Bid[]) bids;\r\n\r\n    //evento deposito\r\n    event PatentFiled(uint indexed patentId, address owner);\r\n    //evento cessione\r\n    event PatentAssignment(uint indexed patentId, address from, address to);\r\n    //evento offerta rifiutata\r\n    event BidRefused(uint tokenId, address owner, address bidder);\r\n    //evento offerta\r\n    event MakeBid(uint tokenId, address owner, address bidder);\r\n\r\n    constructor(address tokenAddress) ERC721(\"PatentNFT\",\"PTNFT\"){\r\n        token = IPatentToken(tokenAddress);\r\n        patentCounter = 0;\r\n    }\r\n\r\n    ///@notice method that allow user to file their patents\r\n    ///@param _uri URI of the filed Patent in IPFS\r\n    function filePatent(string memory _uri, string memory _name) public{\r\n        require(token.payFilingFee(msg.sender),'Filing fee payment failed');\r\n        patents[patentCounter] = Patent({ \r\n            name: _name, \r\n            timestamp: block.timestamp,\r\n            deadline: block.timestamp + (20 * 365 days)});\r\n        _safeMint(msg.sender, patentCounter);\r\n        _setTokenURI(patentCounter, _uri);\r\n        emit PatentFiled(patentCounter, msg.sender);\r\n        patentCounter++;\r\n    }\r\n\r\n\r\n    ///@notice return number of filed patents\r\n    function getTokenCount() public view returns(uint){\r\n        return patentCounter;\r\n    }\r\n\r\n    function getBids(uint tokenId) public view returns(Bid[] memory){\r\n        require(ownerOf(tokenId) == msg.sender,'You are not the owner of the patent');\r\n        return bids[tokenId];\r\n    }\r\n\r\n    function rejectBid(uint tokenId, uint indexBid) public{\r\n        require(ownerOf(tokenId) == msg.sender,'You are not the owner of the patent');\r\n        require(bids[tokenId].length < indexBid, 'Index out of range');\r\n        bids[tokenId][indexBid].state = State.Refused;\r\n        emit BidRefused(tokenId, ownerOf(tokenId), bids[tokenId][indexBid].bidder);\r\n    }\r\n\r\n    function acceptBid(uint tokenId, uint indexBid) public{\r\n        require(ownerOf(tokenId) == msg.sender,'You are not the owner of the patent');\r\n        require(bids[tokenId].length < indexBid, 'Index out of range');\r\n        Bid memory bid = bids[tokenId][indexBid];\r\n        require(ownerOf(tokenId) != bid.bidder, 'You can not accept your bids');\r\n        require(token.balanceOf(bid.bidder) >= bid.amount, 'The bidder does not have enough PTNT');\r\n        emit PatentAssignment(tokenId, msg.sender, bid.bidder);\r\n        token.transfer(bid.bidder, msg.sender, bid.amount);\r\n        safeTransferFrom(msg.sender, bid.bidder, tokenId);\r\n        clearBids(tokenId);\r\n    }\r\n\r\n    function makeBid(uint patentId, uint amount) public{\r\n        require(msg.sender != ownerOf(patentId),'You are already the owner of the patent');\r\n        require(token.balanceOf(msg.sender) >= amount, 'You do not have enough PTNT');\r\n        Bid memory bid = Bid({\r\n            bidder: msg.sender,\r\n            amount: amount,\r\n            state: State.Pending\r\n        });\r\n        bids[patentId].push(bid);\r\n        emit MakeBid(patentId, ownerOf(patentId), msg.sender);\r\n    }\r\n\r\n    function clearBids(uint patentId) internal {\r\n        while(bids[patentId].length > 0){\r\n            bids[patentId].pop();\r\n        }\r\n    }\r\n\r\n    function getPatent(uint patentId) public view returns(Patent memory){\r\n        return patents[patentId];\r\n\r\n    }\r\n\r\n\r\n}",
  "sourcePath": "C:\\Users\\nosen\\Documents\\PatentLink\\patent\\contracts\\PatentNFT.sol",
  "compiler": {
    "name": "solc",
    "version": "0.8.2+commit.661d1103.Emscripten.clang"
  },
  "schemaVersion": "3.4.16",
  "updatedAt": "2024-01-18T20:47:50.047Z",
  "networkType": "ethereum",
  "devdoc": {
    "author": "Carolina Proietti, Edoardo Giuggioloni, Paolo Marchignoli, Ruben Seror ",
    "kind": "dev",
    "methods": {
      "approve(address,uint256)": {
        "details": "See {IERC721-approve}."
      },
      "balanceOf(address)": {
        "details": "See {IERC721-balanceOf}."
      },
      "filePatent(string,string)": {
        "params": {
          "_uri": "URI of the filed Patent in IPFS"
        }
      },
      "getApproved(uint256)": {
        "details": "See {IERC721-getApproved}."
      },
      "isApprovedForAll(address,address)": {
        "details": "See {IERC721-isApprovedForAll}."
      },
      "name()": {
        "details": "See {IERC721Metadata-name}."
      },
      "ownerOf(uint256)": {
        "details": "See {IERC721-ownerOf}."
      },
      "safeTransferFrom(address,address,uint256)": {
        "details": "See {IERC721-safeTransferFrom}."
      },
      "safeTransferFrom(address,address,uint256,bytes)": {
        "details": "See {IERC721-safeTransferFrom}."
      },
      "setApprovalForAll(address,bool)": {
        "details": "See {IERC721-setApprovalForAll}."
      },
      "supportsInterface(bytes4)": {
        "details": "See {IERC165-supportsInterface}."
      },
      "symbol()": {
        "details": "See {IERC721Metadata-symbol}."
      },
      "tokenURI(uint256)": {
        "details": "See {IERC721Metadata-tokenURI}."
      },
      "transferFrom(address,address,uint256)": {
        "details": "See {IERC721-transferFrom}."
      }
    },
    "title": "PatentNFT contract",
    "version": 1
  },
  "userdoc": {
    "kind": "user",
    "methods": {
      "filePatent(string,string)": {
        "notice": "method that allow user to file their patents"
      },
      "getTokenCount()": {
        "notice": "return number of filed patents"
      }
    },
    "notice": "You can use this contract to file patent, buy and sell associated NFTs",
    "version": 1
  }
}