{
  "contractName": "VendingMachine",
  "abi": [
    {
      "inputs": [],
      "stateMutability": "nonpayable",
      "type": "constructor"
    },
    {
      "inputs": [
        {
          "internalType": "address",
          "name": "",
          "type": "address"
        }
      ],
      "name": "donutBalances",
      "outputs": [
        {
          "internalType": "uint256",
          "name": "",
          "type": "uint256"
        }
      ],
      "stateMutability": "view",
      "type": "function"
    },
    {
      "inputs": [],
      "name": "owner",
      "outputs": [
        {
          "internalType": "address",
          "name": "",
          "type": "address"
        }
      ],
      "stateMutability": "view",
      "type": "function"
    },
    {
      "inputs": [],
      "name": "getVendingMachineBalance",
      "outputs": [
        {
          "internalType": "uint256",
          "name": "",
          "type": "uint256"
        }
      ],
      "stateMutability": "view",
      "type": "function"
    },
    {
      "inputs": [
        {
          "internalType": "uint256",
          "name": "amount",
          "type": "uint256"
        }
      ],
      "name": "restock",
      "outputs": [],
      "stateMutability": "nonpayable",
      "type": "function"
    },
    {
      "inputs": [
        {
          "internalType": "uint256",
          "name": "amount",
          "type": "uint256"
        }
      ],
      "name": "purchase",
      "outputs": [],
      "stateMutability": "payable",
      "type": "function"
    }
  ],
  "bytecode": "0x608060405234801561001057600080fd5b50336000806101000a81548173ffffffffffffffffffffffffffffffffffffffff021916908373ffffffffffffffffffffffffffffffffffffffff1602179055506064600160003073ffffffffffffffffffffffffffffffffffffffff1673ffffffffffffffffffffffffffffffffffffffff1681526020019081526020016000208190555061083c806100a56000396000f3fe60806040526004361061004a5760003560e01c80638da5cb5b1461004f5780639a020d8a1461007a578063c21a702a146100b7578063e7644d34146100e0578063efef39a11461010b575b600080fd5b34801561005b57600080fd5b50610064610127565b604051610071919061051b565b60405180910390f35b34801561008657600080fd5b506100a1600480360381019061009c9190610442565b61014b565b6040516100ae9190610596565b60405180910390f35b3480156100c357600080fd5b506100de60048036038101906100d9919061046b565b610163565b005b3480156100ec57600080fd5b506100f561024a565b6040516101029190610596565b60405180910390f35b6101256004803603810190610120919061046b565b610291565b005b60008054906101000a900473ffffffffffffffffffffffffffffffffffffffff1681565b60016020528060005260406000206000915090505481565b60008054906101000a900473ffffffffffffffffffffffffffffffffffffffff1673ffffffffffffffffffffffffffffffffffffffff163373ffffffffffffffffffffffffffffffffffffffff16146101f1576040517f08c379a00000000000000000000000000000000000000000000000000000000081526004016101e890610556565b60405180910390fd5b80600160003073ffffffffffffffffffffffffffffffffffffffff1673ffffffffffffffffffffffffffffffffffffffff168152602001908152602001600020600082825461024091906105c2565b9250508190555050565b6000600160003073ffffffffffffffffffffffffffffffffffffffff1673ffffffffffffffffffffffffffffffffffffffff16815260200190815260200160002054905090565b671bc16d674ec80000816102a59190610618565b3410156102e7576040517f08c379a00000000000000000000000000000000000000000000000000000000081526004016102de90610536565b60405180910390fd5b80600160003073ffffffffffffffffffffffffffffffffffffffff1673ffffffffffffffffffffffffffffffffffffffff168152602001908152602001600020541015610369576040517f08c379a000000000000000000000000000000000000000000000000000000000815260040161036090610576565b60405180910390fd5b80600160003073ffffffffffffffffffffffffffffffffffffffff1673ffffffffffffffffffffffffffffffffffffffff16815260200190815260200160002060008282546103b89190610672565b9250508190555080600160003373ffffffffffffffffffffffffffffffffffffffff1673ffffffffffffffffffffffffffffffffffffffff168152602001908152602001600020600082825461040e91906105c2565b9250508190555050565b600081359050610427816107d8565b92915050565b60008135905061043c816107ef565b92915050565b60006020828403121561045457600080fd5b600061046284828501610418565b91505092915050565b60006020828403121561047d57600080fd5b600061048b8482850161042d565b91505092915050565b61049d816106a6565b82525050565b60006104b06025836105b1565b91506104bb82610711565b604082019050919050565b60006104d3601b836105b1565b91506104de82610760565b602082019050919050565b60006104f66034836105b1565b915061050182610789565b604082019050919050565b610515816106d8565b82525050565b60006020820190506105306000830184610494565b92915050565b6000602082019050818103600083015261054f816104a3565b9050919050565b6000602082019050818103600083015261056f816104c6565b9050919050565b6000602082019050818103600083015261058f816104e9565b9050919050565b60006020820190506105ab600083018461050c565b92915050565b600082825260208201905092915050565b60006105cd826106d8565b91506105d8836106d8565b9250827fffffffffffffffffffffffffffffffffffffffffffffffffffffffffffffffff0382111561060d5761060c6106e2565b5b828201905092915050565b6000610623826106d8565b915061062e836106d8565b9250817fffffffffffffffffffffffffffffffffffffffffffffffffffffffffffffffff0483118215151615610667576106666106e2565b5b828202905092915050565b600061067d826106d8565b9150610688836106d8565b92508282101561069b5761069a6106e2565b5b828203905092915050565b60006106b1826106b8565b9050919050565b600073ffffffffffffffffffffffffffffffffffffffff82169050919050565b6000819050919050565b7f4e487b7100000000000000000000000000000000000000000000000000000000600052601160045260246000fd5b7f596f75206d75737420706179206174206c65617374203220455448207065722060008201527f646f6e7574000000000000000000000000000000000000000000000000000000602082015250565b7f4f6e6c7920746865206f776e65722063616e20726573746f636b2e0000000000600082015250565b7f4e6f7420656e6f75676820646f6e75747320696e2073746f636b20746f20636f60008201527f6d706c6574652074686973207075726368617365000000000000000000000000602082015250565b6107e1816106a6565b81146107ec57600080fd5b50565b6107f8816106d8565b811461080357600080fd5b5056fea26469706673582212202233eecbf329e994ed5fc2c2b870b978a621f5f5b2ba143451645abfa3b6947664736f6c63430008020033",
  "immutableReferences": {},
  "source": "// SPDX-License-Identifier: MIT\r\npragma solidity ^0.8.2;\r\n\r\ncontract VendingMachine {\r\n\r\n    // state variables\r\n    address public owner;\r\n    mapping (address => uint) public donutBalances;\r\n\r\n    // set the owner as th address that deployed the contract\r\n    // set the initial vending machine balance to 100\r\n    constructor() {\r\n        owner = msg.sender;\r\n        donutBalances[address(this)] = 100;\r\n    }\r\n\r\n    function getVendingMachineBalance() public view returns (uint) {\r\n        return donutBalances[address(this)];\r\n    }\r\n\r\n    // Let the owner restock the vending machine\r\n    function restock(uint amount) public {\r\n        require(msg.sender == owner, \"Only the owner can restock.\");\r\n        donutBalances[address(this)] += amount;\r\n    }\r\n\r\n    // Purchase donuts from the vending machine\r\n    function purchase(uint amount) public payable {\r\n        require(msg.value >= amount * 2 ether, \"You must pay at least 2 ETH per donut\");\r\n        require(donutBalances[address(this)] >= amount, \"Not enough donuts in stock to complete this purchase\");\r\n        donutBalances[address(this)] -= amount;\r\n        donutBalances[msg.sender] += amount;\r\n    }\r\n}",
  "sourcePath": "C:\\Users\\Paolo\\OneDrive\\Documenti\\progettoBlockchain\\patent\\contracts\\vendingMachine.sol",
  "compiler": {
    "name": "solc",
    "version": "0.8.2+commit.661d1103.Emscripten.clang"
  },
  "schemaVersion": "3.4.16",
  "updatedAt": "2024-01-15T14:03:34.092Z",
  "devdoc": {
    "kind": "dev",
    "methods": {},
    "version": 1
  },
  "userdoc": {
    "kind": "user",
    "methods": {},
    "version": 1
  }
}